:100FF80031202530367500322020202025303375E9
:0110080000E7
:03102A000133018E
:100FE700120FCA120003121009120FA4120EEB807F
:010FF700F801
:03001B00020D6172
:100D6100C0E0C0F0C083C082C0D075D000C000C058
:100D710001C002C003C004C005C006C007E52A24A3
:100D810001F52AE43529F529E43528F528E4352744
:100D9100F5270526E526B40A037526000524E52472
:100DA10070020523FFAE23BE0109BFF406752300BF
:100DB100752400E47BE87A03F9F8AF2AAE29AD285F
:100DC100AC271205D3AC00AD01AE02AF03EC4D4E22
:100DD1004F700205367B007A00792BAD25120F3F4B
:100DE1000525E525B40803752500D007D006D005F3
:100DF100D004D003D002D001D000D0D0D082D08393
:050E0100D0F0D0E0324A
:100FA400E5267021752601120C57E5226F5FFE8F2E
:100FB40022BE040A0533E533B40203E4F533E53312
:050FC40004FF12101AE9
:010FC9002205
:100EEB00E5244523704D752300752401E53314600B
:100EFB001404702D7543FF75440F7545F875460046
:100F0B008536478013120E928F347543FF75440F4D
:100F1B007545FF7546008F477B007A0079371207BE
:100F2B003275430075440075452B7B007A00793789
:040F3B00120B45222E
:100FCA007580FFE5A0541F4480F5A053A01FE4F5E7
:0D0FDA0080E5A0541F44A0F5A053A01F22E5
:10101A00EFF4F580E5A0541F4480F5A053A01F22E9
:10000300538EBF53890F758B18758DFCC28FD28E9B
:05001300D2ABD2AF22C8
:060B45008B408A41894249
:100B4B00E4F547F546E546C394084003020C56AB63
:100B5B0040AA41A9428547827583001205361206C9
:100B6B00830C23200C1E2D0BB5300BBA310BBF326F
:100B7B000BC4330BC9340BCE350BD3360BD8370B19
:100B8B00DD380BE2390BE7410BEC420BF1430BF673
:100B9B00440BFB450C00460C05480C0A4C0C0F4E45
:100BAB000C14500C195500000C237548C0806C7543
:100BBB0048F980677548A480627548B0805D7548B8
:100BCB009980587548928053754882804E7548F8C5
:100BDB0080497548808044754890803F754888806F
:100BEB003A75488380357548C680307548A1802B8F
:100BFB00754886802675488E8021754889801C75BE
:100C0B0048C780177548C8801275488C800D754889
:100C1B00C180087548BF80037548FF85478275837F
:100C2B0000A3AB40AA41A942120536B42E05534886
:100C3B007F0547AB43AA44A945854682758300E5EA
:0B0C4B004812057505460547020B50D6
:010C5600227B
:100F3F007580FFE5A0541F44E0F5A053A01F740176
:100F4F00A805088002C333D8FCF580E5A0541F44E0
:100F5F00C0F5A053A01FAF058F8275830012053611
:0E0F6F00F580E5A0541F44E0F5A053A01F221A
:100C5700C2C4D2C2D2B5D2B4AFB07E00D2C4C2C26F
:100C6700D2B5D2B4EFC4F8540FC868FFEEC454F03D
:100C770048FEE5B0540FFDEF4DD2C4D2C2C2B5D283
:100C8700B4C4F8540FC868FFEEC454F048FEE5B08A
:100C9700540FFDEF4DD2C4D2C2D2B5C2B4C4F8547A
:100CA7000FC868FFEEC454F048FEE5B0540FFDEFDF
:100CB7004DD2C4D2C2F4FFEEF4FEEF8EF01206A9B5
:100CC7000D5600010D5100020D4C00040D470008A0
:100CD7000D4200100D3D00200D3800400D330080FF
:100CE7000D2E01000D2902000D2404000D1F080020
:100CF7000D1A10000D1520000D1040000D0B80007F
:100D070000000D5B754004804E75400580497540B5
:100D1700068044754007803F754008803A75400952
:100D2700803575400A803075400B802B75400C80EC
:100D37002675400D802175400E801C75400F801769
:100D47007540108012754011800D7540128008752E
:090D570040138003E4F540AF40B5
:010D60002270
:10100900538E7F5389F0758AF4758CFFC28DC28C1B
:0110190022B4
:100E92007E0AC290758AF4758CFFD28CAD061EED67
:100EA200600C308DFDA290B39290C28D80EEC28C08
:100EB200E4F58AF58CD28C309103308DFAC28C30F5
:100EC2008D06C28D7FFF8020AF8CEFFEAD8A7C0045
:100ED200E42DFDEC3EFCE41201297B967A43798BEA
:080EE200783C12001E120162AF
:010EEA0022E5
:10001E00EC4D6011E8497017ED33EC3304600DE4DC
:10002E00FCFFFEFD22E933E8330470F80201CE1224
:10003E00019958046009E4CC248150062850090225
:10004E0001D82840030201D5C0E0EB4A7044B980C4
:10005E0006D0E0FB0201C4EF4E701CBD8008EBFF22
:10006E00EAFEE9FD80EBE98DF0A4FEE5F002010762
:10007E00E9CDF9EAFEEBFFEF89F0A4FCE5F0CE89BD
:10008E00F0A42EFFE435F0CD89F0A42DFEE435F07A
:10009E008067EF4E7005BD80D780C3EF8BF0A4ACA8
:1000AE00F0EE8BF0A42CFCE435F0F8EF8AF0A42CE3
:1000BE00E5F038FCE433CB8DF0A42CFCE5F03BF8F6
:1000CE00EE8AF0A42CFCE5F038F8E433CF89F0A4E6
:1000DE002CFCE5F038CF3400CE89F0A42FFFE5F0EC
:1000EE003EFEE433C98DF0A42EFEE5F039CD8AF044
:1000FE00A42FFFE5F03EFEE43DFD33D0E0FB5007BC
:10010E000BBB000F0201D8EC2CFCEF33FFEE33FEDD
:06011E00ED33FD0201B00B
:1001240075F020800E75F010800575F0087D007E56
:10013400007F003392D530D503120665EC334010AE
:10014400EF33FFEE33FEED33FDEC33FCD5F0ED225F
:0E015400E5F0247EA2D513CC92E7CDCEFF229B
:10016200EDD2E7CD33EC3392D524814006E4FFFE95
:10017200FDFC22FCE4CFCECDCC24E0501174FF80F4
:10018200EDC3CC13CCCD13CDCE13CECF13CF047091
:07019200F030D5DE02066526
:1006D600E5572443F8E60557227840300702784369
:1006E600E475F00112067302051D2000EB7F2ED281
:1006F600008018EF540F2490D43440D4FF30040BFC
:10070600EF24BFB41A0050032461FFE558600215B8
:1007160058055BE55B7002055A30070D7840E475B5
:10072600F001120673EF020563020F7D7403D20710
:100736008003E4C207F5578B408A418942E4F558A5
:10074600F55AF55BE55860077F2012071180F575AD
:1007560059FFC201C200C202C203C205C206C208D4
:100766001206DFFF700D3007057F00120722AF5B10
:10077600AE5A22B4255FC2D5C2041206DFFF24D0CA
:10078600B40A00501A75F00A785830D50508B6FF35
:100796000106C6A426F620D5047002D20380D92409
:1007A600CFB41A00EF5004C2E5D204020A0FD201F8
:1007B60080C6D20080C0D20280BCD2D580BAD20513
:1007C60080B47F201207112002077401B55800403B
:1007D600F11206D6FF12071102074AD208D2068086
:1007E600951206D6FB1206D6FA1206D6F94A4B70B1
:1007F6000679067A0B7BFF20022EE558602A7E00DA
:100806008E8275830012053660060EEE655970F00D
:10081600C2D5EBC0E0EAC0E0E9C0E0EE120A6FD054
:10082600E0F9D0E0FAD0E0FB12051DFF60AAEBC0AC
:10083600E0EAC0E0E9C0E0120711D0E02401F9D0F7
:10084600E03400FAD0E0FBE5590460DCD559D980E4
:1008560087D20280A2120A5260F7E559700104128B
:1008660001E3A959600DE559600914F559120AF911
:10087600EF60F3EA30E702F404C3995077EAF4250F
:10088600590430E701E404F559800D120A5260C19B
:10089600EA055925591201E3EA7856F630E701E4EC
:1008A600255904D5590420050114120A6FE4C0E045
:1008B600120AF97856E6601320E70714F61206F9CD
:1008C600802204F6D0E014C0E07F001206F9E55954
:1008D60060071206F01559800B3005031206F0D09A
:1008E600E002074AD0E00480C5120A5260A0E5592A
:1008F600041201E37856EAF6E55920050260010480
:050906002404120A6F39
:10090B0074FF04C0E0120AF91206F9E5592005023A
:10091B0060031206F0D0E0B559E87F451207037863
:10092B0056E67F2B30E7047F2DF404C0E01207114D
:10093B00D0E075F00A84C0F01206FAD0E01206FA85
:10094B0002074A791080027908C206C2088008D2D1
:10095B00D5790A8004790AC2D5E559047002F55994
:10096B00E4FAFDFEFF1206D6FC7B082001131206EB
:10097B00D6FD7B1030000A1206D6FE1206D6FF7B80
:10098B0020EC3382D592D55013C3E43000069FFF81
:10099B00E49EFEE42001039DFDE49CFCE4CBF8C245
:1009AB0001EC700CCFCECDCCE824F8F870F38017A7
:1009BB00C3EF33FFEE33FEED33FDEC33FCEB33FBD8
:1009CB00994002FB0FD8E9EB300105F8D0E0C448A1
:1009DB00B201C0E00AEC4D4E4F78207B0070C2EAAA
:1009EB00B5590040BCC0E0120A71D0F0D0E0200134
:1009FB0004C4C0E0C4B201C0F01206FAD0F0D5F0C6
:100A0B00EB02074A12068307E753094E5807B84C07
:100A1B0007B44209524F095A44095A4907CD4309B1
:100A2B00605508914608EF45085B470B265007BCFD
:100A3B002D07C02E07E32B07C42307E1200B0F2A3A
:100A4B00077C48000007DBE559B4FF037559061214
:100A5B0006D6FC1206D6FD1206D6FE1206D6FF7877
:100A6B004F020212790AA2D5200314300509B910DE
:100A7B00020404B9080104A2D52006025001042087
:100A8B0002689202B558005034C0E07F2030031941
:100A9B007F30A20272067205500F120AC8C202C240
:100AAB0006C205C2087F30800F300503E9C0E01293
:100ABB000711300503D0E0F9D0E0B558CC3005175D
:100ACB007F30B9100C1207117F583004077F7880E4
:100ADB0003B908031207113002057F2D0207117F9E
:100AEB00202008F87F2B2006F322920280CF7F0074
:100AFB00B407005005244FF8E6FF22286E756C6C86
:100B0B002900D2011206D63001F8C201785830D52F
:100B1B000108F602077C2D504349581206D62403D0
:100B2B00B405004001E4900B2193120702743A12B2
:0A0B3B000702D20375580402094EA8
:10019900E9D2E7C933E833F892D5EDD2E7CD33ECAC
:0701A90033FC5002B2D52225
:1001B000EC30E7100FBF000C0EBE00080DBD0004B0
:1001C0000BEB6014A2D5EB13FCED92E7FD2274FF5C
:1001D000FCFDFEFF22E480F8A2D574FF13FC7D80B5
:0301E000E480EFC9
:1001E300F920E72824F950037907E4F42402FB18E3
:1001F300DBFDE624FB5014E9600DE4F618E604F693
:0F020300B40A08E4F6D9F57401F60A22C2D5222E
:10021200ED33EC3392D5FA602AB4FF33EDC2E77BBB
:10022200FF60067A027937E4227A02794020D50407
:100232007A02793B224E614E002B494E46002D49EF
:100242004E4600E47A08F608DAFC7B00740722E8DE
:10025200C0E0ECC0E0EDC0E0EEC0E0EFC0E0EA7567
:10026200F010A4CAABF075F04DA42BFBE435F0FC02
:10027200EA2410FAEB34C5FBEC34D9FCEDC2E7FFFB
:1002820075F056A4F42411C5F0F434C58FF0A42AF5
:10029200E5F03BE43CF620E7141204DDD0E0FFD0A9
:1002A200E0FED0E0FDD0E0FC1204108014F4041251
:1002B20004DDD0E0FFD0E0FED0E0FDD0E0FC120093
:1002C2001ED0E0F8E6FAEDD2E7CD33EC332482FB20
:1002D200E4C3CF33CFCE33CECD33CD33DBF37B0785
:1002E20075F00A846004F6081B0AE5F0F6088FF040
:1002F200740AA4FFACF08EF0740AA42CFEACF05089
:10030200010C8DF0740AA42CFDE435F0F608DBDE56
:030312007407224B
:100315000201CEE86480F8E933E83360110460F047
:10032500ED33EC337009E8FCE9FDEAFEEBFF22044E
:1003350060DED3EB9FEA9EE99DE8C2E78CF0C2F749
:1003450095F0400CE8CCF8E9CDF9EACEFAEBCFFB15
:1003550012019985D0F05804700320D5B3E80470D4
:10036500075002B2D50201D892D5EC0460F7E4CC6F
:10037500C0E0C398F8603B94186008400DD0E0FBDE
:100385000201B0E4FBFAC9FC8028E830E406E4C9C0
:10039500FBE4CAFCE830E305E4C9CACBFCE8540732
:1003A5006010F8C3E913F9EA13FAEB13FBEC13FC3D
:1003B500D8F130F52FC3E49CFCEF9BFFEE9AFEEDE0
:1003C50099FDD0E0FBEF4E4D4C701222DB0302018C
:1003D500D5EC2CFCEF33FFEE33FEED33FDED30E7CE
:1003E500EB0201B0EF2BFFEE3AFEED39FDD0E0FB5D
:1003F50050130BBB00030201D8ED13FDEE13FEEF06
:0804050013FFEC13FC0201B02F
:10040D000201D8EC5D046005E8590470030201CEC9
:10041D00120199580460F6EC4860F2EC7004FDFE90
:10042D00FF22C860DB2481C85009C39860025006C2
:10043D000201D59850CAF582E9294B4A7005AB8265
:10044D000201C475F0007C1A7880C3EF9BEE9AED23
:10045D0099400DC3EF9BFFEE9AFEED99FDE842F03A
:10046D00DC23ACF0D0E0FFD0E0FED0E0FDAB82208D
:10047D00E7101BEB60BAEC2CFCEF33FFEE33FEED17
:10048D0033FD0201B0E803F830E705C0F075F00068
:10049D00EF2FFFEE33FEED33FD40B830E7C280AAFB
:1004AD003F8000004120000042C80000447A000057
:1004BD00461C400047C35000497424004B189680D9
:1004CD004CBEBC205A0E1BCA6753C21C749DC5AED0
:1004DD00FB60065407601C232312050BEB54386098
:1004ED00091204F712050612001EECF8EDF9EEFAEA
:1004FD00EFCB22EB12050680F1543803241C900437
:10050D00ADFE93FC0EEE93FD0EEE930ECE93FF22F9
:03000000020E06E7
:0C0E0600787FE4F6D8FD75815B020E4D8C
:10051D00BB010689828A83E0225002E722BBFE02DC
:09052D00E32289828A83E493220F
:10053600BB010CE58229F582E5833AF583E022507A
:1005460006E92582F8E622BBFE06E92582F8E222C4
:0D055600E58229F582E5833AF583E49322DE
:10056300BB010689828A83F0225002F722BBFE0177
:02057300F32271
:10057500F8BB010DE58229F582E5833AF583E8F0BC
:10058500225006E92582C8F622BBFE05E92582C868
:02059500F22250
:1005970075F008758200EF2FFFEE33FECD33CDCC1B
:1005A70033CCC58233C5829BED9AEC99E58298409E
:1005B7000CF582EE9BFEED9AFDEC99FC0FD5F0D67B
:1005C700E4CEFBE4CDFAE4CCF9A88222B800C1B9A5
:1005D7000059BA002DEC8BF084CFCECDFCE5F0CBE3
:1005E700F97818EF2FFFEE33FEED33FDEC33FCEB1C
:1005F70033FB10D703994004EB99FB0FD8E5E4F9D7
:10060700FA227818EF2FFFEE33FEED33FDEC33FCC3
:10061700C933C910D7059BE99A4007EC9BFCE99AB7
:10062700F90FD8E0E4C9FAE4CCFB2275F010EF2FFC
:10063700FFEE33FEED33FDCC33CCC833C810D707FC
:100647009BEC9AE899400AED9BFDEC9AFCE899F837
:0E0657000FD5F0DAE4CDFBE4CCFAE4C8F922CA
:0E066500C3E49FFFE49EFEE49DFDE49CFC22A6
:10067300FAE6FB0808E6F925F0F618E6CA3AF62288
:10068300D083D082F8E4937012740193700DA3A306
:1006930093F8740193F5828883E47374029368601A
:0606A300EFA3A3A380DF1A
:1006A900D083D082F8E4937012740193700DA3A3E0
:1006B90093F8740193F5828883E473740293B5F017
:0D06C900067403936860E9A3A3A3A380D87F
:100F7D00EFB40A07740D120F88740A309811A899EE
:100F8D00B8130CC2983098FDA899C298B811F630D4
:070F9D0099FDC299F59922AC
:100E1200020FE7E493A3F8E493A34003F68001F200
:100E220008DFF48029E493A3F85407240CC8C333E1
:100E3200C4540F4420C8834004F456800146F6DFB0
:100E4200E4800B010204081020408090102AE47E06
:100E5200019360BCA3FF543F30E509541FFEE493A5
:100E6200A360010ECF54C025E060A840B8E493A36C
:100E7200FAE493A3F8E493A3C8C582C8CAC583CA97
:100E8200F0A3C8C582C8CAC583CADFE9DEE780BE4F
:01102D0000C2
:00000001FF
