:030000000206BE37
:0C06BE00787FE4F6D8FD75814D02070539
:080C4F007F367EC7DEFEDFFCEC
:010C5700227A
:090B830007083B320B01010101DE
:100C0E00E4FEC297EF1392A3EFC313FFD2970EBE6B
:020C1E0008F0DC
:010C200022B1
:100B1800C29300C29700D29300120C0EED75F00A32
:100B280084C454F0FFED75F00A84E5F04FFDFF1220
:050B38000C0EC2932227
:1009E500E4FDC29300C29700D29300120C0EE4FFFF
:1009F500C297EDC313FD30A303430580D2970FBF04
:100A050008EEC29300C293C29700D29700C2A3001A
:100A1500D2A300EDC4540F75F00AA4FFED540F2FB7
:010A2500FFD1
:010A260022AD
:100B3D007C80E4FD7F8E120B18E4FBAF0474082B50
:100B4D00F8E6FD120B180C0C0BBB07EF7D807F8EAA
:030B5D00020B1870
:100B60007C81E4FD7F8E120B18E4FBAF041209E5D3
:100B700074082BF8A6070C0C0BBB07EF7D807F8E4B
:030B8000020B184D
:100AE700D2A1D2A00000000000000000000000001A
:100AF7000000000000000000C2A10000000000008C
:100B07000000000000000000000000000000C2A07C
:010B170022BB
:100BC500C2A1D2A00000000000000000000000004B
:0B0BD5000000000000000000D2A12280
:1008C400300004C2A18002D2A10000000000000098
:1008D40000000000000000000000000000D2A000A2
:1008E4000000000000000000000000000000000004
:1008F400000000C2A0D2A10000000000000000001F
:0C090400000000000000000000000022C5
:0B09A000120A691209ABAF05120A69C8
:1009AB00D2A10000000000000000000000000000C9
:1009BB00000000000000D2A00000000000000000BA
:1009CB0000000000000000000000000030A107C282
:0A09DB00A0120BC5C322C2A0D32254
:100A6900E4FEEF30E704D2A18002C2A10000000039
:100A7900000000000000000000000000000000006D
:100A8900D2A0EF25E0FF00000000000000000000F8
:100A990000000000000000000000C2A00EBE08C255
:010AA900222A
:100AAA00E4FED2A0000000000000000000000000E8
:100ABA000000000000000000EF25E0FF30A1034322
:100ACA000701C2A0000000000000000000000000B2
:0C0ADA0000000000000000000EBE08C676
:010AE60022ED
:100BF900AC07120AE77FA0120A691209ABAF041207
:050C090009A0020BC56B
:020BA400AD079B
:100BA600120AE77FA01209A0120AE77FA1120A69BA
:0E0BB6001209AB120AAAC2001208C4120BC523
:010BC400220E
:0D0C4200C0F9A4B0999282F88090BFFF0025
:100B8C00012F0008460B0B0B0B0B0B0B0B012E0153
:070B9C00012100022200000C
:100BE00075A0807580FF75A0A0E4F58075A0C07524
:090BF00080FF75A0E07580FF2272
:1007B300120C21120C32D2AFD2A9E4FF120BA48F78
:1007C30037120B3DE52F70267D017F0112087575E9
:1007D300460C75470C75480C75490C754A0C754BDE
:1007E3000C754C0C754D0C7F01120A2780D6E52F32
:1007F300B401D1E52EB40106120BE0E4F52E120884
:1008030018120B60E52D7003120534E52DB401B405
:050813001202AF80AFEE
:1002AF00E52C24FE600804700D7531018008E4F51B
:1002BF0031754501F52CE5296401600302037B12BA
:1002CF00095A8E388F39C3E5399537E53894005080
:1002DF00087F01120A27020375AC37E41201977BDE
:1002EF009A7A997999783F12000EC004C005C0061A
:1002FF00C007AC38AD39E4120192A804A905AA06CB
:10030F00AB07D007D006D005D0041201145015C387
:10031F00E5399537E5389400400AE4FF120A27754E
:10032F0032018045AC37E41201977B9A7A9979991B
:10033F00783F12000EC004C005C006C007AC38AD30
:10034F0039E4120192A804A905AA06AB07D007D079
:10035F0006D005D004120114400FE4FF120A27E45F
:10036F00FD7F01120875E4F532E4F529E52C7044A0
:10037F0075460B75470B75480B75490B754A0BAED8
:10038F0038AF39FC7D6412024C8F4BAE38AF397CDD
:10039F00007D6412024C7E007F0ACFCDCFCECCCE33
:1003AF0012024C8F4CAE38AF397C007D0A12024CD2
:1003BF008D4D803FE5316401703975460B75470BE4
:1003CF0075480B75490B754A0B754B0BE53775F077
:1003DF000A84F54CE53775F00A8485F04DE52BB4AA
:1003EF000107E4F52B0537800AE52AB40105E4F58A
:1003FF002A1537E545B40109E4F545AD37FF120B72
:02040F00F922D0
:10095A0012074AD28E309103308FFAC28E308F0A34
:10096A00C28F750F037510E78022AF8DEFAD8BF53F
:10097A000FEDF510AC0FE41201927B967A43798B56
:10098A00783C12000E1201CB8E0F8F10E4F58BF516
:05099A008DAE0FAF104F
:01099F002235
:10074A00D29000000000000000000000000000003D
:10075A00000000000000000000000000000000008F
:10076A00000000000000000000000000000000007F
:10077A00000000000000000000000000000000006F
:10078A00000000000000000000000000000000005F
:10079A00000000000000000000000000000000004F
:0907AA00000000000000C29022D2
:03000B00020628C2
:10062800C0E0C0F0C083C082C0D075D000C000C098
:1006380001C002C003C004C005C006C007120910EB
:10064800C3E52594F4E524940150080525E52570B3
:10065800020524E525B4F40EE524B40109752F013B
:100668007524017525F51204110527E527B4C80678
:10067800752700752901E5326401701F0528E528F2
:10068800B4C818752800E53D7007753D017D0180E7
:1006980005753D00E4FD7F01120875D007D006D02E
:1006A80005D004D003D002D001D000D0D0D082D061
:0606B80083D0F0D0E03217
:1008180020B315120C4F20B30AE52CD394004003E3
:10082800752A0120B34680FB20B215120C4F20B266
:100838000AE52CD394004003752B0120B22E80FBCF
:1008480020B10D120C4F20B102052C20B11E80FBE7
:1008580020B019120C4F20B010E52D7007752D012E
:0D086800F52C8005E4F52DF52C30B0FD22B7
:10091000E5A0541F44E0F5A07580FF53A01FE5A09B
:10092000541F44C0F5A0AF447401A807088002C357
:1009300033D8FCF58053A01FE5A0541F44E0F5A078
:1009400074462544F8E6900C4293F58053A01F05A9
:0A09500044E544B40803E4F5442232
:100C2100438E805389F0758A9A758CA9C28DD28CB6
:010C310022A0
:100875001F7401A807088002C333D8FC5521FE70F8
:1008850020BD011DC2AF04A807088002C333D8FCF0
:10089500FEF521E5A0541F4480F5A0EEF4F5808017
:1008A50018EED394004017ED7014C2AFF521E5A002
:0E08B500541F4480F5A07580FF53A01FD2AFE2
:0108C3002212
:100A2700BF0121E5234522701BF580C2AFE5A05425
:100A37001F44A0F5A075804053A01F7522007523A1
:100A470001D2AF22EF701AE523640145227012F537
:100A570022F523E5A0541F44A0F5A0E4F58053A098
:010A67001F6F
:010A6800226B
:10041100E53A640170350526E52664C860030205E6
:1004210033F526E54164017016F541E50A75F00AD8
:1004310084F546E50A75F00A8485F0470204D9750A
:10044100410175460B75470B0204D9E5356401700E
:100451005B0526E52664C86003020533F526E53B06
:1004610064017029F53BE50A75F00A84F546E50A51
:1004710075F00A8485F04775480AE50975F00A8424
:10048100F549E50975F00A8485F04A805F753B01FD
:10049100E50A75F00A84F546E50A75F00A8485F0E7
:1004A1004775480A75490B754A0B8040E530640170
:1004B10060030205330526E52664C87075F526E557
:1004C1003F6401703CF53FE50A75F00A84F546E5A5
:1004D1000A75F00A8485F04775480AE50975F00A3E
:1004E10084F549E50975F00A8485F04A754B0AE5FA
:1004F1000875F00A84F54CE50875F00A8485F04D1D
:1005010022753F01E50A75F00A84F546E50A75F0A2
:100511000A8485F04775480AE50975F00A84F549AA
:10052100E50975F00A8485F04A754B0A754C0B751F
:030531004D0B224D
:10053400E52C24FE601414601B1460222403702133
:10054400753A01E4F535F5308017E4F53A7535016F
:10055400F530800DE4F53AF5357530018003E4F5A6
:100564002CE52C7039E50A75F00A84F546E50A7520
:10057400F00A8485F04775480AE50975F00A84F5A0
:1005840049E50975F00A8485F04A754B0AE5087552
:10059400F00A84F54CE50875F00A8485F04DE53AD7
:1005A40064017026E52BB4010EE4F52BE50AD3941F
:1005B40016506D050A8069E52A64017066F52AE51E
:1005C4000AD394004002150A8056E535640170266A
:1005D400E52BB4010EE4F52BE509D3943A5002055A
:1005E40009803DE52A6401703AF52AE509D39400AF
:1005F40040021509802AE53064017027E52BB40117
:100604000EE4F52BE508D3943A500205088011E571
:100614002AB4010FE4F52AE508D394004002150832
:04062400120B3D2256
:100C3200538EBF53890FE4F58BF58DC28FC28E227E
:10000E00EC4D6011E8497017ED33EC3304600DE4EC
:10001E00FCFFFEFD22E933E8330470F802023712CA
:10002E00020258046009E4CC2481500628500902CB
:10003E00024128400302023EC0E0EB4A7044B98000
:10004E0006D0E0FB02022DEF4E701CBD8008EBFFC8
:10005E00EAFEE9FD80EBE98DF0A4FEE5F00200F783
:10006E00E9CDF9EAFEEBFFEF89F0A4FCE5F0CE89CD
:10007E00F0A42EFFE435F0CD89F0A42DFEE435F08A
:10008E008067EF4E7005BD80D780C3EF8BF0A4ACB8
:10009E00F0EE8BF0A42CFCE435F0F8EF8AF0A42CF3
:1000AE00E5F038FCE433CB8DF0A42CFCE5F03BF806
:1000BE00EE8AF0A42CFCE5F038F8E433CF89F0A4F6
:1000CE002CFCE5F038CF3400CE89F0A42FFFE5F0FC
:1000DE003EFEE433C98DF0A42EFEE5F039CD8AF054
:1000EE00A42FFFE5F03EFEE43DFD33D0E0FB5007CC
:1000FE000BBB000F020241EC2CFCEF33FFEE33FE84
:06010E00ED33FD020219B1
:1001140074F8CC6480CCC86480C8F58204604FC392
:10012400EB9FF5F0EA9E42F0E99D42F0E89C45F031
:10013400603C501DE5825FFFE582D313CB5BCBF4BB
:100144002B5582FB50280ABA002409B900200880E4
:100154001DE5825BFBE582D313CF5FCFF4C3132F7E
:100164005582FF50090EBE00050DBD00010CC3EB06
:100174009FF5F0EA9E42F0E99D42F0E89C45F0606C
:0901840007CC4820E701B3EC228E
:10018D0075F020800E75F010800575F0087D007EED
:10019D00007F003392D530D5031202A1EC3340100D
:1001AD00EF33FFEE33FEED33FDEC33FCD5F0ED22F6
:0E01BD00E5F0247EA2D513CC92E7CDCEFF2232
:1001CB00EDD2E7CD33EC3392D524814006E4FFFE2C
:1001DB00FDFC22FCE4CFCECDCC24E0501174FF808B
:1001EB00EDC3CC13CCCD13CDCE13CECF13CF047028
:0701FB00F030D5DE0202A185
:10020200E9D2E7C933E833F892D5EDD2E7CD33EC42
:0702120033FC5002B2D522BB
:10021900EC30E7100FBF000C0EBE00080DBD000446
:100229000BEB6014A2D5EB13FCED92E7FD2274FFF2
:10023900FCFDFEFF22E480F8A2D574FF13FC7D804B
:03024900E480EF5F
:1006CA000207B3E493A3F8E493A34003F68001F28C
:1006DA0008DFF48029E493A3F85407240CC8C33331
:1006EA00C4540F4420C8834004F456800146F6DF00
:1006FA00E4800B0102040810204080900B83E47E02
:10070A00019360BCA3FF543F30E509541FFEE493F4
:10071A00A360010ECF54C025E060A840B8E493A3BB
:10072A00FAE493A3F8E493A3C8C582C8CAC583CAE6
:10073A00F0A3C8C582C8CAC583CADFE9DEE780BE9E
:010BA3000051
:10024C00BC000BBE0029EF8DF084FFADF022E4CC96
:10025C00F875F008EF2FFFEE33FEEC33FCEE9DEC5F
:10026C00984005FCEE9DFE0FD5F0E9E4CEFD22EDA5
:10027C00F8F5F0EE8420D21CFEADF075F008EF2FEF
:10028C00FFED33FD4007985006D5F0F222C398FDE0
:05029C000FD5F0EA227D
:0E02A100C3E49FFFE49EFEE49DFDE49CFC226E
:00000001FF
