:03000000020026D5
:0C002600787FE4F6D8FD75810D02006DB6
:1002D400C0F9A4B0999282F880908880C6C0868EB6
:0202E400BF7FDA
:10000E00010800010900010A00010B00010D0001A9
:02001E000CFFD5
:0A024F00F50C908000F07F607EEA5D
:10025900EF1FAC0670011E4C70F6EF1FAC06700163
:050269001E4C70F6229E
:1001F80075F00A849002D493FF1D12026E7FF47E7C
:100208000112021A9002E4E41D93FF12026E7FF4B9
:020218007E0165
:0B021A00EF1FAC0670011E4C70F622B6
:10026E0090E00074FFF0AE057401A806088002C38A
:0D027E0033D8FC90C000F090E000EFF022BB
:10010400E50B75F00A84E5F09002D47D0712021124
:10011400E50B1201F8E50A75F00A84E5F09002D4C3
:10012400120210E50A1201F8E50975F00A84E5F0F7
:100134009002D4120210E50975F00A849002D49357
:0C014400FF1D12026E7FF47E0102021A01
:1002E600758921758C3C758AAFD2A9D2AFD28C2282
:03000B000201C926
:1001C900C0E0C0D0758C3C758AAF0508E508B41449
:1001D90005750800050BE50BB43C0F750B00050A06
:0F01E900E50AB43C05750A000509D0D0D0E03214
:1002BE00758921758DFD758BFDD28E759850E4F57F
:0602CE008ED2ACD2AF227B
:03002300020306CF
:0903060030980585990DC298326A
:0802F60075F00A84E5F04FFFEA
:0802FE008F993099FDC299228D
:1000B200E50D604D54F02450601724107043E50D97
:1000C200F444F0FFE50C440F5FF50C908000F080E3
:1000D2002DE50975F00A84C454F0FFE5091202F611
:1000E200E50A75F00A84C454F0FFE50A1202F6E547
:1000F2000B75F00A84C454F0FFE50B1202F6E4F526
:020102000D22CC
:1001500020B21F12010420B21920B205120104803E
:10016000F8E50CF444BFFFE50C44405FF50C9080CB
:1001700000F020B31F12010420B31920B3051201AF
:100180000480F8E50CF4447FFFE50C44805FF50C37
:05019000908000F02248
:10022500E4FD74FEA805088002C333D8FC12024F12
:100235000DBD09EEE4FD74FEA805088002C333D8A0
:09024500FCF412024F0DBD09ED9D
:01024E00228D
:1001950090E000E4F0FD74FEA805088002C333D8A2
:1001A500FCF490C0001202540DBD09EAE4FD74FE92
:1001B500A805088002C333D8FC90C0001202540D74
:0301C500BD09EB86
:0101C8002214
:1002A500750CFF908000E50CF090A000E4F090C084
:0902B50000F090E00074FFF0225B
:10028B001202A51202251201951202E61202BE12EB
:0A029B0000B212010412015080F5B8
:1000320002028BE493A3F8E493A34003F68001F257
:1000420008DFF48029E493A3F85407240CC8C333CF
:10005200C4540F4420C8834004F456800146F6DF9E
:10006200E4800B010204081020408090000EE47E20
:10007200019360BCA3FF543F30E509541FFEE49393
:10008200A360010ECF54C025E060A840B8E493A35A
:10009200FAE493A3F8E493A3C8C582C8CAC583CA85
:1000A200F0A3C8C582C8CAC583CADFE9DEE780BE3D
:0100200000DF
:00000001FF
