:1005F200082F0A0A0A0A0A0A0A0A08240000000046
:1006020000000000084F000000000000000003216D
:10061200235950032C235950034C00000003580067
:0D0622000000094200002100002C000058DB
:10000E00E53B600302020F753B011208A38F3CE52E
:10001E003A653CFF553CF539E53CF45FF541853CCE
:10002E003A300006E5396002C200E53924FC70035F
:10003E000201431460501470030201DA14600302CB
:10004E00020F30030302020FE557701BF561742196
:10005E002561F8E6FF742C2561F8A6070561E561B8
:10006E00B403EB75570122E5576401600302020FDA
:10007E00054BE54B6403600302020FFB7A00792CFB
:10008E001206D002020A30030302020FE55775F082
:10009E0003A42442F8860308E6FA08E6F9854B82A3
:1000AE007583007401120365E55775F003A42442AD
:1000BE00F8860308E6FA08E6F9854B827583001286
:1000CE000338540FFFBF0A1CE55775F003A42442F2
:1000DE00F8860308E6FA08E6F9854B827583007404
:1000EE0006120365E55775F003A42442F88603084B
:1000FE00E6FA08E6F9854B82758300120338FFE5B0
:10010E004B60047E6080027E24EE6F600302020F5D
:10011E00E54B60047F5980027F23E55775F003A4F9
:10012E002442F8860308E6FA08E6F9854B827583C1
:10013E0000EF0201D730030302020FE55775F003FB
:10014E00A42442F8860308E6FA08E6F9854B827580
:10015E00830074FF120365E55775F003A42442F87B
:10016E00860308E6FA08E6F9854B827583001203CA
:10017E0038540FFFBF0F1CE55775F003A42442F847
:10018E00860308E6FA08E6F9854B8275830074FA51
:10019E00120365E55775F003A42442F8860308E6BA
:1001AE00FA08E6F9854B8275830012033864F970FC
:1001BE0050E55775F003A42442F8860308E6FA08C2
:1001CE00E6F9854B82758300E4020398200332E53D
:1001DE0057700475570222E55764027024054BE5EB
:1001EE004BB4031DE4F56174582561F8E6FF744CB9
:1001FE002561F8A6070561E561B403EBE4F54BF55F
:01020E005798
:01020F0022CC
:1003DA00E538453760030204B77537007538017B85
:1003EA00007A00792112079F3003030204B775349B
:1003FA000B75310BE4FFE55775F003A42442F88628
:10040A000308E6FA08E6F98F82758300120338C4F6
:10041A00540FFEEF75F003A4242FF8A606E55775CE
:10042A00F003A42442F8860308E6FA08E6F98F8264
:10043A00758300120338540FFEEF75F003A42430BD
:10044A00F8A6060FBF03AFE557D39400405F30020A
:10045A00047F0A801EE55775F003A42442F8860338
:10046A0008E6FA08E6F9854B82758300120338C458
:10047A00540FFFE54B75F003A4242FF8A6073002AA
:10048A00047F0A801DE55775F003A42442F8860309
:10049A0008E6FA08E6F9854B827583001203385498
:0D04AA000FFFE54B75F003A42430F8A60702
:0104B7002222
:10076E00E54CB5210CE54DB52207E54EB52302D279
:10077E0000E54E540F2405FFE433FEE523540FB578
:10078E000706E4B50602C200A2008201E433F54F6B
:01079E002238
:1008D000538E7F5389F0758A18758CFCC28DD28C2B
:0508E000D2A9D2AF22F5
:03000B000204B834
:1004B800C0E0C0F0C083C082C0D075D000C000C00A
:1004C80001C002C003C004C005C006C007053BE563
:1004D8003BB40A03753B000538E5387002053764FC
:1004E800C845377004F537F538053DE53DB40803D0
:1004F800753D00742F253DF8E6FD7C007424253DEC
:10050800F8E6FB7A00AF3D120696744F253DF8E6F3
:10051800FD7C00AF3D12065B0540E5407002053FDB
:10052800FFAE3FBE010EBFF40B753F00754000A241
:1005380002B39202053EE53EB46408753E00A2018E
:10054800B39201D007D006D005D004D003D002D092
:0E05580001D000D0D0D082D083D0F0D0E032DD
:10086F007B007A0079211206D01208521208D0129A
:0A087F00000E1203DA12076E80F576
:10062F00015B00015CFF015D00015EFF015F0001E6
:02063F0060FF5A
:10065B00ED4C600F7401A807088002C333D8FC422D
:10066B005B800E7401A807088002C333D8FCF452D8
:10067B005BE55B655C6013E55BF4F580E5A0541FFF
:0A068B004480F5A053A01F855B5CBE
:010695002242
:1007EE00EF6005435D408003535DBFE55D655E6070
:1007FE0011855D80E5A0541F44A0F5A053A01F8570
:02080E005D5E2D
:0108100022C5
:10081100EF6005435F108003535FEFE55F65606044
:1008210011855F80E5A0541F44A0F5A053A01F854A
:020831005F6006
:0108330022A2
:100641000D08C0F9A4B0999282F88090FFBFC60846
:090651001501020408102040808C
:100696007580FFE5A0541F44E0F5A053A01F741514
:1006A6002FF8E6F580E5A0541F44C0F5A053A01F1F
:1006B60074082DF8E6F580EB4A600353807FE5A0C9
:0A06C600541F44E0F5A053A01F22CA
:1008A300E4FF20B3027F0420B2027F0520B1027F60
:0608B3000620B0027F07E1
:0108B900221C
:100852007580FFE5A0541F4480F5A053A01FE4F566
:0D08620080E5A0541F44A0F5A053A01F2264
:1008F900E4FEC297EF1392A3EFC313FFD2970EBE84
:0209090008F0F4
:01090B0022C9
:1008E500C29300C29700D293001208F9AF0512080F
:0408F500F9C293228F
:10073A00E4FDC29300C29700D293001208F9E4FFC5
:10074A00C297EDC313FD30A303430580D2970FBFB1
:10075A0008EEC29300C29700D29700C2A300D2A3A8
:03076A0000AF05D8
:01076D002269
:0606D0008B628A6389645D
:1006D600E4FD7F8E1208E5E4FCEC25E0FFC374849C
:1006E6009FFFAB62AA63A9648C82758300120338EC
:0F06F600FD1208E50CBC03E17D807F8E0208E554
:06079F008B618A62896390
:1007A500E4FCEC25E0FFC374859FFF12073AAB61BB
:1007B500AA62A9638C82758300EF1203980CBC03AF
:0107C500E152
:0107C6002210
:0408BA007F057E0038
:1008BE007C007D0C1203BAEF1FAC0670011E4C704B
:0208CE00F62210
:02083400AB0710
:10083600E4FAC294EB1392941208BAD294EBC3135F
:0C084600FB0ABA08ED7F057E000208BE28
:10088900E4FAC294EBC313FBD2943094034303807C
:090899001208BA0ABA08EBAF0319
:0108A2002233
:1007C700C204D2947F0C7E001208BEC2947F507E72
:1007D700001208BED2947F0A7E001208BEA294922D
:0607E700041208BAA2048E
:0107ED0022E9
:100705001207C77FCC1208347F441208341207C77A
:100715007FCC1208347FBE120834120889A907124B
:100725000889EFAD01FCE41202B5E4FBFA798078A3
:040735004112021358
:01073900229D
:1002100002032DEC5D046005E8590470030203231A
:100220001202EE580460F6EC4860F2EC7004FDFE39
:10023000FF22C860DB2481C85009C39860025006C1
:1002400002032A9850CAF582E9294B4A7005AB820D
:1002500002031975F0007C1A7880C3EF9BEE9AEDCB
:1002600099400DC3EF9BFFEE9AFEED99FDE842F039
:10027000DC23ACF0D0E0FFD0E0FED0E0FDAB82208C
:10028000E7101BEB60BAEC2CFCEF33FFEE33FEED16
:1002900033FD020305E803F830E705C0F075F00010
:1002A000EF2FFFEE33FEED33FD40B830E7C280AAFA
:1002B00075F020800E75F010800575F0087D007EC9
:1002C000007F003392D530D5031203CCEC334010BD
:1002D000EF33FFEE33FEED33FDEC33FCD5F0ED22D2
:0E02E000E5F0247EA2D513CC92E7CDCEFF220E
:1002EE00E9D2E7C933E833F892D5EDD2E7CD33EC56
:0702FE0033FC5002B2D522CF
:10030500EC30E7100FBF000C0EBE00080DBD000459
:100315000BEB6014A2D5EB13FCED92E7FD2274FF05
:10032500FCFDFEFF22E480F8A2D574FF13FC7D805E
:03033500E480EF72
:0300000002056690
:0C056600787FE4F6D8FD7581640205ADD5
:10033800BB010CE58229F582E5833AF583E022507A
:1003480006E92582F8E622BBFE06E92582F8E222C4
:0D035800E58229F582E5833AF583E49322DE
:10036500BB010FF8E58229F582E5833AF583E0289C
:10037500F0225009C58229F8E58226F622BBFE093E
:10038500C58229F8E22582F222F8EA2583F583E978
:0303950093282288
:10039800F8BB010DE58229F582E5833AF583E8F09B
:1003A800225006E92582C8F622BBFE05E92582C847
:0203B800F2222F
:1003BA00EF8DF0A4A8F0CF8CF0A428CE8DF0A42E57
:0203CA00FE2211
:0E03CC00C3E49FFFE49EFEE49DFDE49CFC2242
:1005720002086FE493A3F8E493A34003F68001F228
:1005820008DFF48029E493A3F85407240CC8C3338A
:10059200C4540F4420C8834004F456800146F6DF59
:1005A200E4800B01020408102040809005F2E47EF2
:1005B200019360BCA3FF543F30E509541FFEE4934E
:1005C200A360010ECF54C025E060A840B8E493A315
:1005D200FAE493A3F8E493A3C8C582C8CAC583CA40
:1005E200F0A3C8C582C8CAC583CADFE9DEE780BEF8
:01065A00009F
:00000001FF
