:03000000020A10E1
:0C0A1000787FE4F6D8FD758124020A57B7
:100FBC000102040810204080C0F9A4B0999282F874
:050FCC008090BFFFC68C
:100E8C00010F00010D000110000111000112000101
:100E9C001300010C00010E00010A000117170118C4
:040EAC003B011632BE
:040ED5007F147E0008
:100ED900D3EF9400EE940040147D6E7C00ED1D70FC
:0D0EE900011CED4C70F7EF1F70E61E80E35A
:010EF60022D9
:100F780075A0A0E4F58075A0807580FF75A0C07588
:090F880080FF75A0E07580FF22D6
:1008000020B01E120ED520B01830B0FD8517098516
:10081000180B8516080514E514C394044003E4F589
:100820001420B126120ED520B12030B1FDE514C33D
:10083000940440020514E514C39404500375140491
:10084000E514C394074003E4F51420B27A120ED5E0
:1008500020B27430B2FDE51424FE602114602F1420
:10086000603D1460481460532405705B0509E50978
:10087000C394184003E4F509850917804A050BE580
:100880000BC3943C4003E4F50B850B188039050835
:10089000E508C3943C4003E4F50885081680280564
:1008A0000CE50CC39418401FE4F50C801A050EE506
:1008B0000EC3943C4011E4F50E800C050AE50AC312
:1008C000943C4003E4F50A30B303020954120ED5F8
:1008D00030B303020954E514700375140730B3FDF7
:1008E000E514B40703E4F514E51424FE6020146055
:1008F0002D14603A14604414604E24057056150996
:10090000E509D39400500375091785091722150BC3
:10091000E50BD394005003750B3B850B182215088B
:10092000E508D39400500375083B85081622150C82
:10093000E50CD39400501D750C1722150EE50ED34F
:1009400094005010750E3B22150AE50AD39400500E
:0509500003750A3B22C3
:100D5A00E524B408005050900D68F8282873020D55
:100D6A0080020D84020D88020D8A020D8E020D8802
:100D7A00020D98020DA3E5178016E517801D80085D
:100D8A00E518800CE5188013900FCEE48016E5165E
:100D9A0075F00A84900FC4800BE51675F00A84E595
:100DAA00F0900FC493F5800524E524C3940840030A
:030DBA00E4F52439
:010DBD002213
:100A9C00E524B408005062900AAAF8282873020AC8
:100AAC00C2020ACA020ADC020ADE020AE2020ADCFA
:100ABC00020AEC020AF7E50975F00A848008E509D8
:100ACC0075F00A84E5F0900FC493450DF5808029EC
:100ADC008008E518800CE5188013900FCEE4801682
:100AEC00E51675F00A84900FC4800BE51675F00AB4
:100AFC0084E5F0900FC493F5800524E524C3940895
:050B0C004003E4F524A4
:010B110022C1
:100B1200E524B408005062900B20F8282873020BD9
:100B220038020B3C020B40020B42020B4A020B4002
:100B3200020B62020B6DE5178028E517802F801AE1
:100B4200E50B75F00A848008E50B75F00A84E5F080
:100B5200900FC493450DF580801F900FCEE4801650
:100B6200E51675F00A84900FC4800BE51675F00A3D
:100B720084E5F0900FC493F5800524E524C394081E
:050B82004003E4F5242E
:010B8700224B
:100C7400E524B40800505F900C82F8282873020C15
:100C84009A020C9E020CA2020CA4020CAC020CA24E
:100C9400020CC2020CCAE5178008E517800C801507
:100CA400E51875F00A848008E51875F00A84E5F003
:100CB400900FC48004900FCEE493F5808018E5086B
:100CC40075F00A848008E50875F00A84E5F0900F51
:100CD400C493450DF5800524E524C394084003E43A
:020CE400F524F5
:010CE60022EB
:100B8800E524B408005062900B96F8282873020BED
:100B9800AE020BB6020BC8020BCA020BCE020BC880
:100BA800020BD8020BE3E50C75F00A848008E50C0B
:100BB80075F00A84E5F0900FC493450DF5808029FF
:100BC8008008E50E800CE50E8013900FCEE48016A9
:100BD800E50A75F00A84900FC4800BE50A75F00ADF
:100BE80084E5F0900FC493F5800524E524C39408A8
:050BF8004003E4F524B8
:010BFD0022D5
:100BFE00E524B408005062900C0CF8282873020CFF
:100C0E0024020C28020C2C020C2E020C36020C2C88
:100C1E00020C4E020C59E50C8028E50C802F801A30
:100C2E00E50E75F00A848008E50E75F00A84E5F08D
:100C3E00900FC493450DF580801F900FCEE4801663
:100C4E00E50A75F00A84900FC4800BE50A75F00A68
:100C5E0084E5F0900FC493F5800524E524C3940831
:050C6E004003E4F52441
:010C7300225E
:100CE700E524B40800505F900CF5F8282873020D2E
:100CF7000D020D11020D15020D17020D1F020D1524
:100D0700020D35020D3DE50C8008E50C800C8015C1
:100D1700E50E75F00A848008E50E75F00A84E5F0A3
:100D2700900FC48004900FCEE493F5808018E50AF5
:100D370075F00A848008E50A75F00A84E5F0900FDB
:100D4700C493450DF5800524E524C394084003E4C6
:020D5700F52481
:010D59002277
:100DBE00E524B408005042900DCCF8282873020D9B
:100DCE00E6020DE6020DE6020DE6020DE6020DEB61
:100DDE00020DF3020E008000900FCF8018E51575FE
:100DEE00F00A848008E51575F00A84E5F0900FC4CA
:100DFE008004900FD0E493F5800524E524C3940875
:050E0E004003E4F5249F
:010E130022BC
:100E1400E514B408005037900E22F8282873020E07
:100E24003A020E3D020E40020E43020E46020E49E5
:100E3400020E4C020E4F020D5A020A9C020B1202C1
:0F0E44000C74020B88020BFE020CE7120DBE228B
:100EB10075A0C0E520900FBC93F580E4F5A075A066
:100EC100E0120E14E4F5A00520E520C394084003C8
:040ED100E4F5202202
:100FA700438E805389F0758A9A758CA9C28DD28C2D
:050FB700D2AFD2A92217
:0C0FD10053A01F75A0808F8053A01F222A
:100EF700120F78120FA7120E538F15120800E5175D
:100F0700B50CF3E518B50EEEE516B50AE9751D0142
:020F170080E474
:03000B0002095592
:10095500C0E0C0F0C083C082C0D075D000C000C068
:1009650007120EB1051AE51A70020519051CE51CDA
:100975007002051BE51DB40126C3E51C9464E51B47
:1009850094004021751B00751C00E50F7007750F5D
:10099500017FFF8005750F007FFE120FD180067560
:1009A500A0807580FFC3E51A94F4E5199401404CC5
:1009B500751900751A00E51DB40108051FE51F70BE
:1009C50002051ED3E51F9405E51E94004009751E1A
:1009D50000751F00751D000516630DFFE516C39410
:1009E5003C40197516000518E518943C400E75181D
:1009F500000517E51794184003751700D007D000B8
:0B0A0500D0D0D082D083D0F0D0E032FF
:100F9100EF1FAA0670011E4A600BE4FDEDC3940821
:050FA10050EE0D80F789
:010FA6002228
:020F1900A90726
:100F1B00E4FBC294E91392947F057E00120F91D2E9
:100F2B0094E9C313F90BBB08E97F057E00020F910F
:100F5A00E4FBC294ECC313FCD294309403430480A0
:0D0F6A007F057E00120F910BBB08E7AF045E
:010F77002257
:100F3B007CFFD294C2947F507E00120F91D29430DA
:0F0F4B009406AF041CEF70F77F147E00020F9125
:100E5300E4F521FFF522120F3B7FCC120F197F44DB
:100E6300120F19120F3B7FCC120F197FBE120F19ED
:100E7300120F5AA907120F5AE9540FF523E9C45464
:080E83000FF9EFC454F049FF20
:010E8B002244
:100A1C00020EF7E493A3F8E493A34003F68001F2EB
:100A2C0008DFF48029E493A3F85407240CC8C333DB
:100A3C00C4540F4420C8834004F456800146F6DFAA
:100A4C00E4800B0102040810204080900E8CE47EA0
:100A5C00019360BCA3FF543F30E509541FFEE4939F
:100A6C00A360010ECF54C025E060A840B8E493A366
:100A7C00FAE493A3F8E493A3C8C582C8CAC583CA91
:100A8C00F0A3C8C582C8CAC583CADFE9DEE780BE49
:010EB0000041
:00000001FF
