:020000040800F2
:10000000280C00205D020008EF1D0008E71D000815
:10001000EB1D0008A5060008D12200080000000022
:10002000000000000000000000000000F31D0008B8
:10003000A906000800000000F11D0008F51D0008D9
:1000400077020008770200087702000877020008AC
:10005000770200087702000877020008770200089C
:10006000770200087702000877020008770200088C
:10007000770200087702000877020008770200087C
:10008000770200087702000877020008770200086C
:10009000770200087702000877020008770200085C
:1000A000770200087702000877020008770200084C
:1000B000770200087702000877020008770200083C
:1000C000770200087702000877020008770200082C
:1000D00077020008812200087702000877020008F2
:1000E000770200087702000877020008770200080C
:1000F00077020008770200087702000877020008FC
:1001000077020008770200087702000877020008EB
:1001100077020008770200087702000877020008DB
:1001200077020008770200087702000877020008CB
:1001300077020008770200087702000877020008BB
:1001400077020008770200087702000877020008AB
:10015000770200087702000877020008770200089B
:10016000770200087702000877020008770200088B
:1001700077020008770200087702000800000000FC
:10018000770200087702000877020008770200086B
:10019000770200087702000877020008770200085B
:1001A00077020008770200087702000800F002F8E2
:1001B00000F044F80AA090E8000C82448344AAF1BD
:1001C0000107DA4501D100F039F8AFF2090EBAE8BB
:1001D0000F0013F0010F18BFFB1A43F0010318477B
:1001E000508A0000708A0000103A24BF78C878C195
:1001F000FAD8520724BF30C830C144BF04680C602D
:10020000704700000023002400250026103A28BF74
:1002100078C1FBD8520728BF30C148BF0B60704778
:10022000642900F0F380782900F02C8100207047C9
:100230001FB505F017FD1FBD10B510BD00F000FA89
:100240001146FFF7F5FF05F0FDF900F01EFA03B4C3
:10025000FFF7F2FF03BC02F059F80000094880479D
:1002600009480047FEE7FEE7FEE7FEE7FEE7FEE798
:10027000FEE7FEE7FEE7FEE704480549054A064BB0
:1002800070470000FD1D0008AD0100082802002095
:10029000280C00202804002028040020704753EA7E
:1002A000020C00F069802DE9F04B4FF00006002BA6
:1002B0001FBFB3FA83F503FA05F424FA05F65E408E
:1002C00012BF1643B2FA82F502FA05F4C5F1200511
:1002D0001EBF22FA05FC44EA0C04203556EA044C01
:1002E0004FEA144418BF641C4FF000084FF0000997
:1002F000904271EB030C39D3002919BFB1FA81F791
:1003000001FA07F6B0FA80F700FA07F6C7F12007FE
:100310001EBF20FA07FC46EA0C062037B6FBF4FCA9
:10032000A7EB0507103F07F01F0BCBF120060CFAD7
:100330000BFB2CFA06F644BFB3460026202FA4BFC1
:100340005E464FF0000B5BEA060C08BF4FF0010B56
:1003500019EB0B09ABFB027C48EB0608C01B06FB44
:1003600002CC0BFB03CC71EB0C01C1E70B46024640
:1003700041464846BDE8F08B13B54FF000004FF002
:100380000001AFF30080BDE81C4070470FB4044982
:1003900010B503AA029800F025F910BC5DF814FB13
:1003A000040000202DE9F0410E46044600202062A2
:1003B0002046E168884730B3252805D0D4E90121DB
:1003C0009047206A401CF2E7E168204600278847F2
:1003D000050018D0A5F14100192802D820354FF4A6
:1003E00000673246294620462760FFF719FF40B1D3
:1003F000012804D0F61D26F007060836D8E7361D7A
:10040000D6E72846DAE7206ABDE8F0812DE9F04119
:100410000646002410687529314616A510D0AFF3A2
:100420000080002802DA404213A507E031688A07FD
:1004300001D512A502E0490704D511A5012401E068
:10044000AFF3008000210A2206F1240709E0B0FB87
:10045000F2FCB0FBF2F302FB1C003030785418467B
:10046000491C0028F3D123462A463046BDE8F04116
:1004700000F05FB8000000002D0000002B0000001D
:100480002000000070B504460D4621461068AFF309
:1004900000802188090502D50F4A7A4402E00E4AFD
:1004A0007A440E32002104F1240305E000F00F0627
:1004B0000009965D5E54491C0028F7D1207800237E
:1004C000000704D5702D02D009B102231132204655
:1004D000BDE8704000F02DB8688700004FF00002C2
:1004E00000B5134694469646203922BFA0E80C502A
:1004F000A0E80C50B1F12001BFF4F7AF090728BF05
:10050000A0E80C5048BF0CC05DF804EB890028BF80
:1005100040F8042B08BF704748BF20F8022B11F0A9
:10052000804F18BF00F8012B704770477047704725
:1005300070472DE9F0470D4699469246044600F172
:1005400024080168880604D5E06921F010012160C3
:1005500000E00120A84201DD471B00E00027A1695F
:100560007A1902EB0900081AA0612078C00602D4AB
:100570002046AFF30080002608E0D4E901211AF8F4
:1005800006009047206A401C761C20624E45F4DB32
:100590002078C0060AD52046AFF3008006E0D4E9F3
:1005A000012130209047206A401C2062381EA7F1AC
:1005B0000107F4DC07E0D4E9012118F805009047B1
:1005C000206A401C2062281EA5F10105F3DC2046AC
:1005D000AFF300802078000602D50220BDE8F08746
:1005E0000120FBE7074B70B50D467B4400F011F886
:1005F0000446284600F020F810B14FF0FF3070BDDF
:10060000204670BDB31D000001694A1C02610878D4
:10061000704700B58FB0CDE9013100210591054942
:100620007944CDE9031011466846FFF7BBFE0FB0D1
:1006300000BD0000E5FFFFFF007B00F08000704779
:10064000754600F02BF8AE4605006946534620F08B
:100650000700854618B020B5FFF70EFEBDE8204024
:100660004FF000064FF000074FF000084FF0000B6E
:1006700021F00701AC46ACE8C009ACE8C009ACE821
:10068000C009ACE8C0098D46704710B50446AFF309
:1006900000802046BDE81040FFF7D9BD00487047F4
:1006A000C801002000BFFEE77047000070B5044697
:1006B000B3F5804F13D1D1E9000540EA05108D68EC
:1006C00040EA05208D6928438D8940EA054054F8A9
:1006D0002250064E3540284344F8220003E06FF0D4
:1006E000704044F82200002070BD00000000F0CFF0
:1006F00070B50246086852F8200020F001000E682C
:1007000042F826008868082801D1402500E000252D
:10071000486828438E683043CE6830430E693043C2
:100720004E693043CE6930430E6A30434E6A3043DF
:100730008E6A3043CE6A30430E6B40EA0603886906
:100740000343486B0343C86B03430E4C44F480647B
:1007500044F4801444F4E024086852F82000A043D4
:1007600018430E6842F82600486BB0F5801F07D189
:10077000086828B1106820F480104E6B3043106078
:10078000002070BD7FFB080030B50346D1E90005AD
:1007900040EA05108D6840EA05208D8940EA05454C
:1007A000088A401E45EA0055087D801E45EA006023
:1007B0008D692843551C53F8255005F040452843C2
:1007C000551C43F82500186800F48010B0F5801F10
:1007D0000BD1586820F47004088A401E44EA005483
:1007E000586820F4700020435860002030BD024655
:1007F0000868B0B9D1E901031843CB6818430B6905
:1008000018434B6918438B691843CB6918430B6A2B
:1008100018434B6A184313686FF30E0318431060B4
:1008200019E0D1E9070318434B6A1843136823F40E
:10083000F84318431060D1E901031843CB6818430B
:100840000B6918434B6918438B69184353686FF35E
:100850000E0318435060002070470246506943F66B
:10086000FE73984340EA41005061002070472DE933
:10087000F04105460C4616460027D4E9000108431E
:10088000A168491E40EA4110E16840EA4120296917
:100890006FF315010843286100F0E8F907460AE004
:1008A000701C40B126B100F0E1F9C01BB04202D982
:1008B0000320BDE8F081A86900F020002028EFD0D7
:1008C0000020F6E730B50346FAB90868401E4C68C8
:1008D000641E40EA04148868401E44EA0024C86884
:1008E000401E44EA0034088A401E44EA0044888AD4
:1008F000401E44EA0054087E401E44EA00609C68A2
:1009000004F070442043986022E0C868401E04034D
:10091000888A401E44EA00509C680E4D2C402043BB
:1009200098600868401E4C68641E40EA0414886899
:10093000401E44EA0024088A401E44EA0044087E1F
:10094000401E44EA0060DC6804F070442043D86034
:10095000002030BDFF0F0FFF70B50446A56D00F0FD
:1009600085F9064694F83500022808D08020606595
:1009700000BF002084F8340000BF012070BD206853
:10098000006820F01600216808602068406920F0A7
:10099000800021684861206C08B9A06C28B12068EB
:1009A000006820F00800216808602068006820F0D6
:1009B00001002168086010E000F058F9801B05284C
:1009C0000BD920206065032084F8350000BF00208B
:1009D00084F8340000BF0320D0E72068006800F0EE
:1009E00001000028E8D194F85C103F208840A860FE
:1009F000012084F8350000BF002084F8340000BFD7
:100A000000BFBBE7014691F83500022803D08020E3
:100A1000486501207047052081F8350008680068A6
:100A200020F001000A6810600020F3E7F8B50246E4
:100A30000B460025002400200021E0E0012606FAF4
:100A400001F51E6806EA0504AC4274D11E7906F071
:100A50000306012E04D01E7906F00306022E13D1E0
:100A600090684F000326BE40B0434F00DE68BE4092
:100A700030439060506801268E40B0431E79C6F323
:100A800000168E40304350601E7906F00306032E98
:100A900009D0D0684F000326BE40B0434F009E6887
:100AA000BE403043D0601E7906F00306022E13D1FB
:100AB000CF0802F1200656F827004E07F70E0F2642
:100AC000BE40B0434F07FF0E1E69BE403043CF0803
:100AD00002F1200646F8270010684F000326BE40AA
:100AE000B0431E7906F003064F00BE40304310604D
:100AF0005E6806F44036002E1DD000BF002600962A
:100B0000414E366846F480463F4F3E603E4636686A
:100B100006F48046009600BF00BF3C4E8F0856F892
:100B200027008E07370F0F26BE40B043384EB24223
:100B300002D100262EE061E0364EB24201D10126FC
:100B400028E0354EB24201D1022623E0334EB242B4
:100B500001D103261EE0324EB24201D1042619E033
:100B6000304EB24201D1052614E02F4EB24201D1DF
:100B700006260FE02D4EB24201D107260AE02C4E88
:100B8000B24201D1082605E02A4EB24201D109261F
:100B900000E00A268F073F0FBE4030431B4E8F08F0
:100BA00046F82700244E3068A0435E6806F480169D
:100BB00006B12043204E3060361D3068A0435E6889
:100BC00006F4001606B120431B4E361D30601A4E47
:100BD000361F3068A0435E6806F4003606B1204335
:100BE000154E361F3060361F3068A0435E6806F42D
:100BF000803606B12043104E083E3060491C102953
:100C0000FFF41CAFF8BD0000443802400838014032
:100C1000000002400004024000080240000C0240B4
:100C2000001002400014024000180240001C024064
:100C30000020024000240240083C014002461369A3
:100C40000B400BB1012000E00020704710B5426955
:100C500021EA020302EA010443EA0443836110BD6E
:100C60000AB1816101E00B048361704701480068AB
:100C7000704700001000002003480068034909780D
:100C80000844014908607047100000201800002047
:100C900010B50D48006840F400700B490860084624
:100CA000006840F4806008600846006840F4807086
:100CB0000860052000F080F80F2000F007F800F031
:100CC0002BF8002010BD0000003C024070B5044627
:100CD0000E4800784FF47A71B1FBF0F00C490968C6
:100CE000B1FBF0F5284600F0E1FD08B1012070BD30
:100CF000102C07D200222146501E00F01EF8054895
:100D0000046001E00120F2E70020F0E71800002075
:100D1000000000201400002070470146084600280B
:100D200009DB00F01F0301229A4043099B0003F1F5
:100D3000E023C3F8002100BF70472DE9F05F804633
:100D40000D461646002701F0C5FA074639462A46E1
:100D5000334601F00700C0F1070ABAF1040F02D9C7
:100D60004FF0040A01E0C0F1070AD14600F1040A7D
:100D7000BAF1070F02D24FF0000A01E0A0F1030A16
:100D8000D4464FF0010A0AFA09FAAAF1010A0AEA5E
:100D9000020A0AFA0CFA4FF0010B0BFA0CFBABF14A
:100DA000010B0BEA030B4AEA0B042146404601F013
:100DB00099FABDE8F09F000000BF00F00702064B63
:100DC00019684FF6FF031940044B0B4343EA022115
:100DD000014B196000BF70470CED00E00000FA0500
:100DE00038B5002400BF002000901D48006840F086
:100DF00080501B4908600846006800F08050009051
:100E000000BF00BF012017490864FFF72FFF044609
:100E100007E0FFF72BFF001BB0F57A7F01D9032015
:100E200038BD1148406800F48030B0F5803FF0D103
:100E300001200C494864FFF719FF044607E0FFF75B
:100E400015FF001BB0F57A7F01D90320E8E70648BB
:100E5000406800F40030B0F5003FF0D10020DFE73B
:100E60004038024000000E420070004070B5044659
:100E70000D460CB9012070BD5848006800F00F0005
:100E8000A84209D255490D700846006800F00F00CD
:100E9000A84201D00120EEE7207800F002000228ED
:100EA0001DD1207800F00400042805D14C480068CA
:100EB00040F4E0504A490860207800F00800082813
:100EC00005D14748006840F46040454908604448FF
:100ED000006820F0F000A1680843414908602078CC
:100EE00000F00100A8B36068012807D13C48083829
:100EF0000068C0F34040B8B90120BCE76068022830
:100F000002D06068032807D1354808380068C0F36C
:100F1000406048B90120AEE7314808380068C0F3A6
:100F2000400008B90120A6E72D48006820F0030022
:100F3000616808432A490860FFF798FE064609E001
:100F4000FFF794FE801B41F28831884202D90320CA
:100F500091E707E02248006800F00C006168B0EB00
:100F6000810FEDD11D48006800F00F00A84209D99B
:100F70001A490D700846006800F00F00A84201D021
:100F8000012078E7207800F00400042807D11448F5
:100F9000006820F4E050E1680843114908602078B7
:100FA00000F00800082808D10D48006820F46040CF
:100FB000216940EAC1000A49086000F03FF8084989
:100FC0000968C1F30311074A515CC840064908602B
:100FD00006480068FFF77AFE00204CE7003C02401C
:100FE000083802406E5C0008000000201400002059
:100FF00001480068704700000000002000B5FFF7BE
:10100000F7FF04490968C1F38221034A515CC840D3
:1010100000BD0000083802407E5C000800B5FFF704
:10102000E7FF04490968C1F34231034A515CC840F3
:1010300000BD0000083802407E5C00082DE9F04742
:10104000002400250026A1462548006800F00C0079
:1010500020B1042805D008283AD105E0DFF88490B3
:1010600039E0DFF8849036E01D48001F006800F08A
:101070003F041B48001F006800F4800078B11A4844
:101080001749091F0968C1F38811A0FB01700146C7
:10109000224600233846FFF702F905460EE01148C4
:1010A0000F49091F0968C1F38811A0FB01700146AF
:1010B000224600233846FFF7F2F805460848001F8D
:1010C0000068C0F30140401C4600B5FBF6F902E0A1
:1010D000DFF8109000BF00BF4846BDE8F087000071
:1010E000083802400024F40040787D01F8B5044639
:1010F0000CB90120F8BD207800F00100002874D060
:10110000F948006800F00C0004280DD0F64800688B
:1011100000F00C00082813D1F348001F006800F409
:101120008000B0F5800F0BD1EF4808380068C0F39D
:101130004040002859D06068002856D10120D9E7E6
:1011400000BF6068B0F5803F08D1E7480838006804
:1011500040F48030E449083908601EE06068B0F56A
:10116000A02F0DD1E0480838006840F48020DE4907
:10117000083908600846006840F4803008600CE0D8
:10118000D9480838006820F48030D7490839086009
:101190000846006820F48020086000BF606890B1B5
:1011A000FFF764FD054606E0FFF760FD401B64287D
:1011B00001D903209EE7CC4808380068C0F34040BE
:1011C0000028F1D011E0FFF751FD054606E0FFF7DA
:1011D0004DFD401B642801D903208BE7C248083825
:1011E0000068C0F340400028F1D1207800F00200F0
:1011F00002285FD1BC48006800F00C0058B1BA4822
:10120000006800F00C0008281CD1B748001F0068D7
:1012100000F48000B0B9B44808380068C0F340005A
:1012200020B1E068012801D0012063E7AE4808380A
:10123000006820F0F800216940EAC100AA49083995
:10124000086037E0E06800B30120A8490860FFF7B4
:101250000DFD054606E0FFF709FD401B022801D9F8
:10126000032047E7A04808380068C0F34000002882
:10127000F1D09D480838006820F0F800216940EA64
:10128000C10099490839086014E0002097490860B6
:10129000FFF7ECFC054606E0FFF7E8FC401B0228E0
:1012A00001D9032026E7904808380068C0F34000C1
:1012B0000028F1D1207800F0080008282CD16069BE
:1012C000A8B101208A490860FFF7D0FC054606E076
:1012D000FFF7CCFC401B022801D903200AE7824813
:1012E0006C300068C0F340000028F1D014E000200A
:1012F0007F490860FFF7BAFC054606E0FFF7B6FC39
:10130000401B022801D90320F4E677486C300068BE
:10131000C0F340000028F1D1207800F00400042838
:1013200070D1002770483830006800F0805090B9C4
:1013300000BF002000906C483830006840F08050BA
:101340006949383108600846006800F08050009014
:1013500000BF00BF01276748006800F48070B0B983
:101360006448006840F4807062490860FFF77EFCC2
:10137000054606E0FFF77AFC401B022801D903204E
:10138000B8E65C48006800F480700028F2D000BF26
:10139000A068012808D154486830006840F0010076
:1013A0005149683108601DE0A06805280DD14E48FC
:1013B0006830006840F004004B4968310860084616
:1013C000006840F0010008600CE0474868300068A1
:1013D00020F001004449683108600846006820F0A8
:1013E0000400086000BFA068A8B1FFF73FFC0546F5
:1013F00009E0FFF73BFC401B41F28831884202D9EB
:10140000032077E626E0384868300068C0F34000E3
:101410000028EED013E0FFF729FC054608E0FFF7AF
:1014200025FC401B41F28831884201D9032061E646
:101430002D4868300068C0F340000028EFD1012F2C
:1014400007D129483830006820F0805026493831CB
:10145000086000BFA069002845D02348006800F05C
:101460000C0008285DD0A069022845D100201F4942
:101470000866FFF7FBFB054606E0FFF7F7FB401B9E
:10148000022801D9032035E6174808380068C0F360
:1014900040600028F1D1D4E907010843616A40EABD
:1014A00081110122A06AC2EB500041EA00412C20C8
:1014B000005D41EA00600C49091F086001200B49EA
:1014C0000866FFF7D3FB054606E0FFF7CFFB401B9E
:1014D000022801D903200DE6034808380068C0F34C
:1014E00040600028F1D049E008380240000047423F
:1014F000800E474200700040002021490866FFF737
:10150000B5FB054606E0FFF7B1FB401B022801D9F9
:101510000320EFE51B480068C0F340600028F2D1CB
:101520002CE0A069012800D1E4E51648001D0668FA
:10153000A069012820D006F48001E06981421BD116
:1015400006F03F01206A814216D147F6C070304054
:10155000616AB0EB811F0FD106F440310122A06A0D
:10156000C2EB5000B1EB004F06D106F070612C20A9
:10157000005DB1EB006F01D00120BBE50020B9E5B3
:10158000000047420038024070B504460D460CB9D1
:10159000012070BD94F82C0028B9002084F82D009B
:1015A000204600F011F8022084F82C00211D20684C
:1015B000FFF71DF92946D4E90002FFF783F901205E
:1015C00084F82C000020E4E710B586B0044600BF84
:1015D000002000904348006840F001004149086045
:1015E0000846006800F00100009000BF00BF00BF87
:1015F000002000903B480838006840F0040039495A
:10160000083908600846006800F00400009000BF38
:1016100000BF00BF002000900846006840F00800AE
:1016200008600846006800F00800009000BF00BF96
:1016300000BF002000900846006840F010000860DD
:101640000846006800F01000009000BF00BF00BF17
:10165000002000900846006840F02000086008461E
:10166000006800F02000009000BF00BF00BF002015
:1016700000900846006840F0400008600846006896
:1016800000F04000009000BF00BF0D20019002203C
:10169000029001200390032004900C20059001A9E2
:1016A0001148FFF7C3F94CF20370019001A90F48EC
:1016B000FFF7BCF94FF68370019001A90C48FFF7C2
:1016C000B5F94FF63F00019001A90A48FFF7AEF9BE
:1016D00048F23710019001A90748FFF7A7F906B0B3
:1016E00010BD00003838024000080240000C0240E3
:1016F00000100240001402400018024070B5044679
:101700000D4694F82C00022800D170BD94F82C00EE
:1017100001280AD1022084F82C0029462068FFF70E
:101720009CF8012084F82C0001E00120EDE7002066
:10173000EBE72DE9F04104460E46174694F82C508D
:10174000022D02D10220BDE8F081012D01D0052D2E
:1017500012D1022084F82C003A4631462068FFF767
:1017600086F83068022803D1052084F82C0005E0B3
:10177000012084F82C0001E00120E4E70020E2E7EA
:1017800070B504460E4615460CB9012070BD94F89C
:10179000490028B9002084F84800204600F020F8CD
:1017A00004F108012068FEF7A3FF3146A268206813
:1017B000FEF7EAFF2946236BD4E90102FEF776FF24
:1017C000A168206850F8210040F00100A26821685B
:1017D00041F82200012084F849000020D6E70000EB
:1017E00010B586B0044600BF002000902248006873
:1017F00040F00100204908600846006800F0010040
:10180000009000BF00BF00BF002000901A480838B9
:10181000006840F008001849083908600846006868
:1018200000F00800009000BF00BF00BF0020009043
:101830000846006840F0100008600846006800F0A4
:101840001000009000BF00BF4EF2B3700190022064
:10185000029001200390022004900C20059001A921
:101860000648FFF7E3F84FF68070019001A904489D
:10187000FFF7DCF806B010BD38380240000C02401B
:1018800000100240042808D14FF0E021096941F01E
:1018900004014FF0E022116107E04FF0E0210969F7
:1018A00021F004014FF0E0221161704770B5044649
:1018B0002546681EB0F1807F01D301200FE0681E2D
:1018C0004FF0E02148610F214FF0FF3000F00AFD9A
:1018D00000204FF0E021886107200861002070BDE2
:1018E0007047704701460022002391F83D2091F88F
:1018F0003E3042EA030070472DE9F84F0446206865
:1019000005682068C668206847694FF00009CA4624
:1019100005F00F09B9F1000F0AD105F0200038B128
:1019200006F0200020B1204600F0C2FABDE8F88F92
:10193000B9F1000F7CD007F0010018B906F49070DF
:10194000002875D005F0010030B106F4807018B1A0
:10195000206C40F00100206405F0040030B107F075
:10196000010018B1206C40F00200206405F0020074
:1019700030B107F0010018B1206C40F00400206481
:1019800005F0080048B106F0200010B907F001008A
:1019900018B1206C40F008002064206C002846D06C
:1019A00005F0200028B106F0200010B1204600F01C
:1019B0007FFA20684069C0F3801A206C00F00800AC
:1019C00010B9BAF1000F2DD0204600F02BFA206894
:1019D000406900F04000402820D100BF00BF2168CE
:1019E000143151E8001F21F040002168143141E812
:1019F0000002002AF3D100BFA06B50B17548A16B63
:101A00000865A06BFEF7FEFF88B1A06B016D8847EB
:101A10000DE02046FFF765FF09E009E02046FFF7EB
:101A200060FF04E02046FFF75CFF002020647DE7B4
:101A3000206B012876D105F01000002872D006F046
:101A400010000028FAD000BF002000902068006835
:101A5000009020684068009000BF00BF2068406987
:101A600000F0400040285ED1A06B006840681FFA7B
:101A700080F8B8F1000F54D0A08D404551DDA4F896
:101A80002E80A06BC069B0F5807F43D000BF00BF3F
:101A900021680C3151E8001F21F4807021680C315D
:101AA00041E80002002AF3D100BF00BF00BF216857
:101AB000143151E8001F21F001002168143141E880
:101AC0000002002AF3D100BF00BF00BF216814311B
:101AD00051E8001F21F040002168143141E8000264
:101AE000002AF3D100BF202084F83E0000202063AC
:101AF00000BF00BF21680C3151E8001F21F0100029
:101B000021680C3141E80002002AF3D100BFA06B2C
:101B1000FEF722FFA08DE28D801A81B22046FFF7EA
:101B2000DFFE03E740E0A08DE18D401A1FFA80F848
:101B3000E08DC0B3B8F1000F35D000BF00BF216801
:101B40000C3151E8001F21F4907021680C3141E8FC
:101B50000002002AF3D100BF00BF00BF216814318A
:101B600051E8001F21F001002168143141E8000212
:101B7000002AF3D100BF202084F83E00002020631B
:101B800000BF00BF21680C3151E8001F21F0100098
:101B900021680C3141E80002002AF3D100BF414620
:101BA0002046FFF79DFEC1E605F0800030B106F04B
:101BB000800018B1204600F032FBB7E605F0400087
:101BC00030B106F0400018B1204600F061F9ADE6F2
:101BD00000BFABE6111E000810B504460CB9012089
:101BE00010BDA06900B100E000BF94F83D0028B925
:101BF000002084F83C00204600F028F8242084F8D7
:101C00003D002068C06820F400502168C86020466C
:101C100000F0CAF92068006920F49040216808614A
:101C20002068406920F02A00216848612068C06867
:101C300040F400502168C86000202064202084F80F
:101C40003D0084F83E000020CAE7000010B586B0D1
:101C500004462E492068884255D100BF00BF0020AD
:101C600000902B48006840F01000294908600846A1
:101C7000006800F01000009000BF00BF00BF00BF70
:101C800000BF0020009022481438006840F0010096
:101C90001F49143908600846006800F001000090F0
:101CA00000BF00BF00BF00BF00BF0020009008467B
:101CB000006840F0010008600846006800F001007C
:101CC000009000BF00BF00BF4815019002200290A5
:101CD00001200390022004900720059001A90D48DF
:101CE000FEF7A4FE4FF4806001900720059001A943
:101CF0000848FEF79BFE2520FFF70FF80322114648
:101D00002520FFF71AF806B010BD000000100140B2
:101D1000443802400000024070B504460D461646A5
:101D200094F83E00202816D105B10EB9012070BDEF
:101D300000BF94F83C00012801D10220F7E7012000
:101D400084F83C0000BF002020633246294620462C
:101D500000F040FAEBE70220E9E700001D4A0168C5
:101D6000914236D11C49098801F4004189BB1A49C6
:101D7000098801F4804171B1184909780A2903D012
:101D80000021154A118024E01349098841F40041DB
:101D9000114A11801DE0114909780D2906D10E491B
:101DA000098841F480410C4A118012E00B490978FE
:101DB000094A1288C2F30D02094B99540649098851
:101DC000491C054A118011460988C72901DD0021F7
:101DD0001180704700100140080000200A00002018
:101DE00028000020704700BFFEE700BFFEE77047F5
:101DF0007047704710B5FEF73FFF10BD03480068FD
:101E000040F47000014908607047000088ED00E070
:101E100070B50546AC6B0020E085E0842046FFF7F6
:101E200060FD70BD00BF00BF02680C3252E8002F99
:101E300022F4907102680C3242E80013002BF3D1B7
:101E400000BF00BF00BF0268143252E8002F22F02A
:101E500001010268143242E80013002BF3D100BFE5
:101E6000016B01290ED100BF00BF02680C3252E89D
:101E7000002F22F0100102680C3242E80013002B00
:101E8000F3D100BF202180F83E100021016370478C
:101E900010B504462068C06820F040002168C86082
:101EA000202084F83D002046FFF79CFF002010BD55
:101EB000F8B5044694F83E00222873D1A068B0F526
:101EC000805F0CD1206950B90025A66A206840685F
:101ED000C0F308003080A06A801CA06215E0A56AEB
:101EE0000026A068B0F5805F03D0A06828B92069FB
:101EF00018B920684068287004E02068406800F045
:101F00007F002870A06A401CA062E08D401E80B255
:101F1000E085002844D12068C06820F020002168B6
:101F2000C8602068C06820F480702168C86020689C
:101F3000406920F0010021684861202084F83E00BB
:101F4000206B012826D10020206300BF00BF21683C
:101F50000C3151E8001F21F0100021680C3141E8DC
:101F60000002002AF3D100BF2068006800F01000D2
:101F700010280AD100BF002000902068006800905F
:101F800020684068009000BF00BFA18D2046FFF789
:101F9000A7FC02E02046FFF7E1FE0020F8BD01E0CB
:101FA0000020FBE70220F9E72DE9F84F04462068FE
:101FB000006920F44050E168084321680861216904
:101FC000A068084361690843E169084300902068FC
:101FD000C06849F20C618843009908432168C860D1
:101FE0002068406920F44070A16908432168486175
:101FF00076492068884203D075492068884203D119
:10200000FFF70CF8814602E0FEF7F8FF8146E06931
:10201000B0F5004F6CD102206168A0FB015003466F
:102020001920A9FB007001462A463846FEF737F909
:102030006421B0FBF1F04FEA001A02206168A0FBB6
:1020400001510B461920A9FB00712A463846FEF7BC
:1020500026F9834602206168A0FB0150034619203F
:10206000A9FB00712A463846FEF719F96421B0FB36
:10207000F1F000EBC00101EB0010ABEB800032216E
:1020800001EBC0006421B0FBF1F000F0F8000AEBB6
:10209000400A02206168A0FB015003461920A9FBF9
:1020A000007001462A463846FEF7F9F883460220BA
:1020B0006168A0FB015003461920A9FB00712A4664
:1020C0003846FEF7ECF86421B0FBF1F000EBC001FC
:1020D00001EB0010ABEB8000322101EBC00064216A
:1020E000B0FBF1F000F007005044216888606AE01E
:1020F00004206168A0FB015003461920A9FB007071
:1021000001462A463846FEF7CAF88246042061682E
:10211000A0FB015003461920A9FB007001462A4686
:102120003846FEF7BCF86421B0FBF1F000EBC001CB
:1021300001EB0010AAEB8000322101EB00106421BA
:10214000B0FBF1F000F0F00A04206168A0FB017020
:1021500003461920A9FB00513A462846FEF79FF88E
:102160006421B0FBF1F00AEB001A04206168A0FBC7
:1021700001510B461920A9FB00712A463846FEF78B
:102180008EF8834604206168A0FB015003461920A5
:10219000A9FB007001462A463846FEF780F8642104
:1021A000B0FBF1F000EBC00101EB0010ABEB8000E5
:1021B000322101EB00106421B0FBF1F000F00F00C0
:1021C000504421688860BDE8F88F0000001001408D
:1021D0000014014010B5034699629A85DA85002003
:1021E0001864222083F83E0000BF002083F83C00E2
:1021F00000BF186928B11868C06840F480701C6876
:10220000E0601868406940F001001C68606118686F
:10221000C06840F020001C68E060002010BD01464E
:1022200091F83D00212828D18868B0F5805F0BD156
:10223000086948B90A6A1088C0F308000B6858603A
:10224000086A801C086205E00B6A581C086218784E
:102250000B685860C88C401E80B2C88458B90868A2
:10226000C06820F080000B68D8600868C06840F043
:1022700040000B68D860002070470220FCE7000097
:1022800070B500240F4D1048FFF736FB00BF03E088
:10229000641CAC4200D904E00B48FFF723FB202864
:1022A000F6D100BF002403E0641CAC4200D906E074
:1022B000012206490448FFF72FFD0028F4D100BF92
:1022C00070BD0000FFFF0100F00000200A000020A8
:1022D00000BFFEE702480068C0F30220704700001C
:1022E0000CED00E010B5002804DB0A07130E054AC8
:1022F000135406E00A07140E034A00F00F031B1FD5
:10230000D45410BD00E400E018ED00E000BF7047B9
:1023100010B504460420FFF7B5FA0148046010BD6B
:102320000C00002070B50446412094FBF0F594FBAE
:10233000F0F100FB114604E04FF6E85000F00CF815
:102340006D1E002DF8D12EB14FF47A7106FB01F00D
:1023500000F002F870BD000070B5034600224FF097
:10236000E02675690D4E366803FB06F44FF0E02653
:10237000B16910E04FF0E026B06988420BD0884286
:1023800002D20E1A324402E02E1A0E4432440146A2
:10239000A24200D300E0EDE700BF70BD0C000020BA
:1023A00000BF054A126802F04002002AF9D0C2B20A
:1023B000014B5A6070470000001001402DE9FE43B8
:1023C000074688460024002500264FF4784020A1C7
:1023D0001022CDE90021029008F1100083B2B4224E
:1023E0004146384603F054F800BF05E0A4F18040B0
:1023F00005606D1C04F58044B4F1007FF6D3002421
:1024000020E0A4F1804005680CB92E4602E0B542F8
:1024100000D81AE000201021CDE90010A91B491CAA
:1024200009040A0B07F1780188B20523414602F03E
:10243000E3FFA81B401C0004010B0BA0FDF7A6FF47
:1024400004F58044B4F1007FDBD300BFBDE8FE8318
:102450004578204D656D6F727920546573743A200C
:10246000202020304B422000534452414D204361F4
:102470007061636974793A25644B420D0A0000006B
:1024800000B587B000BF00BF002001903948006848
:1024900040F08000374908600846006800F080007E
:1024A000019000BF00BF00BF00BF00BF002001902F
:1024B0000846006840F0800008600846006800F0A8
:1024C0008000019000BF00BF00BF00BF00BF002020
:1024D00001900846006840F0040008600846006863
:1024E00000F00400019000BF00BF00BF00BF00BFAC
:1024F000002001900846006840F00100086008468E
:10250000006800F00100019000BF00BF00BF08207C
:10251000029000200390012004900220059002A95F
:102520001548FEF783FA0420029000200390012052
:1025300004900220059002A90F48FEF777FA4FF4A5
:10254000005002900020039001200490022005908A
:1025500002A90A48FEF76AFA0120029000200390BF
:1025600002200490059002A90548FEF75FFA07B023
:1025700000BD000030380240001C0240000802404C
:102580000000024070B50446002514B101202C491A
:1025900008702B480078002836D008212948FEF71B
:1025A0004DFB80B104212748FEF748FB58B14FF49A
:1025B00000512548FEF742FB28B101212348FEF7D0
:1025C0003DFB012820D10A20FFF7ACFE00201C496A
:1025D000087008211B48FEF731FB00B901250421D2
:1025E0001848FEF72BFB00B902254FF4005116489E
:1025F000FEF724FB00B9032501211448FEF71EFB5A
:1026000001281BD1042519E008210E48FEF716FB0E
:10261000012813D104210B48FEF710FB01280DD12E
:1026200041030948FEF70AFB012807D101210748A9
:10263000FEF704FB10B9012001490870284670BD5F
:1026400024000020001C024000080240000002405C
:1026500070B5044600260948058840884543002196
:10266000084602F099FD02F091FF00BF02E0044825
:102670000480761CAE42FAD370BD000084010020B5
:102680000000086010B5044649488471002C45D10B
:10269000F020474908804FF4A070488008468088A1
:1026A00045F21051884210D14FF430504049088112
:1026B0004FF4285048814FF42C5088814FF4F0702B
:1026C00008804FF4487048801AE03948808841F605
:1026D000631188420DD12C20354908812B20488177
:1026E0002A2088814FF4F07008804FF448704880A9
:1026F00006E02C202E4908812A2048812B20888141
:102700002B48808845F2103188424CD14FF4A0709C
:10271000274908804FF4F070488044E04FF4A070DF
:1027200023490880F02048800846808845F21051EF
:10273000884210D14FF430501D4908814FF4285081
:1027400048814FF42C5088814FF4487008804FF432
:10275000F07048801AE01648808841F6631188427C
:102760000DD12C20124908812A2048812B208881F4
:102770004FF4487008804FF4F070488006E02C2039
:102780000B4908812A2048812B20888108488088AD
:1027900045F21031884206D14FF4F07004490880A8
:1027A0004FF4A0704880002002F0DEFB10BD000056
:1027B0008401002070B505460E4614463146284671
:1027C00002F0EAFC02F0E2FE01490C8070BD00005C
:1027D0000000086010B5CF2002F0CCFE002002F00F
:1027E000BDFEC12002F0BAFE302002F0B7FEED209F
:1027F00002F0C0FE642002F0B1FE032002F0AEFE43
:10280000122002F0ABFE812002F0A8FEE82002F0C8
:10281000B1FE852002F0A2FE102002F09FFE7A2079
:1028200002F09CFECB2002F0A5FE392002F096FEBD
:102830002C2002F093FE002002F090FE342002F0E3
:102840008DFE022002F08AFEF72002F093FE202087
:1028500002F084FEEA2002F08DFE002002F07EFEEF
:10286000002002F07BFEC02002F084FE1B2002F05C
:1028700075FEC12002F07EFE012002F06FFEC52031
:1028800002F078FE302002F069FE302002F066FE91
:10289000C72002F06FFEB72002F060FE362002F083
:1028A00069FE482002F05AFE3A2002F063FE5520ED
:1028B00002F054FEB12002F05DFE002002F04EFE58
:1028C0001A2002F04BFEB62002F054FE0A2002F05D
:1028D00045FEA22002F042FEF22002F04BFE002054
:1028E00002F03CFE262002F045FE012002F036FEFA
:1028F000E02002F03FFE0F2002F030FE2A2002F01E
:102900002DFE282002F02AFE082002F027FE0E20CD
:1029100002F024FE082002F021FE542002F01EFEE8
:10292000A92002F01BFE432002F018FE0A2002F04C
:1029300015FE0F2002F012FE002002F00FFE002014
:1029400002F00CFE002002F009FE002002F006FE5C
:10295000E12002F00FFE002002F000FE152002F040
:10296000FDFD172002F0FAFD072002F0F7FD11200F
:1029700002F0F4FD062002F0F1FD2B2002F0EEFD46
:10298000562002F0EBFD3C2002F0E8FD052002F0AD
:10299000E5FD102002F0E2FD0F2002F0DFFD3F20F8
:1029A00002F0DCFD3F2002F0D9FD0F2002F0D6FD41
:1029B0002B2002F0DFFD002002F0D0FD002002F00D
:1029C000CDFD012002F0CAFD3F2002F0C7FD2A2004
:1029D00002F0D0FD002002F0C1FD002002F0BEFD9B
:1029E000002002F0BBFDEF2002F0B8FD112002F044
:1029F000C1FD7820FFF796FC292002F0BBFD10BD39
:102A000010B5ED2002F0B6FD012002F0A7FDFE207A
:102A100002F0A4FDEE2002F0ADFDDE2002F09EFDEE
:102A2000212002F09BFDF12002F0A4FD012002F024
:102A300095FDDF2002F09EFD102002F08FFDC420E6
:102A400002F098FD8F2002F089FDC62002F092FD71
:102A5000002002F083FDE22002F080FDE22002F07F
:102A60007DFDE22002F07AFDBF2002F083FDAA2066
:102A700002F074FDB02002F07DFD0D2002F06EFD2D
:102A8000002002F06BFD0D2002F068FD002002F036
:102A900065FD112002F062FD002002F05FFD1920AB
:102AA00002F05CFD002002F059FD212002F056FDED
:102AB000002002F053FD2D2002F050FD002002F016
:102AC0004DFD3D2002F04AFD002002F047FD5D2053
:102AD00002F044FD002002F041FD5D2002F03EFDC9
:102AE000002002F03BFDB12002F044FD802002F006
:102AF00035FD002002F032FD8B2002F02FFD00207A
:102B000002F02CFD962002F029FD002002F026FDA7
:102B1000B22002F02FFD002002F020FD002002F084
:102B20001DFD022002F01AFD002002F017FD032017
:102B300002F014FD002002F011FDB32002F01AFD96
:102B4000002002F00BFD002002F008FD002002F042
:102B500005FD002002F002FD002002F0FFFC002035
:102B600002F0FCFC002002F0F9FC002002F0F6FC70
:102B7000002002F0F3FC002002F0F0FC002002F044
:102B8000EDFC002002F0EAFC002002F0E7FC00204F
:102B900002F0E4FC002002F0E1FC002002F0DEFC88
:102BA000002002F0DBFC002002F0D8FC002002F044
:102BB000D5FC002002F0D2FC002002F0CFFC002067
:102BC00002F0CCFC002002F0C9FC002002F0C6FCA0
:102BD000B42002F0CFFC8B2002F0C0FC002002F0F9
:102BE000BDFC962002F0BAFC002002F0B7FCA12048
:102BF00002F0B4FC002002F0B1FCB52002F0BAFCF7
:102C0000022002F0ABFC002002F0A8FC032002F03E
:102C1000A5FC002002F0A2FC042002F09FFC002092
:102C200002F09CFCB62002F0A5FC002002F096FC0D
:102C3000002002F093FCB72002F09CFC002002F080
:102C40008DFC002002F08AFC3F2002F087FC00206F
:102C500002F084FC5E2002F081FC002002F07EFC89
:102C6000642002F07BFC002002F078FC8C2002F053
:102C700075FC002002F072FCAC2002F06FFC00201A
:102C800002F06CFCDC2002F069FC002002F066FC23
:102C9000702002F063FC002002F060FC902002F043
:102CA0005DFC002002F05AFCEB2002F057FC0020F3
:102CB00002F054FCDC2002F051FC002002F04EFC3B
:102CC000B82002F057FC002002F048FC002002F07F
:102CD00045FC002002F042FC002002F03FFC0020F6
:102CE00002F03CFC002002F039FC002002F036FC2F
:102CF000002002F033FCBA2002F03CFC242002F059
:102D00002DFC002002F02AFC002002F027FC00200D
:102D100002F024FCC12002F02DFC202002F01EFC59
:102D2000002002F01BFC542002F018FC002002F0EE
:102D300015FCFF2002F012FC002002F00FFCC22064
:102D400002F018FC0A2002F009FC002002F006FC48
:102D5000042002F003FC002002F000FCC32002F07B
:102D600009FC3C2002F0FAFB002002F0F7FB3A20BD
:102D700002F0F4FB002002F0F1FB392002F0EEFB40
:102D8000002002F0EBFB372002F0E8FB002002F00D
:102D9000E5FB3C2002F0E2FB002002F0DFFB3620E6
:102DA00002F0DCFB002002F0D9FB322002F0D6FB5F
:102DB000002002F0D3FB2F2002F0D0FB002002F015
:102DC000CDFB2C2002F0CAFB002002F0C7FB29201B
:102DD00002F0C4FB002002F0C1FB262002F0BEFB83
:102DE000002002F0BBFB242002F0B8FB002002F020
:102DF000B5FB242002F0B2FB002002F0AFFB232041
:102E000002F0ACFB002002F0A9FB3C2002F0A6FB84
:102E1000002002F0A3FB362002F0A0FB002002F00D
:102E20009DFB322002F09AFB002002F097FB2F203E
:102E300002F094FB002002F091FB2C2002F08EFBAC
:102E4000002002F08BFB292002F088FB002002F01A
:102E500085FB262002F082FB002002F07FFB24206D
:102E600002F07CFB002002F079FB242002F076FBCC
:102E7000002002F073FB232002F070FB002002F020
:102E80006DFBC42002F076FB622002F067FB00209D
:102E900002F064FB052002F061FB002002F05EFB03
:102EA000842002F05BFB002002F058FBF02002F0CF
:102EB00055FB002002F052FB182002F04FFB0020CF
:102EC00002F04CFBA42002F049FB002002F046FB7C
:102ED000182002F043FB002002F040FB502002F0DB
:102EE0003DFB002002F03AFB0C2002F037FB0020F3
:102EF00002F034FB172002F031FB002002F02EFB21
:102F0000952002F02BFB002002F028FBF32002F0BA
:102F100025FB002002F022FBE62002F01FFB002030
:102F200002F01CFBC52002F025FB322002F016FB4C
:102F3000002002F013FB442002F010FB002002F0FE
:102F40000DFB652002F00AFB002002F007FB762053
:102F500002F004FB002002F001FB882002F0FEFAE0
:102F6000002002F0FBFAC62002F004FB202002F051
:102F7000F5FA002002F0F2FA172002F0EFFA002032
:102F800002F0ECFA012002F0E9FA002002F0E6FA81
:102F9000C72002F0EFFA002002F0E0FA002002F071
:102FA000DDFA002002F0DAFA002002F0D7FAC82099
:102FB00002F0E0FA002002F0D1FA002002F0CEFA8E
:102FC000002002F0CBFA002002F0C8FAC92002F07B
:102FD000D1FA002002F0C2FA002002F0BFFA00206D
:102FE00002F0BCFA002002F0B9FA002002F0B6FAB2
:102FF000002002F0B3FA002002F0B0FA002002F044
:10300000ADFA002002F0AAFA002002F0A7FA002090
:1030100002F0A4FA002002F0A1FA002002F09EFAC9
:10302000002002F09BFA002002F098FA002002F043
:1030300095FAE02002F09EFA162002F08FFA0020A6
:1030400002F08CFA1C2002F089FA002002F086FAC5
:10305000212002F083FA002002F080FA362002F0EC
:103060007DFA002002F07AFA462002F077FA00207A
:1030700002F074FA522002F071FA002002F06EFAA7
:10308000642002F06BFA002002F068FA7A2002F065
:1030900065FA002002F062FA8B2002F05FFA00204D
:1030A00002F05CFA992002F059FA002002F056FA78
:1030B000A82002F053FA002002F050FAB92002F0E2
:1030C0004DFA002002F04AFAC42002F047FA00202C
:1030D00002F044FACA2002F041FA002002F03EFA5F
:1030E000D22002F03BFA002002F038FAD92002F098
:1030F00035FA002002F032FAE02002F02FFA002028
:1031000002F02CFAF32002F029FA002002F026FA4D
:10311000E12002F02FFA162002F020FA002002F03F
:103120001DFA1C2002F01AFA002002F017FA2220E1
:1031300002F014FA002002F011FA362002F00EFA22
:10314000002002F00BFA452002F008FA002002F0FD
:1031500005FA522002F002FA002002F0FFF9642082
:1031600002F0FCF9002002F0F9F97A2002F0F6F9F9
:10317000002002F0F3F98B2002F0F0F9002002F0B9
:10318000EDF9992002F0EAF9002002F0E7F9A82011
:1031900002F0E4F9002002F0E1F9B92002F0DEF9D2
:1031A000002002F0DBF9C42002F0D8F9002002F080
:1031B000D5F9CA2002F0D2F9002002F0CFF9D220CE
:1031C00002F0CCF9002002F0C9F9D82002F0C6F9CB
:1031D000002002F0C3F9E02002F0C0F9002002F064
:1031E000BDF9F32002F0BAF9002002F0B7F9E220AD
:1031F00002F0C0F9052002F0B1F9002002F0AEF9AA
:103200000B2002F0ABF9002002F0A8F91B2002F01D
:10321000A5F9002002F0A2F9342002F09FF9002065
:1032200002F09CF9442002F099F9002002F096F98E
:103230004F2002F093F9002002F090F9612002F093
:103240008DF9002002F08AF9792002F087F9002038
:1032500002F084F9882002F081F9002002F07EF962
:10326000972002F07BF9002002F078F9A62002F006
:1032700075F9002002F072F9B72002F06FF9002012
:1032800002F06CF9C22002F069F9002002F066F940
:10329000C72002F063F9002002F060F9D12002F0AB
:1032A0005DF9002002F05AF9D62002F057F900200B
:1032B00002F054F9DD2002F051F9002002F04EF93D
:1032C000F32002F04BF9002002F048F9E32002F06D
:1032D00051F9052002F042F9002002F03FF90A20DE
:1032E00002F03CF9002002F039F91C2002F036F916
:1032F000002002F033F9332002F030F9002002F010
:103300002DF9442002F02AF9002002F027F950207C
:1033100002F024F9002002F021F9622002F01EF9E7
:10332000002002F01BF9782002F018F9002002F0CA
:1033300015F9882002F012F9002002F00FF9972009
:1033400002F00CF9002002F009F9A62002F006F9BB
:10335000002002F003F9B72002F000F9002002F08B
:10336000FDF8C22002F0FAF8002002F0F7F8C720BA
:1033700002F0F4F8002002F0F1F8D12002F0EEF8AB
:10338000002002F0EBF8D52002F0E8F8002002F06F
:10339000E5F8DD2002F0E2F8002002F0DFF8F3208B
:1033A00002F0DCF8002002F0D9F8E42002F0E2F8A4
:1033B000012002F0D3F8002002F0D0F8012002F042
:1033C000CDF8002002F0CAF8022002F0C7F8002071
:1033D00002F0C4F82A2002F0C1F8002002F0BEF882
:1033E0003C2002F0BBF8002002F0B8F84B2002F0BD
:1033F000B5F8002002F0B2F85D2002F0AFF800202E
:1034000002F0ACF8742002F0A9F8002002F0A6F84F
:10341000842002F0A3F8002002F0A0F8932002F02C
:103420009DF8002002F09AF8A22002F097F8002000
:1034300002F094F8B32002F091F8002002F08EF828
:10344000BE2002F08BF8002002F088F8C42002F0C1
:1034500085F8002002F082F8CD2002F07FF80020ED
:1034600002F07CF8D32002F079F8002002F076F820
:10347000DD2002F073F8002002F070F8F32002F073
:103480006DF8002002F06AF8E52002F073F80020E1
:1034900002F064F8002002F061F8002002F05EF80B
:1034A000002002F05BF8022002F058F8002002F041
:1034B00055F8292002F052F8002002F04FF83C2085
:1034C00002F04CF8002002F049F84B2002F046F8D8
:1034D000002002F043F85D2002F040F8002002F0E6
:1034E0003DF8742002F03AF8002002F037F884200A
:1034F00002F034F8002002F031F8932002F02EF8A8
:10350000002002F02BF8A22002F028F8002002F0A0
:1035100025F8B32002F022F8002002F01FF8BE20A8
:1035200002F01CF8002002F019F8C42002F016F88E
:10353000002002F013F8CD2002F010F8002002F075
:103540000DF8D32002F00AF8002002F007F8DC2082
:1035500002F004F8002002F001F8F32001F0FEFF71
:10356000002001F0FBFFE62002F004F8112001F03A
:10357000F5FF002001F0F2FF342001F0EFFF002002
:1035800001F0ECFF562001F0E9FF002001F0E6FF1A
:10359000762001F0E3FF002001F0E0FF772001F04A
:1035A000DDFF002001F0DAFF662001F0D7FF0020E8
:1035B00001F0D4FF882001F0D1FF002001F0CEFF00
:1035C000992001F0CBFF002001F0C8FFBB2001F0E3
:1035D000C5FF002001F0C2FF992001F0BFFF0020CD
:1035E00001F0BCFF662001F0B9FF002001F0B6FF3A
:1035F000552001F0B3FF002001F0B0FF552001F08D
:10360000ADFF002001F0AAFF452001F0A7FF002038
:1036100001F0A4FF432001F0A1FF002001F09EFF74
:10362000442001F09BFF002001F098FFE72001F00B
:10363000A1FF322001F092FF002001F08FFF552002
:1036400001F08CFF002001F089FF762001F086FF59
:10365000002001F083FF662001F080FF002001F0D0
:103660007DFF672001F07AFF002001F077FF6720DF
:1036700001F074FF002001F071FF872001F06EFF60
:10368000002001F06BFF992001F068FF002001F09D
:1036900065FFBB2001F062FF002001F05FFF992071
:1036A00001F05CFF002001F059FF772001F056FF88
:1036B000002001F053FF442001F050FF002001F0F2
:1036C0004DFF562001F04AFF002001F047FF232064
:1036D00001F044FF002001F041FF332001F03EFFE4
:1036E000002001F03BFF452001F038FF002001F0F1
:1036F00035FFE82001F03EFF002001F02FFF002001
:1037000001F02CFF992001F029FF002001F026FF95
:10371000872001F023FF002001F020FF882001F026
:103720001DFF002001F01AFF772001F017FF002095
:1037300001F014FF662001F011FF002001F00EFFE0
:10374000882001F00BFF002001F008FFAA2001F003
:1037500005FF002001F002FFBB2001F0FFFE00206A
:1037600001F0FCFE992001F0F9FE002001F0F6FEC8
:10377000662001F0F3FE002001F0F0FE552001F07C
:10378000EDFE002001F0EAFE552001F0E7FE0020EA
:1037900001F0E4FE442001F0E1FE002001F0DEFE35
:1037A000442001F0DBFE002001F0D8FE552001F09E
:1037B000D5FE002001F0D2FEE92001F0DBFEAA20B8
:1037C00001F0CCFE002001F0C9FE002001F0C6FE91
:1037D000002001F0C3FE002001F0CCFEAA2001F081
:1037E000BDFECF2001F0C6FE002001F0B7FE002094
:1037F00001F0B4FE002001F0B1FE002001F0AEFEA9
:10380000002001F0ABFE002001F0A8FE002001F036
:10381000A5FE002001F0A2FE002001F09FFE002086
:1038200001F09CFE002001F099FE002001F096FEC0
:10383000002001F093FE002001F090FE002001F036
:103840008DFE002001F08AFE002001F087FEF020AE
:1038500001F090FE002001F081FE502001F07EFE7C
:10386000002001F07BFE002001F078FE002001F036
:1038700075FEF32001F07EFE002001F06FFEF920BE
:1038800001F078FE062001F069FE102001F066FECE
:10389000292001F063FE002001F060FE3A2001F0D3
:1038A00069FE552001F05AFE112001F063FE6420EC
:1038B000FEF738FD292001F05DFE352001F05AFEAB
:1038C000002001F04BFE512001F054FEFF2001F0DA
:1038D00045FE532001F04EFE2C2001F03FFE552006
:1038E00001F048FE822001F039FE2C2001F042FE5A
:1038F00010BD10B555214FF4704001F051FEAA21C2
:103900004FF2010001F04CFE52214FF2020001F093
:1039100047FE08214FF2030001F042FE01214FF261
:10392000040001F03DFE0D214FF4304001F038FE5F
:103930000D214BF2010001F033FE0D214BF202008C
:1039400001F02EFE34214FF4364001F029FE3421DF
:103950004BF2016001F024FE34214BF2026001F0D1
:103960001FFE0D214FF4314001F01AFE0D214BF2E4
:10397000011001F015FE0D214BF2021001F010FEB6
:1039800034214FF4374001F00BFE34214BF201702B
:1039900001F006FE34214BF2027001F001FE00211D
:1039A0004FF4324001F0FCFD00214BF2012001F008
:1039B000F7FD00214BF2022001F0F2FD24214FF42B
:1039C000384001F0EDFD24214BF6010001F0E8FD47
:1039D00024214BF6020001F0E3FD01214FF43F40AA
:1039E00001F0DEFD0F214FF4334001F0D9FD0F212E
:1039F0004BF2013001F0D4FD0F214BF2023001F007
:103A0000CFFD34214FF4394001F0CAFD34214BF68B
:103A1000011001F0C5FD34214BF6021001F0C0FD8C
:103A200008214FF4354001F0BBFD08214BF2015055
:103A300001F0B6FD08214BF2025001F0B1FD032167
:103A40004FF4424001F0ACFD24214FF43A4001F024
:103A5000A7FD24214BF6012001F0A2FD24214BF605
:103A6000022001F09DFD00214FF43C4001F098FD43
:103A700078214BF6014001F093FD00214BF6024006
:103A800001F08EFD00214FF43D4001F089FD7821C9
:103A90004BF6015001F084FD00214BF6025001F07D
:103AA0007FFD00214FF43E4001F07AFD64214BF68A
:103AB000016001F075FD00214FF4514001F070FDEF
:103AC00033214DF2011001F06BFD00214DF2021087
:103AD00001F066FD34214DF2031001F061FD00217B
:103AE0004DF2041001F05CFD3A214DF2051001F099
:103AF00057FD00214DF2061001F052FD4A214DF212
:103B0000071001F04DFD00214DF2081001F048FDB5
:103B10005C214DF2091001F043FD00214DF20A1025
:103B200001F03EFD81214DF20B1001F039FD002125
:103B30004DF20C1001F034FDA6214DF20D1001F0F4
:103B40002FFD00214DF20E1001F02AFDE5214DF26E
:103B50000F1001F025FD01214DF2101001F020FDA4
:103B600013214DF2111001F01BFD01214DF2121035
:103B700001F016FD54214DF2131001F011FD012149
:103B80004DF2141001F00CFD82214DF2151001F0E0
:103B900007FD01214DF2161001F002FDCA214DF280
:103BA000171001F0FDFC02214DF2181001F0F8FC95
:103BB00000214DF2191001F0F3FC02214DF21A1010
:103BC00001F0EEFC01214DF21B1001F0E9FC022195
:103BD0004DF21C1001F0E4FC34214DF21D1001F0F7
:103BE000DFFC02214DF21E1001F0DAFC67214DF2DC
:103BF0001F1001F0D5FC02214DF2201001F0D0FC85
:103C000084214DF2211001F0CBFC02214DF2221053
:103C100001F0C6FCA4214DF2231001F0C1FC0221E9
:103C20004DF2241001F0BCFCB7214DF2251001F03B
:103C3000B7FC02214DF2261001F0B2FCCF214DF26B
:103C4000271001F0ADFC02214DF2281001F0A8FC74
:103C5000DE214DF2291001F0A3FC02214DF22A10C1
:103C600001F09EFCF2214DF22B1001F099FC022193
:103C70004DF22C1001F094FCFE214DF22D1001F0BC
:103C80008FFC03214DF22E1001F08AFC10214DF221
:103C90002F1001F085FC03214DF2301001F080FC63
:103CA00033214DF2311001F07BFC03214DF2321033
:103CB00001F076FC6D214DF2331001F071FC002112
:103CC0004FF4524001F06CFC33214DF2012001F021
:103CD00067FC00214DF2022001F062FC34214DF21C
:103CE000032001F05DFC00214DF2042001F058FC9E
:103CF0003A214DF2052001F053FC00214DF206203F
:103D000001F04EFC4A214DF2072001F049FC002150
:103D10004DF2082001F044FC5C214DF2092001F035
:103D20003FFC00214DF20A2001F03AFC81214DF2C6
:103D30000B2001F035FC00214DF20C2001F030FC8D
:103D4000A6214DF20D2001F02BFC00214DF20E209A
:103D500001F026FCE5214DF20F2001F021FC0121AC
:103D60004DF2102001F01CFC13214DF2112001F046
:103D700017FC01214DF2122001F012FC54214DF2EA
:103D8000132001F00DFC01214DF2142001F008FC7C
:103D900082214DF2152001F003FC01214DF2162085
:103DA00001F0FEFBCA214DF2172001F0F9FB0221C0
:103DB0004DF2182001F0F4FB00214DF2192001F022
:103DC000EFFB02214DF21A2001F0EAFB01214DF236
:103DD0001B2001F0E5FB02214DF21C2001F0E0FB6D
:103DE00034214DF21D2001F0DBFB02214DF21E209B
:103DF00001F0D6FB67214DF21F2001F0D1FB02211B
:103E00004DF2202001F0CCFB84214DF2212001F065
:103E1000C7FB02214DF2222001F0C2FBA4214DF28A
:103E2000232001F0BDFB02214DF2242001F0B8FB5C
:103E3000B7214DF2252001F0B3FB02214DF22620DF
:103E400001F0AEFBCF214DF2272001F0A9FB0221AA
:103E50004DF2282001F0A4FBDE214DF2292001F0D3
:103E60009FFB02214DF22A2001F09AFBF2214DF234
:103E70002B2001F095FB02214DF22C2001F090FB4C
:103E8000FE214DF22D2001F08BFB03214DF22E205F
:103E900001F086FB10214DF22F2001F081FB032160
:103EA0004DF2302001F07CFB33214DF2312001F046
:103EB00077FB03214DF2322001F072FB6D214DF2B0
:103EC000332001F06DFB00214FF4534001F068FBFB
:103ED00033214DF2013001F063FB00214DF202303D
:103EE00001F05EFB34214DF2033001F059FB00215B
:103EF0004DF2043001F054FB3A214DF2053001F04F
:103F00004FFB00214DF2063001F04AFB4A214DF2F1
:103F1000073001F045FB00214DF2083001F040FB75
:103F20005C214DF2093001F03BFB00214DF20A30DB
:103F300001F036FB81214DF20B3001F031FB002105
:103F40004DF20C3001F02CFBA6214DF20D3001F0AA
:103F500027FB00214DF20E3001F022FBE5214DF24E
:103F60000F3001F01DFB01214DF2103001F018FB64
:103F700013214DF2113001F013FB01214DF21230EB
:103F800001F00EFB54214DF2133001F009FB012129
:103F90004DF2143001F004FB82214DF2153001F096
:103FA000FFFA01214DF2163001F0FAFACA214DF262
:103FB000173001F0F5FA02214DF2183001F0F0FA55
:103FC00000214DF2193001F0EBFA02214DF21A30C6
:103FD00001F0E6FA01214DF21B3001F0E1FA022175
:103FE0004DF21C3001F0DCFA34214DF21D3001F0AD
:103FF000D7FA02214DF21E3001F0D2FA67214DF2BC
:104000001F3001F0CDFA02214DF2203001F0C8FA44
:1040100084214DF2213001F0C3FA02214DF2223009
:1040200001F0BEFAA4214DF2233001F0B9FA0221C9
:104030004DF2243001F0B4FAB7214DF2253001F0F1
:10404000AFFA02214DF2263001F0AAFACF214DF24B
:10405000273001F0A5FA02214DF2283001F0A0FA34
:10406000DE214DF2293001F09BFA02214DF22A3077
:1040700001F096FAF2214DF22B3001F091FA022173
:104080004DF22C3001F08CFAFE214DF22D3001F072
:1040900087FA03214DF22E3001F082FA10214DF201
:1040A0002F3001F07DFA03214DF2303001F078FA23
:1040B00033214DF2313001F073FA03214DF23230E9
:1040C00001F06EFA6D214DF2333001F069FA0021F2
:1040D0004FF4544001F064FA33214DF2014001F0F5
:1040E0005FFA00214DF2024001F05AFA34214DF2FC
:1040F000034001F055FA00214DF2044001F050FA5E
:104100003A214DF2054001F04BFA00214DF20640F4
:1041100001F046FA4A214DF2074001F041FA002130
:104120004DF2084001F03CFA5C214DF2094001F0EB
:1041300037FA00214DF20A4001F032FA81214DF2A6
:104140000B4001F02DFA00214DF20C4001F028FA4D
:10415000A6214DF20D4001F023FA00214DF20E4050
:1041600001F01EFAE5214DF20F4001F019FA01218C
:104170004DF2104001F014FA13214DF2114001F0FC
:104180000FFA01214DF2124001F00AFA54214DF2CA
:10419000134001F005FA01214DF2144001F000FA3C
:1041A00082214DF2154001F0FBF901214DF216403C
:1041B00001F0F6F9CA214DF2174001F0F1F90221A0
:1041C0004DF2184001F0ECF900214DF2194001F0D8
:1041D000E7F902214DF21A4001F0E2F901214DF216
:1041E0001B4001F0DDF902214DF21C4001F0D8F92D
:1041F00034214DF21D4001F0D3F902214DF21E4051
:1042000001F0CEF967214DF21F4001F0C9F90221FA
:104210004DF2204001F0C4F984214DF2214001F01B
:10422000BFF902214DF2224001F0BAF9A4214DF26A
:10423000234001F0B5F902214DF2244001F0B0F91C
:10424000B7214DF2254001F0ABF902214DF2264095
:1042500001F0A6F9CF214DF2274001F0A1F902218A
:104260004DF2284001F09CF9DE214DF2294001F089
:1042700097F902214DF22A4001F092F9F2214DF214
:104280002B4001F08DF902214DF22C4001F088F90C
:10429000FE214DF22D4001F083F903214DF22E4015
:1042A00001F07EF910214DF22F4001F079F9032140
:1042B0004DF2304001F074F933214DF2314001F0FC
:1042C0006FF903214DF2324001F06AF96D214DF290
:1042D000334001F065F900214FF4554001F060F9D9
:1042E00033214DF2015001F05BF900214DF20250F3
:1042F00001F056F934214DF2035001F051F900213B
:104300004DF2045001F04CF93A214DF2055001F004
:1043100047F900214DF2065001F042F94A214DF2D1
:10432000075001F03DF900214DF2085001F038F935
:104330005C214DF2095001F033F900214DF20A5091
:1043400001F02EF981214DF20B5001F029F90021E5
:104350004DF20C5001F024F9A6214DF20D5001F060
:104360001FF900214DF20E5001F01AF9E5214DF22E
:104370000F5001F015F901214DF2105001F010F924
:1043800013214DF2115001F00BF901214DF21250A1
:1043900001F006F954214DF2135001F001F9012109
:1043A0004DF2145001F0FCF882214DF2155001F04D
:1043B000F7F801214DF2165001F0F2F8CA214DF242
:1043C000175001F0EDF802214DF2185001F0E8F815
:1043D00000214DF2195001F0E3F802214DF21A507C
:1043E00001F0DEF801214DF21B5001F0D9F8022155
:1043F0004DF21C5001F0D4F834214DF21D5001F063
:10440000CFF802214DF21E5001F0CAF867214DF29B
:104410001F5001F0C5F802214DF2205001F0C0F804
:1044200084214DF2215001F0BBF802214DF22250BF
:1044300001F0B6F8A4214DF2235001F0B1F80221A9
:104440004DF2245001F0ACF8B7214DF2255001F0A7
:10445000A7F802214DF2265001F0A2F8CF214DF22B
:10446000275001F09DF802214DF2285001F098F8F4
:10447000DE214DF2295001F093F802214DF22A502D
:1044800001F08EF8F2214DF22B5001F089F8022153
:104490004DF22C5001F084F8FE214DF22D5001F028
:1044A0007FF803214DF22E5001F07AF810214DF2E1
:1044B0002F5001F075F803214DF2305001F070F8E3
:1044C00033214DF2315001F06BF803214DF232509F
:1044D00001F066F86D214DF2335001F061F80021D2
:1044E0004FF4564001F05CF833214DF2016001F0C9
:1044F00057F800214DF2026001F052F834214DF2DC
:10450000036001F04DF800214DF2046001F048F81D
:104510003A214DF2056001F043F800214DF20660AA
:1045200001F03EF84A214DF2076001F039F8002110
:104530004DF2086001F034F85C214DF2096001F0A1
:104540002FF800214DF20A6001F02AF881214DF286
:104550000B6001F025F800214DF20C6001F020F80D
:10456000A6214DF20D6001F01BF800214DF20E6006
:1045700001F016F8E5214DF20F6001F011F801216C
:104580004DF2106001F00CF813214DF2116001F0B2
:1045900007F801214DF2126001F002F854214DF2AA
:1045A000136000F0FDFF01214DF2146000F0F8FFF0
:1045B00082214DF2156000F0F3FF01214DF21660EB
:1045C00000F0EEFFCA214DF2176000F0E9FF022172
:1045D0004DF2186000F0E4FF00214DF2196000F088
:1045E000DFFF02214DF21A6000F0DAFF01214DF2E7
:1045F0001B6000F0D5FF02214DF21C6000F0D0FFDF
:1046000034214DF21D6000F0CBFF02214DF21E60FF
:1046100000F0C6FF67214DF21F6000F0C1FF0221CC
:104620004DF2206000F0BCFF84214DF2216000F0CB
:10463000B7FF02214DF2226000F0B2FFA4214DF23B
:10464000236000F0ADFF02214DF2246000F0A8FFCE
:10465000B7214DF2256000F0A3FF02214DF2266044
:1046600000F09EFFCF214DF2276000F099FF02215C
:104670004DF2286000F094FFDE214DF2296000F039
:104680008FFF02214DF22A6000F08AFFF2214DF2E5
:104690002B6000F085FF02214DF22C6000F080FFBE
:1046A000FE214DF22D6000F07BFF03214DF22E60C4
:1046B00000F076FF10214DF22F6000F071FF032112
:1046C0004DF2306000F06CFF33214DF2316000F0AC
:1046D00067FF03214DF2326000F062FF6D214DF261
:1046E000336000F05DFF55214FF4704000F058FF3B
:1046F000AA214FF2010000F053FF52214FF20200B5
:1047000000F04EFF08214FF2030000F049FF0021A6
:104710004FF2040000F044FFCC214FF4314000F090
:104720003FFF00214BF2011000F03AFF05214FF44A
:10473000364000F035FF70214FF4374000F030FF75
:1047400070214BF2017000F02BFF01214FF4384033
:1047500000F026FF03214BF6010000F021FF0321AA
:104760004BF6020000F01CFF03214BF6030000F0A3
:1047700017FF02214FF43C4000F012FF00214BF6DE
:10478000014000F00DFF00214BF6024000F008FF51
:10479000D0214FF4494000F003FF02214CF60110F4
:1047A00000F0FEFE50214CF6021000F0F9FE502100
:1047B0004CF6031000F0F4FE50214CF6041000F00B
:1047C000EFFE00214FF4545000F0EAFE55214FF463
:1047D000685000F0E5FE4FF4885000F0CBFE7820E2
:1047E000FDF7BAFD4FF4245000F0C4FE10BD10B523
:1047F000E22000F0BFFE1D2000F0B0FE022000F01D
:10480000ADFE042000F0AAFE6420FDF7A5FDE02027
:1048100000F0B0FE012000F0A1FE0A20FDF782FDAD
:10482000E02000F0A7FE032000F098FE0C20FDF72A
:1048300079FD012000F09EFE0A20FDF773FDE620C1
:1048400000F098FE2F2000F089FEFF2000F086FE89
:10485000FF2000F083FEB02000F08CFE202000F04E
:104860007DFE002000F07AFE032000F077FE40F28B
:104870001F3000F073FE012000F070FE40F2DF10E8
:1048800000F06CFE002000F069FEB42000F072FE23
:10489000042000F063FE40F21F4000F05FFE0020A5
:1048A00000F05CFE2E2000F059FE002000F056FEC5
:1048B000002000F053FE002000F050FE002000F029
:1048C0004DFEB62000F056FE022000F047FE4FF4E9
:1048D000037000F043FE002000F040FE172000F0BF
:1048E0003DFE152000F03AFE002000F037FE0020CB
:1048F00000F034FEF02000F03DFE032000F02EFE1C
:10490000292000F037FED02000F034FE002000F017
:1049100025FEBE2000F02EFE052000F01FFEFE202A
:1049200000F01CFE012000F019FE002000F016FE31
:10493000002000F013FE002000F010FEB82000F070
:1049400019FE032000F00AFE012000F007FEBA2045
:1049500000F010FE012000F001FE10BD10B5112086
:1049600000F008FE7820FDF7DDFC362000F002FEA6
:10497000002000F0F3FD3A2000F0FCFD052000F0DF
:10498000EDFDB22000F0F6FD0C2000F0E7FD0C205C
:1049900000F0E4FD002000F0E1FD332000F0DEFD3A
:1049A000332000F0DBFDB72000F0E4FD352000F0FF
:1049B000D5FDBB2000F0DEFD322000F0CFFDC02091
:1049C00000F0D8FD0C2000F0C9FDC22000F0D2FD9F
:1049D000012000F0C3FDC32000F0CCFD102000F04A
:1049E000BDFDC42000F0C6FD202000F0B7FDC620AC
:1049F00000F0C0FD0F2000F0B1FDD02000F0BAFDA6
:104A0000A42000F0ABFDA12000F0A8FDE02000F004
:104A1000B1FDD02000F0A2FD002000F09FFD02209B
:104A200000F09CFD072000F099FD0A2000F096FDA3
:104A3000282000F093FD322000F090FD442000F08B
:104A40008DFD422000F08AFD062000F087FD0E203B
:104A500000F084FD122000F081FD142000F07EFDA6
:104A6000172000F07BFDE12000F084FDD02000F055
:104A700075FD002000F072FD022000F06FFD0720A0
:104A800000F06CFD0A2000F069FD282000F066FDB2
:104A9000312000F063FD542000F060FD472000F05D
:104AA0005DFD0E2000F05AFD1C2000F057FD172080
:104AB00000F054FD1B2000F051FD1E2000F04EFDC3
:104AC0002A2000F057FD002000F048FD002000F0F3
:104AD00045FD002000F042FDEF2000F03FFD2B20BF
:104AE00000F048FD002000F039FD002000F036FD08
:104AF000012000F033FD3F2000F030FD292000F0C0
:104B000039FD10BD00B595B000BF00BF0020019079
:104B1000FE48006840F00800FC490860084600684C
:104B200000F00800019000BF00BF00BF00BF00BF41
:104B3000002001900846006840F008000860084620
:104B4000006800F00800019000BF00BF00BF00BF78
:104B500000BF002001900846006840F0080008608F
:104B60000846006800F00800019000BF00BF00BFC9
:104B700000BF00BF002001900846006840F0080018
:104B800008600846006800F00800019000BF00BF00
:104B900000BF00BF00BF002001900846006840F041
:104BA000020008600846006800F00200019000BFA3
:104BB00000BF00BF802010900220119001201290B1
:104BC000022013900C20149010A9D148FBF72EFF5F
:104BD0002020109010A9CE48FBF728FF102010903D
:104BE00010A9CB48FBF722FF4FF40050109010A9FA
:104BF000C748FBF71BFF202010900120119010A93F
:104C0000C448FBF713FF4FF02040C3490860C34876
:104C10004860002088600021BF48C1600161102108
:104C2000416100218161C16141624FF48051816223
:104C30000021C1624FF4804101630021416381631F
:104C40004FF48011C1630F20099000200A90462084
:104C50000B9000200F900F200290002003900F2057
:104C600004900020089002AA09A9AB48FCF788FD2F
:104C70003220FDF757FBD32000F07CFC00F06AF9EE
:104C8000A749888000F066F9A549888000F062F99C
:104C9000A3498880084680884FF6FF7101EA00200A
:104CA0009F49888000F056F99D49898808439C49AE
:104CB00088800846808849F2413188427DD00420AE
:104CC00000F058FC00F046F99549888000F042F960
:104CD0009349888000F03EF9914988800846808891
:104CE0004FF6FF7101EA00208D49888000F032F90B
:104CF0008B49898808438A4988800846808848F219
:104D00005251884203D147F289708549888084488E
:104D1000808847F289718842D0D0D42000F02AFCE4
:104D200000F018F97E49888000F014F97C498880E9
:104D300000F010F97A498880084680884FF6FF71A4
:104D400001EA00207649888000F004F974498988D6
:104D50000843734988800846808845F210318842AC
:104D600062D055214FF4704000F01AFCAA214FF296
:104D7000010000F015FC52214FF2020000F010FC7F
:104D800008214FF2030000F00BFC01214FF2040058
:104D900000F006FC4FF4454000F0ECFB00F0DAF8C0
:104DA0005F498880084680884FF6FF7101EA00203D
:104DB0005B4988804CF2015000E035E000F0DAFBFE
:104DC00000F0C8F85649898808435549888005206D
:104DD000FDF7A8FA5248808845F21051884223D046
:104DE000A12000F0C7FB00F0B5F84D49888000F025
:104DF000B1F84B498880084680884FF6FF7101EA78
:104E000000204749888000F0A5F845498988084373
:104E1000434988800846808845F26171884203D101
:104E200041F663103E4988803D4881883DA0FBF7EC
:104E3000ADFA3B48808847F28971884202D1FFF77A
:104E40008DFD25E03648808849F24131884202D103
:104E5000FDF7C0FC1CE03248808845F210318842E2
:104E600002D1FDF7CDFD13E02D48808845F21051A9
:104E7000884202D1FEF73DFD0AE02948808841F6CC
:104E80006311884204D1FFF7B2FC642000F036FBC6
:104E90002348808849F2413188420BD020488088DD
:104EA00041F66311884205D01D48808847F2897118
:104EB000884209D103200290049017490B6B8A683D
:104EC000486802A9FBF7F2FB1548808845F21031CB
:104ED000884205D01248808845F21051884209D195
:104EE0000220029004900C490B6B8A68486802A962
:104EF000FBF7DCFB0020FDF7C5FB00BF01222021F2
:104F00000448FBF7ADFE00BF12E00000303802405D
:104F1000000C02400004024034010020040100A003
:104F2000840100204C43442049443A25780D0A006E
:104F30004FF6FF70FDF78CFB15B000BD10B50246B3
:104F4000012000E050430B1EA1F10104E1B2F9D1B0
:104F500010BD000008B5034800880090BDF80000AF
:104F600008BD000000000860F0B5054600240027D9
:104F700088488079012805D18648808841F66311E8
:104F8000884208D183488079F0B98248808841F608
:104F90006311884218D1082D15D2DFE805F0040608
:104FA000080A0C0E101206250DE007250BE004255B
:104FB00009E0052507E0012505E0002503E00325BC
:104FC00001E0022500BF00BF082D1CD2DFE805F07C
:104FD0000406090C0F12151800BF14E044F08004F9
:104FE00011E044F040040EE044F0C0040BE044F053
:104FF000200408E044F0600405E044F0A00402E06E
:1050000044F0E00400BF00BF36276248808845F2C4
:105010001051884200D13F025E48808849F24131F8
:10502000884205D05B48808847F28971884201D167
:1050300044F008042146384600F0B2FA554880880A
:1050400041F6631188421DD004F0200068B1514838
:10505000008850494988884214DA4E4806884088BA
:105060004C490880084646800CE04A480088494977
:105070004988884206DD47480688408845490880B7
:10508000084646804348808845F21051884252D1F4
:105090004049488900F06EFA002000F05FFA3D496F
:1050A0004989491C88B200F065FA002000F056FAE0
:1050B00038494989891C88B200F05CFA3549098869
:1050C000491EC1F30F2000F049FA32494989C91C31
:1050D00088B200F04FFA2F490978491EC8B200F093
:1050E0003DFA2C49888900F045FA002000F036FA94
:1050F00028498989491C88B200F03CFA002000F058
:105100002DFA24498989891C88B200F033FA214993
:105110004988491EC1F30F2000F020FA1D498989F2
:10512000C91C88B200F026FA1A498978491EC8B20B
:1051300000F014FA2DE01749488900F01BFA00200E
:1051400000F00CFA002000F009FA12490988491E03
:10515000C1F30F2000F002FA0E490978491EC8B2C7
:1051600000F0FCF90B49888900F004FA002000F0F7
:10517000F5F9002000F0F2F906494988491EC1F30B
:105180000F2000F0EBF903498978491EC8B200F0FE
:10519000E5F9F0BD8401002010B502460C464548F3
:1051A000808841F66311884247D142488079A8B986
:1051B00040480088401E801A82B23E49488900F06B
:1051C000D9F9002000F0CAF9002000F0C7F9101248
:1051D00000F0C4F9D0B200F0C1F916E035494889B1
:1051E00000F0C8F9101200F0B9F9D0B200F0B6F929
:1051F00030490988491EC1F30F2000F0AFF92D494D
:105200000978491EC8B200F0A9F92A49888900F036
:10521000B1F9201200F0A2F9E0B200F09FF925499F
:105220004988491EC1F30F2000F098F92149897877
:10523000491EC8B200F092F93AE01E48808845F253
:105240001051884220D11B49488900F093F910126F
:1052500000F084F917494989491C88B200F08AF99D
:10526000D0B200F07BF91349888900F083F920124D
:1052700000F074F90F498989491C88B200F07AF965
:10528000E0B200F06BF913E00A49488900F072F9C6
:10529000101200F063F9D0B200F060F90549888976
:1052A00000F068F9201200F059F9E0B200F056F968
:1052B00010BD0000840100202DE9FC4F80460E4601
:1052C00015461C46B3460020019000902046E31787
:1052D00004EB5373DB1021464FEAE47C04EB5C7C67
:1052E0004FEAEC0CA4EBCC0CBCF1000F02D04FF059
:1052F000010C01E04FF0000C6344224604EBD27C29
:105300004FEA6C0C03FB0CF3DBB20193A5F1200018
:10531000C5B20C2C06D0102C0BD0182C0ED0202C83
:1053200018D112E005EB45002D4901EB80000090FB
:1053300012E02C4800EB051000900DE005EBC500D5
:10534000294901EB8000009006E0284800EB851019
:10535000009001E0BDE8FC8F00BF00273AE0009814
:1053600010F807904FF0000A2EE009F0800028B1F5
:10537000314640460C9AFDF71DFA07E00B9828B914
:105380001B48314602684046FDF714FA4FEA49606F
:105390004FEA1069701C86B216484088B04200DCA3
:1053A000D8E7A6EB0B00A0420AD15E4608F1010047
:1053B0001FFA80F80F480088404500DCCAE706E085
:1053C0000AF1010000F0FF0ABAF1080FCDDB00BFBF
:1053D000781CC7B201988742C1DB00BFBAE7000062
:1053E000865C0008FA600008EA6600084674000857
:1053F00020000020840100202DE9FF4F83B00746E4
:1054000091461E46DDE9105A0020029000243AE041
:10541000301B401EC1B20A20FFF790FDB9FBF0F02F
:105420000A21B0FBF1F201FB12080298B8B9701E14
:10543000A04214DDB8F1000F0FD10020AB4605EB00
:10544000DB71491001FB0471CDE9000A88B22B46DB
:1054500020220499FFF730FF13E001200290002082
:10546000AB4605EBDB71491001FB0471CDE9000A85
:1054700088B208F13001CAB22B460499FFF71CFF2D
:1054800000BF601CC4B2B442C2DB07B0BDE8F08FFD
:105490002DE9FC4F04460D4690469946DDE90C7A0D
:1054A0000B9E04F0FF0B08EB04001FFA80F809EBD9
:1054B00005001FFA80F917E0444502DB5C46A81995
:1054C00085B24D4500DB15E00020CDE9000A3A78B1
:1054D000334629462046FFF7EFFE304606EBD071F3
:1054E00004EB61018CB27F1C38787E2802DC3878AE
:1054F0002028E1DA00BFBDE8FC8F000070B52DED7B
:10550000048B0446BE2000F035F8052000F026F894
:10551000204600F096FA41EC190B9FED0E0B53EC70
:10552000102B00F0A1FA41EC180B00F05DFA85B2E7
:10553000284600F013F8012000F010F8FF2000F0DA
:105540000DF8002000F00AF8002000F007F8BDEC8C
:10555000048B70BD666666666666044001B5BDF87C
:1055600000000090BDF800000149088008BD00005F
:105570000000086001B5BDF800000090BDF8000013
:105580000149088008BD0000FEFF0760024800894D
:10559000024908807047000084010020FEFF076078
:1055A000024A1080921C118070470000FEFF0760C5
:1055B00000B587B000BF00BF002001901F48006801
:1055C00040F002001D4908600846006800F0020033
:1055D000019000BF00BF00BF00BF00BF00200190CE
:1055E0000846006840F0020008600846006800F0C5
:1055F0000200019000BF00BF00BF02200290012006
:10560000039004900220059002A90D48FBF70EFAC2
:105610000120029002A90A48FBF708FA00BF012204
:1056200002210748FBF71CFB00BF00BF0122114607
:105630000348FBF715FB00BF07B000BD3038024040
:10564000000402400EB500260024FBF721FB0823CE
:10565000022219214FF4B47000F044F9B420FCF791
:1056600057FE4FF4E13000F0A3F9FFF7A1FFFFF779
:1056700049FAFCF705FF00F0B5F84FF4784040A177
:1056800010221346CDE900210290C82232211E20AB
:10569000FFF7FEFE4FF478403BA110221346CDE900
:1056A00000210290C82246211E20FFF7F1FE4FF490
:1056B000784038A110221346CDE900210290C8227B
:1056C0005A211E20FFF7E4FE4FF4784035A1102246
:1056D0001346CDE900210290C8226E211E20FFF75B
:1056E000D7FE4FF4784033A110221346CDE90021B4
:1056F0000290C82282211E20FFF7CAFE00BF03E0ED
:10570000304921F81440641C2F488442F8D335E016
:105710000020FCF737FF0546012D04D1AA211E20E9
:10572000FCF74CFE1FE0022D1AD1002414E04FF4C8
:1057300078401021CDE90010224830F814200623CB
:10574000BE211E20FFF758FE1E4830F814202146C7
:105750001EA0FAF71BFE641C1B488442E7D302E03C
:105760000A20FCF7DFFD701CC6B2142E00D1002603
:1057700000BF02211A48FBF769FA00BFC8E7000022
:1057800053544D3332000000534452414D20544590
:105790005354000041544F4D40414C49454E5445EF
:1057A0004B0000004B4559303A54657374205372D6
:1057B000616D00004B4559313A54455354204461C2
:1057C00074610000000000C090D003007465737421
:1057D0007372616D5B25645D3A25640D0A000000FB
:1057E0000004024000B587B019481A49086000203B
:1057F00048600121174881600821C16010210161C2
:10580000402141614FF4C07181610021C1614FF4B9
:1058100000610162490041624900816202200090FA
:105820000820019006200290039002200490059029
:10583000069069460748FBF7A7FE064800F00CF8FB
:1058400040F2AB210348FBF759FF07B000BD000051
:10585000400100A09401002070B5054600240023FB
:1058600001221146184600F019F84FF4FA70FCF7BF
:1058700073FD002301220221184600F00FF80023D7
:1058800008220321184600F009F84FF40C7423464F
:1058900001220421002000F001F870BD2DE9FF4134
:1058A00004460D4616461F464FF0000814B94FF047
:1058B000100803E0012C01D14FF008080095CDF845
:1058C0000480029603974FF4805269460448FBF720
:1058D00030FF18B9002004B0BDE8F0810120FAE7DC
:1058E000940100202DE9F04192B080460D46164605
:1058F0001F46002414210DA8FAF7F0FD302101A85D
:10590000FAF7ECFD00BF002000902748006840F047
:105910008050254908600846006800F080500090DB
:1059200000BF00BF00BF002000902048006840F486
:1059300040401E4908600846006800F4404000905E
:1059400000BF00BF012001900004029002200790D8
:1059500041050891CDF8288009950B960C9701A870
:10596000FBF7C4FB04461CB1012012B0BDE8F08176
:10597000FBF736FA04460CB10120F6E70F200D9034
:1059800002200E9000200F904FF4A05010904FF482
:105990008050119005210DA8FBF768FA04460CB160
:1059A0000120E2E70020E0E74038024000700040BC
:1059B00010B5044609480A490860084644600021B9
:1059C0008160C160016181610C214161FCF704F9D2
:1059D000012204490248FCF79FF910BD0010014064
:1059E000F00000200A0000204FEA1153A3F5806365
:1059F000D3F11E03A8BFD3F1200C08DB4FF0004207
:105A000042EAC12252EA505232FA03F07047094288
:105A10000BD4102BC4BF0020704703F5787CBCF179
:105A2000FF3F05D04FF0FF3070474FF00000704748
:105A300070B500F0C3F800BF499224800020704781
:105A4000F0E7B0FA80F310FA03F10AD0C3F11D03B6
:105A500003F580634FEA41504FEA035202EBD12134
:105A600070474FF000007047DFF848C170B51CEA7E
:105A7000111E1EBF1CEA13159EEA0C0F95EA0C0FAF
:105A800000F06F8081EA030423EA4C134EEAD47ECF
:105A900021EA4C1141F4801143F48013AE44A1FB80
:105AA000024CA0FB0365AEF17F7E361955EB0C0569
:105AB000A1FB034C4CF10003A0FB021C16EB0C06EF
:105AC000654153F10003094218BF46F0010613F483
:105AD000007F0BD14FEA03314FEA0530340341EA2E
