:1001B70008240A0A0A0A0A0A0A0A081200000000A2
:0E01C7000000000008360000000000000000EC
:1002BB00E531701A7531011201448F32E530653228
:0F02CB00FF5532F52FE532F45FF53485323022DE
:0D034300E52E452D7006752D00752E01224A
:010358002282
:08000300E52C7003752C0122AD
:10000E00538E7F5389F0758A18758CFCC28DD28CF5
:05001E00D2A9D2AF22BF
:03000B00020026CA
:10002600C0E0C0F0C083C082C0D075D000C000C0A0
:1000360001C002C003C004C005C006C0070531E503
:1000460031B40A03753100052EE52E7002052DFF29
:10005600AE2DBE0109BFF406752D00752E00052CC8
:10006600E52CB4C803752C000533E533B4080375D5
:10007600330074242533F8E6FD7C0074122533F82A
:10008600E6FB7A00AF3312023B74362533F8E6FD01
:100096007C00AF33120200D007D006D005D004D0C2
:1000A60003D002D001D000D0D0D082D083D0F0D0FF
:0200B600E03236
:030023000202DAFC
:1002DA00C0E0C0D075D000C00030980B741A253524
:0E02EA00F8A6990535C298D000D0D0D0E032E9
:100315001202F812000E12032C1202BB1203431232
:07032500035812000380F2EF
:1001D5000152000153FF0154000155FF0156000172
:0201E50057FFC2
:10020000ED4C600F7401A807088002C333D8FC428C
:1002100052800E7401A807088002C333D8FCF45240
:1002200052E55265536013E552F4F580E5A0541F82
:0A0230004480F5A053A01F8552532F
:01023A0022A1
:10027500EF600543544080035354BFE55465556012
:1002850011855480E5A0541F44A0F5A053A01F85F7
:020295005455BE
:010297002244
:10029800EF600543561080035356EFE556655760E7
:1002A80011855680E5A0541F44A0F5A053A01F85D2
:0202B800565797
:0102BA002221
:1001E7000C3EC0F9A4B0999282F88090FF88084A23
:0801F700010204081020408001
:10023B007580FFE5A0541F44E0F5A053A01F744A3E
:10024B002FF8E6F580E5A0541F44C0F5A053A01F7E
:10025B00743E2DF8E6F580EB4A600353807FE5A0F2
:0A026B00541F44E0F5A053A01F2229
:10014400E4FFC2C4D2C2D2B5D2B420B3027F042029
:10015400B2027F0520B1027F0620B0027F07D2C41D
:10016400C2C2D2B5D2B420B3027F0820B2027F0942
:1001740020B1027F0A20B0027F0BD2C4D2C2C2B522
:10018400D2B420B3027F0C20B2027F0D20B1027FD3
:100194000E20B0027F0FD2C4D2C2D2B5C2B420B3F3
:1001A400027F1020B2027F1120B1027F1220B00220
:0201B4007F13B7
:0101B6002226
:1002F8007580FFE5A0541F4480F5A053A01FE4F5C6
:0D03080080E5A0541F44A0F5A053A01F22C3
:10032C00759850438E01438E0475D7C775D6FE431E
:07033C008E10D2ACD2AF22FB
:080350008F993099FDC299223A
:030000000200B843
:0C00B800787FE4F6D8FD7581570200FF48
:1000C400020315E493A3F8E493A34003F68001F23A
:1000D40008DFF48029E493A3F85407240CC8C3333D
:1000E400C4540F4420C8834004F456800146F6DF0C
:1000F400E4800B01020408102040809001B7E47EE4
:10010400019360BCA3FF543F30E509541FFEE49300
:10011400A360010ECF54C025E060A840B8E493A3C7
:10012400FAE493A3F8E493A3C8C582C8CAC583CAF2
:10013400F0A3C8C582C8CAC583CADFE9DEE780BEAA
:0101FF0000FF
:00000001FF
