:100BB600082F0A0A0A0A0A0A0A0A087B0000000025
:100BC600000000000857000000000000000003229B
:0B0BD6000D0305012E1E01271EC1812A
:1009B500E53D6003020A5D753D01120C128F3EE5AF
:1009C5003A653EFF553EF539E53EF45FF550853E07
:1009D5003AE53964097002D200E55064097026C30E
:1009E500E55694D0E55594075011E55F6402700E05
:1009F500152EE52EF47007F52E8003E4F552C2009E
:100A0500E4F555F556A201E4338539F0A424FB60DD
:100A15002524FD60322404703F055FE55F640370A3
:100A250002F55FAF5F7E00EF64017002F521EF4EC6
:100A35007026852E2722E55F6401701C0521E521BE
:100A450064037014F52122E55F6402700B052EE541
:090A55002E64647003752E632207
:10051C00E5388537F01204EF053400C80583012C4B
:10052C0005700190000007070538E53870020537A3
:10053C007B007A007922120C69300103020707E56F
:10054C002D2403FFE433FE7C007D0A120480E52495
:10055C0075F00A84E5F06D600302070785605FD2D1
:10056C00010207070538E53870020537120E6412D0
:10057C0003738F2A0207070538E538700205377FA9
:10058C0001120F0C8F51D3EF94647480948040054A
:10059C00D202020707200203020707200103020709
:1005AC0007C202C2017B007A00792B120C69855FAD
:1005BC0060755F030552854C4E852A4CAC4AAD4B99
:1005CC00E412033AAB45AA44A943A842120116C04F
:1005DC0004C005C006C007AC4CE412033FD003D0E6
:1005EC0002D001D000120025C004C005C006C0070F
:1005FC00E54B2401FDE4354AFCE412033AA804A9B6
:10060C0005AA06AB07D007D006D005D00412021FEE
:10061C008F458E448D438C42054BE54B7002054A49
:10062C00C3E52994C8E528940050030206D9D3E504
:10063C002994D0E528940740030206D9854D4FE54F
:10064C00292438FDE52834FFFCE412033A7B617A57
:10065C000B7936783D120116E4FBFA7920784112B9
:10066C0000251203738F4DAC25AD26E412033AAB73
:10067C0049AA48A947A846120116C004C005C006DD
:10068C00C007AC4DE412033FD003D002D001D00020
:10069C00120025C004C005C006C007E5262401FDD4
:1006AC00E43525FCE412033AA804A905AA06AB0715
:1006BC00D007D006D005D00412021F8F498E488D6A
:1006CC00478C460526E526700705258003E4F54D85
:1006DC00E4F518C3E518940274809480501D743BA3
:1006EC002518F8E6FF744C2518F8E6FED39F400752
:1006FC00743B2518F8A606051880D8AE37AF387CA1
:10070C00007D1E120480ED4C60030208D00538E514
:10071C003870020537E55F14605E147003020861DF
:10072C0014700302088C240360030208D0E478815F
:10073C00F675340B75310BF518C3E51894037480FA
:10074C00948040030208D074222518F8E675F00A4C
:10075C0084FFE51875F003A4242FF8A6077422254E
:10076C0018F8E675F00A84AFF0E51875F003A424C8
:10077C0030F8A607051880C1E521240CF52FC3E538
:10078C002194027480948050617881760175300ACE
:10079C00743B2521F8E6FF75F00A84F531EF75F00E
:1007AC000A8485F03275330BE52125E025E02442DF
:1007BC00F81204E3120373EF75F00A84F534EF7545
:1007CC00F00A8485F035E52125E025E02442F81275
:1007DC0004E3E4FBFA792078411201161203737CCE
:1007EC00007D0A1204808D36803AE47881F6E55259
:1007FC0075F00A84F530E55275F00A8485F031E520
:10080C002B75F00A84F532E52B75F00A8485F033EC
:10081C0075340BE52C75F00A84F535E52C75F00A6A
:10082C008485F036E55260030208D07881F6E52124
:10083C00640270047F0180027F00EF2402F518C36C
:10084C00E518940874809480507A742F2518F876E3
:10085C000A051880EAE47881F6F518C3E5189405C2
:10086C0074809480500B74302518F8760A05188023
:10087C00EA752F0FE52E75F00A84F535E52E8036D6
:10088C00E47881F6752F1075310A75300AE54C75D0
:10089C00F00A84F532E54C75F00A8485F033753432
:1008AC000BD3E54D9400748094804012E54D75F0A7
:1008BC000A84F535E54D75F00A8485F036227536D7
:0408CC00117535115C
:0108D0002205
:100AEA00AF5F7E00EF70047D0180027D008D57EFBD
:100AFA0064014E70047F0180027F008F58E55F64B5
:100B0A000370047F0180027F008F59E54CD395273B
:100B1A0040047F0180027F00A203E433FEEF8EF0DF
:100B2A00A4F55AE54D70047F0180027F008F5BE5D2
:100B3A004CD3954E400BE54DD3954F40047F018031
:0D0B4A00027F00E552C3138FF0A4F55C227A
:10104400538E7F5389F0438905E4F58AF58CC28D6C
:03105400D28C2219
:10101B00538EBF53890F758B18758DFCC28FD28E73
:05102B00D2ABD2AF22A0
:03001B000208D107
:1008D100C0E0C0F0C083C082C0D075D000C000C0ED
:1008E10001C002C003C004C005C006C007053DE544
:1008F1003D640A7002F53D0538E53870020537FFA1
:10090100AE37BE0109BFF406753700753800053FE3
:10091100E53F64087002F53F742F253FF8E6FD7C42
:1009210000747B253FF8E6FB7A00AF3F120DF574AA
:1009310057253FF8E6FD7C00AF3F120DBA30001796
:100941000556E55670020555D394D0E555940740F8
:100951000675550B7556B80541E5417002054064B1
:100961006445407009F540F541A203B39203055473
:10097100E55470020553FFAE53BE031DBFE81A755F
:100981005300755400C28CAF8CEFAD8AF528EDF59C
:1009910029758A00758C00D28CD007D006D005D07D
:1009A10004D003D002D001D000D0D0D082D083D0E7
:0409B100F0D0E03270
:100E2F00120F9B7B007A007922120B577B007A00FE
:100E3F007922120C69120E64E4FBFA79AA78421235
:100E4F0002BC60F112101B1210441209B512051CDE
:050E5F00120AEA80F513
:100FB800E4FEEEC3940874809480500FC297EF1338
:0B0FC80092A3EFC313FFD2970E80E747
:010FD30022FB
:10103000C29300C29700D29300120FB8AF05120FEF
:04104000B8C293227D
:100D0400E4FDC29300C29700D29300120FB8E4FF2F
:100D1400EFC39408748094805011C297EDC313FDFF
:100D240030A303430580D2970F80E5C29300C29796
:0C0D340000D29700C2A300D2A300AF05BC
:010D40002290
:060B57008B188A19891AAF
:100B5D00E4FD7F8E121030E4FCECC394037480949A
:100B6D0080503FAB18AA19A91A8C82758300120404
:100B7D000DFF75F00A84C454F0FEEF75F00A84E59C
:100B8D00F04E8C8275830012044CEC25E0FFC3748B
:100B9D00849FFF8C8275830012040DFD1210300CA2
:090BAD0080B77D807F8E021030BC
:060C69008B198A1A891B99
:100C6F00E4FCECC3940374809480503BEC25E0FFCC
:100C7F00C374859FFF120D04AB19AA1AA91B8C828E
:100C8F00758300EF12044C8C8275830012040DFFE4
:100C9F00C4540F75F00AA4FEEF540F2E8C82758387
:070CAF000012044C0C80BB95
:010CB600221B
:04106600D2A07F0590
:08106A0000AE071FEE70F92231
:0F105700D2A1121066C2A17F0512106AC2A02298
:0C107200C2A1121066D2A17F0502106A14
:10000300C2A0A20492A17F0512106A121066C2A0B8
:07001300D2A17F0502106A73
:0A0FD400AB071210577F90120D8535
:100FDE00121066A2A19204C2A07F0512106AA2048A
:010FEE0022E0
:070D7E00AB051210577FA026
:020D8500AD07B8
:100D8700E4FCECC39408748094805024C2A07F05CF
:100D970012106AED30E704D2A18002C2A17F0512CA
:100DA700106AD2A0ED25E0FD7F0512106A0C80D2F3
:020DB700C2A0D8
:010DB9002217
:100EE600E4FCECC39408748094805017121066EDED
:100EF60025E0FD30A103430501C2A07F0512106A5B
:050F06000C80DFAF05C7
:010F0B0022C3
:100F0C00120FD4AF03120D85120FDE1210577F9102
:100F1C00120D85120FDE120EE6AD07D2041200037D
:050F2C00121072AF0578
:010F3100229D
:100FEF00120FD47F41120D85120FDEAF03120D8544
:060FFF00120FDE02107269
:100D41008B0E8A0F8910120D7E120FDEAF03120D6A
:100D510085120FDEAF121512EF601FAB0E0510E505
:100D610010AA0F7002050F14F91203F4FF120D857A
:0D0D7100120FDE7FC812106A80DA021072C5
:100CB7008B138A148915120D7E120FDEAF03120DE6
:100CC70085120FDE1210577FA1120D85120FDEAFAE
:100CD700171517EF6024120EE6AB130515E515AAD5
:100CE700147002051414F9EF12043AE5176004C2F0
:0D0CF700048002D20412000380D5021072A6
:100F9B007580FFE5A0541F4480F5A053A01FE4F516
:0D0FAB0080E5A0541F44A0F5A053A01F2214
:100C1200E4FFC2C4D2C2D2B5D2B420B3027F042050
:100C2200B2027F0520B1027F0620B0027F07D2C444
:100C3200C2C2D2B5D2B420B3027F0820B2027F0969
:100C420020B1027F0A20B0027F0BD2C4D2C2C2B549
:100C5200D2B420B3027F0C20B2027F0D20B1027FFA
:060C62000E20B0027F0F1E
:010C68002269
:100BE1000108000109FF010A00010BFF010C0001CE
:020BF1000DFFF6
:100DBA00ED4C600FA8077401088002C333D8FC42C7
:100DCA0008800EA8077401088002C333D8FCF452C5
:100DDA0008E50865096013E508F4F580E5A0541FE5
:0A0DEA004480F5A053A01F850809FE
:010DF40022DC
:100F3200EF6005430A408003530ABFE50A650B6070
:100F420011850A80E5A0541F44A0F5A053A01F8577
:020F52000A0B88
:010F5400227A
:100F5500EF6005430C108003530CEFE50C650D6045
:100F650011850C80E5A0541F44A0F5A053A01F8552
:020F75000C0D61
:010F77002257
:041005007F057E00E5
:101009007C007D0C12046EEF1FAC0670011E4C7043
:02101900F622BD
:020E9800AB07A6
:100E9A00E4FAEAC39408748094805012C294EB1363
:100EAA009294121005D294EBC313FB0A80E47F05D7
:050EBA007E000210099A
:100F7800E4FAEAC39408748094805014C294EBC3D2
:100F880013FBD2943094034303801210050A80E2C5
:020F9800AF03A5
:010F9A002234
:100EBF00C204D2947F0C7E00121009C2947F507E20
:100ECF0000121009D2947F0A7E00121009A2949288
:060EDF0004121005A2043C
:010EE50022EA
:100E6400120EBF7FCC120E987F44120E98120EBF42
:100E74007FCC120E987FBE120E98120F78A907121B
:100E84000F78EFAD01FCEC12033AE4FBFA798078B9
:040E94004102021FF6
:100BF3001261C0F9A4B0999282F88090FFBFC689B0
:0E0C03008E8C86880873010204081020408041
:100DF5007580FFE5A0541F44E0F5A053A01F747350
:100E05002FF8E6F580E5A0541F44C0F5A053A01FB8
:100E150074612DF8E6F580EB4A600353807FE5A009
:0A0E2500541F44E0F5A053A01F2263
:10001E000203DFE86480F8E933E83360110460F02E
:10002E00ED33EC337009E8FCE9FDEAFEEBFF220448
:10003E0060DED3EB9FEA9EE99DE8C2E78CF0C2F743
:10004E0095F0400CE8CCF8E9CDF9EACEFAEBCFFB0F
:10005E001203AA85D0F05804700320D5B3E80470BB
:10006E00075002B2D50203E992D5EC0460F7E4CC56
:10007E00C0E0C398F8603B94186008400DD0E0FBD8
:10008E000203C1E4FBFAC9FC8028E830E406E4C9A7
:10009E00FBE4CAFCE830E305E4C9CACBFCE854072C
:1000AE006010F8C3E913F9EA13FAEB13FBEC13FC37
:1000BE00D8F130F52FC3E49CFCEF9BFFEE9AFEEDDA
:1000CE0099FDD0E0FBEF4E4D4C701222DB03020384
:1000DE00E6EC2CFCEF33FFEE33FEED33FDED30E7B7
:1000EE00EB0203C1EF2BFFEE3AFEED39FDD0E0FB44
:1000FE0050130BBB00030203E9ED13FDEE13FEEFED
:08010E0013FFEC13FC0203C116
:10011600EC4D6011E8497017ED33EC3304600DE4E3
:10012600FCFFFEFD22E933E8330470F80203DF1218
:1001360003AA58046009E4CC248150062850090219
:1001460003E92840030203E6C0E0EB4A7044B980A5
:1001560006D0E0FB0203D5EF4E701CBD8008EBFF16
:10016600EAFEE9FD80EBE98DF0A4FEE5F00201FF71
:10017600E9CDF9EAFEEBFFEF89F0A4FCE5F0CE89C4
:10018600F0A42EFFE435F0CD89F0A42DFEE435F081
:100196008067EF4E7005BD80D780C3EF8BF0A4ACAF
:1001A600F0EE8BF0A42CFCE435F0F8EF8AF0A42CEA
:1001B600E5F038FCE433CB8DF0A42CFCE5F03BF8FD
:1001C600EE8AF0A42CFCE5F038F8E433CF89F0A4ED
:1001D6002CFCE5F038CF3400CE89F0A42FFFE5F0F3
:1001E6003EFEE433C98DF0A42EFEE5F039CD8AF04B
:1001F600A42FFFE5F03EFEE43DFD33D0E0FB5007C3
:100206000BBB000F0203E9EC2CFCEF33FFEE33FED1
:06021600ED33FD0203C1FF
:10021C000203E9EC5D046005E8590470030203DF96
:10022C001203AA580460F6EC4860F2EC7004FDFE70
:10023C00FF22C860DB2481C85009C39860025006B5
:10024C000203E69850CAF582E9294B4A7005AB8245
:10025C000203D575F0007C1A7880C3EF9BEE9AED03
:10026C0099400DC3EF9BFFEE9AFEED99FDE842F02D
:10027C00DC23ACF0D0E0FFD0E0FED0E0FDAB822080
:10028C00E7101BEB60BAEC2CFCEF33FFEE33FEED0A
:10029C0033FD0203C1E803F830E705C0F075F00048
:1002AC00EF2FFFEE33FEED33FD40B830E7C280AAEE
:1002BC0074F8CC6480CCC86480C8F58204604FC3E9
:1002CC00EB9FF5F0EA9E42F0E99D42F0E89C45F088
:1002DC00603C501DE5825FFFE582D313CB5BCBF412
:1002EC002B5582FB50280ABA002409B9002008803B
:1002FC001DE5825BFBE582D313CF5FCFF4C3132FD5
:10030C005582FF50090EBE00050DBD00010CC3EB5C
:10031C009FF5F0EA9E42F0E99D42F0E89C45F060C2
:09032C0007CC4820E701B3EC22E4
:1003350075F020800E75F010800575F0087D007E43
:10034500007F003392D530D5031204D5EC3340102D
:10035500EF33FFEE33FEED33FDEC33FCD5F0ED224C
:0E036500E5F0247EA2D513CC92E7CDCEFF2288
:10037300EDD2E7CD33EC3392D524814006E4FFFE82
:10038300FDFC22FCE4CFCECDCC24E0501174FF80E1
:10039300EDC3CC13CCCD13CDCE13CECF13CF04707E
:0703A300F030D5DE0204D5A5
:1003AA00E9D2E7C933E833F892D5EDD2E7CD33EC99
:0703BA0033FC5002B2D52212
:1003C100EC30E7100FBF000C0EBE00080DBD00049D
:1003D1000BEB6014A2D5EB13FCED92E7FD2274FF49
:1003E100FCFDFEFF22E480F8A2D574FF13FC7D80A2
:0303F100E480EFB6
:03000000020A5E93
:0C0A5E00787FE4F6D8FD758182020AA5BD
:1003F400BB010689828A83E0225002E722BBFE0207
:09040400E32289828A83E4932239
:10040D00BB010CE58229F582E5833AF583E02250A4
:10041D0006E92582F8E622BBFE06E92582F8E222EE
:0D042D00E58229F582E5833AF583E4932208
:10043A00BB010689828A83F0225002F722BBFE01A1
:02044A00F3229B
:10044C00F8BB010DE58229F582E5833AF583E8F0E6
:10045C00225006E92582C8F622BBFE05E92582C892
:02046C00F2227A
:10046E00EF8DF0A4A8F0CF8CF0A428CE8DF0A42EA2
:02047E00FE225C
:10048000BC000BBE0029EF8DF084FFADF022E4CC60
:10049000F875F008EF2FFFEE33FEEC33FCEE9DEC29
:1004A000984005FCEE9DFE0FD5F0E9E4CEFD22ED6F
:1004B000F8F5F0EE8420D21CFEADF075F008EF2FB9
:1004C000FFED33FD4007985006D5F0F222C398FDAA
:0504D0000FD5F0EA2247
:0E04D500C3E49FFFE49EFEE49DFDE49CFC2238
:0C04E300E6FC08E6FD08E6FE08E6FF2245
:1004EF00D083D082F8E4937012740193700DA3A39C
:1004FF0093F8740193F5828883E473740293B5F0D3
:0D050F00067403936860E9A3A3A3A380D83A
:100A6A00020E2FE493A3F8E493A34003F68001F265
:100A7A0008DFF48029E493A3F85407240CC8C3338D
:100A8A00C4540F4420C8834004F456800146F6DF5C
:100A9A00E4800B0102040810204080900BB6E47E2B
:100AAA00019360BCA3FF543F30E509541FFEE49351
:100ABA00A360010ECF54C025E060A840B8E493A318
:100ACA00FAE493A3F8E493A3C8C582C8CAC583CA43
:100ADA00F0A3C8C582C8CAC583CADFE9DEE780BEFB
:010C110000E2
:00000001FF
