:100542000840000000000000000008320A0A0A0AFF
:100552000A0A0A0A08280000000000000000032519
:0305620013111161
:10058400E53B7039753B011204538F21E524652145
:10059400FF5521F522E521F45FF523852124AF22BF
:1005A4007E00EF64047008053FE53F5401F53FEF1A
:0D05B40064054E7008053DE53D5401F53D20
:0105C1002217
:10023600E53A6003020331753A01120667E4FBFAF8
:100246007920784112000E1201528E488F497F4163
:1002560012070F8F31E53E75F033A4FFAEF07C0038
:100266007D0A1201D38F3012080DE53D147003028A
:100276000306046003020331E53F04F53275360ACE
:1002860075350A75340A75330AE53F7036AE48AFE0
:1002960049FC7D641201D37C007D0A1201D38D379F
:1002A600AE48AF497C007D0A1201D37C007D0A125C
:1002B60001D38D38AE48AF497C007D0A1201D38D3B
:1002C600398065E53175F0648475F00A84AFF0EF26
:1002D60070047F0A80008F37E53175F00A8475F067
:1002E6000A84AFF0EF700AE537640A70047F0A806B
:1002F600008F38E53175F00A8485F039E4F52E2251
:1003060075320B75370A75360A75350A75340A75EE
:10031600330AE53E75F00A8475F00A8485F038E5FF
:0C0326003E75F00A8485F039752E012226
:10033200E53FFB7A007031C3E5499490E5489401AA
:1003420040028032D3E5499464E54894005002802B
:1003520035E549249CFFE54834FFFEEF25E0FFEE3A
:1003620033FE7C007D0F803AAF317E00C3EF94F004
:10037200748094804005753E32802FD3EF940AEE4C
:10038200648094805005753E0A801FEF24F6FFEECC
:1003920034FFFEEF7802C333CE33CED8F9FF7C00B0
:1003A2007D171201D3EF240AF53EEB4A70047F0158
:1003B20080027F008F40E53F640170047F0180026C
:0503C2007F008F4122C5
:1007F800538E7F5389F0758A18758CFCC28DD28C04
:05080800D2A9D2AF22CD
:03000B000204CD1F
:1004CD00C0E0C0F0C083C082C0D075D000C000C0F5
:1004DD0001C002C003C004C005C006C007053BE54E
:1004ED003B640A7002F53B053AE53A64C87002F5C3
:1004FD003A053CE53C64087002F53C7432253CF845
:10050D00E6FD7428253CF8E6FBAF3C1205FC744073
:10051D00253CF8E6FDAF3C1205C2D007D006D0054C
:10052D00D004D003D002D001D000D0D0D082D0835F
:05053D00D0F0D0E03217
:0E08220000007F237E337DB6DDFEDEFCDFFAB4
:0108300022A5
:1007E1001207751207F81208221206671205841201
:0707F100023612033280F50D
:06056500011C00011DFF56
:1005C200ED600FA8077401088002C333D8FC421CF7
:1005D200800EA8077401088002C333D8FCF4521CB1
:1005E200E51C651D6013E51CF4F580E5A0541F446D
:0905F20080F5A053A01F851C1D1B
:0105FB0022DD
:10056B000C08C0F9A4B0999282F88090FFC10814CE
:08057B00010204081020408079
:1005FC007580FFE5A0541F44E0F5A074142FF8E6B5
:10060C00F580E5A0541F44C0F5A053A01F74082D1D
:10061C00F8E6F580EB600353807FE5A0541F44E0BF
:06062C00F5A053A01F22FF
:10045300E4FFC2A9C2C4D2C2D2B5D2B420B3027FD0
:100463000420B2027F0520B1027F0620B0027F077D
:10047300D2C4C2C2D2B5D2B420B3027F0820B20222
:100483007F0920B1027F0A20B0027F0BD2C4D2C2FF
:10049300C2B5D2B420B3027F0C20B2027F0D20B1CB
:1004A300027F0E20B0027F0FD2C4D2C2D2B5C2B433
:1004B30020B3027F1020B2027F1120B1027F1220ED
:0904C300B0027F13D2A975B0FF4D
:0104CC00220D
:100775007580FFE5A0541F4480F5A053A01FE4F544
:0D07850080E5A0541F44A0F5A053A01F2242
:0407AF00D2A07F0550
:1007B300000000000000000000000000000000AE88
:0607C300071FEE70EB229F
:0F083100D2A11207AFC2A17F051207B3C2A02246
:0C084000C2A11207AFD2A17F050207B3CE
:02063200AD0712
:10063400E4FCECC39408748094805024C2A07F0529
:100644001207B3ED30E704D2A18002C2A17F0512E4
:1006540007B3D2A0ED25E0FD7F051207B30C80D2CD
:02066400C2A032
:010666002271
:1006E900E4FCECC394087480948050171207AFEDB2
:1006F90025E0FD30A103430501C2A07F051207B320
:050709000C80DFAF05CC
:01070E0022C8
:0B07920012063212079DAF0312063260
:10079D001207AFA2A1E433FDC2A07F051207B3AFCC
:0107AD000546
:0107AE002228
:1007C900C2A0EF24FF92A17F051207B31207AFC29F
:0807D900A0D2A17F050207B3C5
:02070F00AB0736
:100711001208317F901207921208317F911206322E
:1007210012079D1206E9AD077F011207C9120840A1
:02073100AF0512
:0107330022A3
:10080D00AB071208317F9012063212079D7F4112FD
:05081D000792020840F3
:040757007F057E009C
:10075B00EF1FAA0670011E4A600FE4FDEDC3940C57
:09076B007480948050EA0D80F3C3
:010774002262
:02069B00A907AD
:10069D00E4FBEBC39408748094805012C294E91368
:1006AD009294120757D294E9C313F90B80E47F0596
:0506BD007E0002075B56
:10073400E4FBEBC39408748094805014C294ECC31B
:1007440013FCD2943094034304801207570B80E2C5
:02075400AF04F0
:010756002280
:1006C200C200D2947F0C7E0012075BC2947F507EE0
:1006D2000012075BD2947F0A7E0012075BA29492FB
:0606E20000120757A20000
:0106E80022EF
:100667001206C27FCC12069B7F4412069B1206C25B
:100677007FCC12069B7FBE12069B120734A9071276
:100687000734EFAD01FCEC120119E4FBFA7980782D
:040697003D02000E12
:10000E00EC4D6011E8497017ED33EC3304600DE4EC
:10001E00FCFFFEFD22E933E8330470F80201BE1244
:10002E00018958046009E4CC248150062850090245
:10003E0001C82840030201C5C0E0EB4A7044B980F4
:10004E0006D0E0FB0201B4EF4E701CBD8008EBFF42
:10005E00EAFEE9FD80EBE98DF0A4FEE5F00200F783
:10006E00E9CDF9EAFEEBFFEF89F0A4FCE5F0CE89CD
:10007E00F0A42EFFE435F0CD89F0A42DFEE435F08A
:10008E008067EF4E7005BD80D780C3EF8BF0A4ACB8
:10009E00F0EE8BF0A42CFCE435F0F8EF8AF0A42CF3
:1000AE00E5F038FCE433CB8DF0A42CFCE5F03BF806
:1000BE00EE8AF0A42CFCE5F038F8E433CF89F0A4F6
:1000CE002CFCE5F038CF3400CE89F0A42FFFE5F0FC
:1000DE003EFEE433C98DF0A42EFEE5F039CD8AF054
:1000EE00A42FFFE5F03EFEE43DFD33D0E0FB5007CC
:1000FE000BBB000F0201C8EC2CFCEF33FFEE33FEFE
:06010E00ED33FD0201A02B
:1001140075F020800E75F010800575F0087D007E66
:10012400007F003392D530D503120228EC334010FF
:10013400EF33FFEE33FEED33FDEC33FCD5F0ED226F
:0E014400E5F0247EA2D513CC92E7CDCEFF22AB
:10015200EDD2E7CD33EC3392D524814006E4FFFEA5
:10016200FDFC22FCE4CFCECDCC24E0501174FF8004
:10017200EDC3CC13CCCD13CDCE13CECF13CF0470A1
:07018200F030D5DE02022877
:10018900E9D2E7C933E833F892D5EDD2E7CD33ECBC
:0701990033FC5002B2D52235
:1001A000EC30E7100FBF000C0EBE00080DBD0004C0
:1001B0000BEB6014A2D5EB13FCED92E7FD2274FF6C
:1001C000FCFDFEFF22E480F8A2D574FF13FC7D80C5
:0301D000E480EFD9
:030000000203C731
:0C03C700787FE4F6D8FD75814902040E31
:1001D300BC000BBE0029EF8DF084FFADF022E4CC10
:1001E300F875F008EF2FFFEE33FEEC33FCEE9DECD9
:1001F300984005FCEE9DFE0FD5F0E9E4CEFD22ED1F
:10020300F8F5F0EE8420D21CFEADF075F008EF2F68
:10021300FFED33FD4007985006D5F0F222C398FD59
:050223000FD5F0EA22F6
:0E022800C3E49FFFE49EFEE49DFDE49CFC22E7
:1003D3000207E1E493A3F8E493A34003F68001F258
:1003E30008DFF48029E493A3F85407240CC8C3332B
:1003F300C4540F4420C8834004F456800146F6DFFA
:10040300E4800B0102040810204080900542E47E42
:10041300019360BCA3FF543F30E509541FFEE493EE
:10042300A360010ECF54C025E060A840B8E493A3B5
:10043300FAE493A3F8E493A3C8C582C8CAC583CAE0
:10044300F0A3C8C582C8CAC583CADFE9DEE780BE98
:010583000077
:00000001FF
