:1009A600253032642D253032642D25303264002DF9
:0909B6002D2D2D2D253033640098
:080A05000138000323173B3701
:10096E00120951120003D2AF7B007A0079231207CD
:0C097E00F71209011207921209E580F53A
:03001B0002067268
:10067200C0E0C0F0C083C082C0D075D000C000C04E
:1006820001C002C003C004C005C006C007052CE5B6
:100692002C7002052B640A452B7004F52BF52C05F2
:1006A20028E52870020527FFAE27BE0109BFF40620
:1006B2007527007528000542E54270020541FFAE2C
:1006C20041BE030BBFE80805227541007542007B5D
:1006D200007A007939AD3812088E0538E538B40849
:1006E20003753800AF431209F5D007D006D005D004
:1006F20004D003D002D001D000D0D0D082D083D099
:04070200F0D0E03221
:10090100E52C452B7022752B00752C0112048E8F5E
:1009110026E52A65265526F52985262A600A053702
:09092100E537B40203E4F53722C6
:10079200E5284527705E752700752801E537146046
:1007A2002904703E7B007A007923120849750BFFF9
:1007B200750C09750DA6750E0085230F7510008541
:1007C2002411751200852513800F750BFF750C0916
:1007D200750DB5750E0085220F7B007A00792D12FA
:1007E200007A750B00750C00750D397B007A007963
:0507F2002D12037A2224
:1009E500E53714600704700775430F227543F0223D
:10000300538EBF53890F758B18758DFCC28FD28E9B
:03001300D2AB224B
:1009BF00538E7F5389F0758AF0758CD8C28DD28C87
:0309CF00D2A92288
:100951007580FFE5A0541F4480F5A053A01FE4F566
:0D09610080E5A0541F44A0F5A053A01F2264
:06037A008B088A09890AC4
:10038000E4F50EF50FF50EE50ED3940740030204D5
:100390008DAB08AA09A90A850F827583001205AEE4
:1003A00012060F045A2004552D03EC3003F13103DB
:1003B000F63203FB33040034040535040A36040F17
:1003C00037041438041939041E4104234204284315
:1003D000042D44043245043746043C4804414C048F
:1003E000464E044B500450550000045A7510C0800E
:1003F0006C7510F980677510A480627510B0805D0F
:1004000075109980587510928053751082804E75C2
:1004100010F880497510808044751090803F7510E9
:1004200088803A75108380357510C680307510A1AC
:10043000802B751086802675108E8021751089801E
:100440001C7510C780177510C8801275108C800D30
:100450007510C180087510BF80037510FF850F826D
:10046000758300A3AB08AA09A90A1205AEB42E052C
:1004700053107F050FAB0BAA0CA90D850E82758357
:0D04800000E5101205ED050E050F020387C3
:01048D00224C
:10088E007401A805088002C333D8FCF580E5A05496
:10089E001F44C0F5A053A01F7580FFE5A0541F4450
:1008AE00E0F5A053A01FAF058F827583001205AE31
:0E08BE00F580E5A0541F44E0F5A053A01F22D2
:10048E00C2C4D2C2D2B5D2B4E5B0540F7E00D2C42B
:10049E00C2C2D2B5D2B4C4F8540FC868FFEEC45469
:1004AE00F048FEE5B0540FFDEF4DD2C4D2C2C2B536
:1004BE00D2B4C4F8540FC868FFEEC454F048FEE539
:1004CE00B0540FFDEF4DD2C4D2C2D2B5C2B4C4F8EF
:1004DE00540FC868FFEEC454F048FEE5B0540FFD4B
:1004EE00EF4DF4FFEEF4FEEF8EF0120635058A00A6
:1004FE00010585000205800004057B0008057600D5
:10050E001005710020056C00400567008005620132
:10051E0000055D02000558040005530800054E1045
:10052E00000549200005444000053F8000000005FD
:10053E008F750804804E750805804975080680443D
:10054E00750807803F750808803A7508098035756B
:10055E00080A803075080B802B75080C80267508EC
:10056E000D802175080E801C75080F8017750810F8
:10057E008012750811800D75081280087508138099
:06058E0003E4F508AF08CC
:010594002244
:1009F500EFF4F580E5A0541F4480F5A053A01F2215
:1009D200E4FEC297EF1392A3EFC313FFD2970EBEAA
:0209E20008F01B
:0109E40022F0
:08098A0075F00A84E5F04EFD52
:10099200C29300C29700D293001209D2AF05120986
:0409A200D2C2932208
:1008CC00E4FDC29300C29700D293001209D2E4FF58
:1008DC00C297EDC313FD30A303430580D2970FBF1E
:1008EC0008EEC29300C293C29700D29700C2A30035
:0408FC00D2A3AF05CF
:0109000022D4
:1007F700E4FD7F8E120992120595FF75F00A84C4F5
:1008070054F0FEEF7F8412098A9000011205AEFFB3
:1008170075F00A84C454F0FEEF7F8212098A9000B3
:10082700021205AEFF75F00A84C454F0FEEF75F0AE
:100837000A84E5F04EFD7F801209927D807F8E024B
:02084700099214
:100849007F851208CCEFC4540F75F00AA4FEEF544B
:100859000F2E1205DB7F831208CCEFC4540F75F0FD
:100869000AA4FEEF540F2E9000011205ED7F8112AC
:1008790008CCEFC4540F75F00AA4FEEF540F2E9064
:0508890000020205ED74
:03000000020706EE
:0C070600787FE4F6D8FD75814302074DB2
:10059500BB010689828A83E0225002E722BBFE0264
:0905A500E32289828A83E4932297
:1005AE00BB010CE58229F582E5833AF583E0225002
:1005BE0006E92582F8E622BBFE06E92582F8E2224C
:0D05CE00E58229F582E5833AF583E4932266
:1005DB00BB010689828A83F0225002F722BBFE01FF
:0205EB00F322F9
:1005ED00F8BB010DE58229F582E5833AF583E8F044
:1005FD00225006E92582C8F622BBFE05E92582C8F0
:02060D00F222D7
:10060F00D083D082F8E4937012740193700DA3A37A
:10061F0093F8740193F5828883E47374029368608E
:06062F00EFA3A3A380DF8E
:10063500D083D082F8E4937012740193700DA3A354
:1006450093F8740193F5828883E473740293B5F08B
:0D065500067403936860E9A3A3A3A380D8F3
:10001E00E517240BF8E60517227808300702780B4F
:10002E00E475F0011206620205952000EB7F2ED2D8
:10003E00008018EF540F2490D43440D4FF30040BBA
:10004E00EF24BFB41A0050032461FFE518600215B7
:10005E0018051BE51B7002051A30070D7808E475AC
:10006E00F001120662EF0205DB02092A7403D207C1
:10007E008003E4C207F5178B088A09890AE4F5188C
:10008E00F51AF51BE51860077F2012005980F575EB
:10009E0019FFC201C200C202C203C205C206C208D3
:1000AE00120027FF700D3007057F0012006AAF1B8C
:1000BE00AE1A22B4255FC2D5C204120027FF24D087
:1000CE00B40A00501A75F00A781830D50508B6FF34
:1000DE000106C6A426F620D5047002D20380D924C8
:1000EE00CFB41A00EF5004C2E5D20402026AD20164
:1000FE0080C6D20080C0D20280BCD2D580BAD205D2
:10010E0080B47F201200592002077401B5180040F8
:10011E00F112001EFF120059020092D208D2068080
:10012E009512001EFB12001EFA12001EF94A4B70A9
:10013E0006793B7A037BFF20022EE518602A7E00AB
:10014E008E827583001205AE60060EEE651970F094
:10015E00C2D5EBC0E0EAC0E0E9C0E0EE1202B1D0D9
:10016E00E0F9D0E0FAD0E0FB120595FF60AAEBC0F3
:10017E00E0EAC0E0E9C0E0120059D0E02401F9D075
:10018E00E03400FAD0E0FBE5190460DCD519D98023
:10019E00877BFF7A0279ADD202809C79108002793A
:1001AE0008C206C2088008D2D5790A8004790AC22C
:1001BE00D5E519047002F519E4FAFDFEFF12001ED2
:1001CE00FC7B0820011312001EFD7B1030000A126A
:1001DE00001EFE12001EFF7B20EC3382D592D550FE
:1001EE0013C3E43000069FFFE49EFEE42001039D4E
:1001FE00FDE49CFCE4CBF8C201EC700CCFCECDCC70
:10020E00E824F8F870F38017C3EF33FFEE33FEEDFA
:10021E0033FDEC33FCEB33FB994002FB0FD8E9EBDB
:10022E00300105F8D0E0C448B201C0E00AEC4D4EF2
:10023E004F78207B0070C2EAB5190040BCC0E012B6
:10024E0002B3D0F0D0E0200104C4C0E0C4B201C0BB
:10025E00F0120042D0F0D5F0EB02009212060F0120
:10026E002F5301A95801004C00FC4201AD4F01B5BE
:0F027E004401B54901154301BB55019F46019F3E
:10028D0045019F47035B5001042D01082E012B2BC7
:10029D00010C2301292003442A00C4480000012336
:1002AD003F3F3F00790AA2D5200314300509B9104C
:1002BD00020404B9080104A2D5200602500104204D
:1002CD0002689202B518005034C0E07F2030031947
:1002DD007F30A20272067205500F12030AC202C2CB
:1002ED0006C205C2087F30800F300503E9C0E01259
:1002FD000059300503D0E0F9D0E0B518CC30051722
:10030D007F30B9100C1200597F583004077F788068
:10031D0003B908031200593002057F2D0200597FE1
:10032D00202008F87F2B2006F322920280CF286E22
:10033D00756C6C2900D20112001E3001F8C20178D3
:10034D001830D50108F60200C42D5043495812004B
:10035D001E2403B405004001E49003569312004A95
:0D036D00743A12004AD2037518040201A967
:1007120002096EE493A3F8E493A34003F68001F286
:1007220008DFF48029E493A3F85407240CC8C333E8
:10073200C4540F4420C8834004F456800146F6DFB7
:10074200E4800B0102040810204080900A05E47E38
:10075200019360BCA3FF543F30E509541FFEE493AC
:10076200A360010ECF54C025E060A840B8E493A373
:10077200FAE493A3F8E493A3C8C582C8CAC583CA9E
:10078200F0A3C8C582C8CAC583CADFE9DEE780BE56
:010A0D0000E8
:10066200FAE6FB0808E6F925F0F618E6CA3AF62299
:10092A00EFB40A07740D120935740A309811A899A0
:10093A00B8130CC2983098FDA899C298B811F6302D
:07094A0099FDC299F5992205
:00000001FF
