:0707F000253038750D0A00E9
:1006E40012078D1207AA1207BF750BFF750C077549
:1006F4000DF0750E00853F0F7B007A0079331200F0
:1007040082750B00750C00750D297B007A00793316
:0807140012050012071C80D140
:03001B00020612C8
:10061200C0E0C0F0C083C082C0D075D000C000C0AE
:1006220001C002C003C004C005C006C007E52824FB
:1006320001F528E43527F527E43526F526E43525A6
:10064200F525E47BE87A03F9F8AF28AE27AD26ACAE
:1006520025120426AC00AD01AE02AF03EC4D4E4FA5
:100662007012F528F527F526F525053F633E01AF03
:100672003E1207D47B007A007929AD231206A60523
:1006820023E523B40803752300D007D006D005D094
:1006920004D003D002D001D000D0D0D082D083D0F9
:0406A200F0D0E03282
:10071C00E524653F600C853F247B007A0079331219
:10072C000003E522B4020FE53175F00AA42532244A
:07073C00F0F53FE4F5222275
:0300230002076A67
:10076A00C0E0C0D075D000C000C00730980CAF22DE
:10077A00052274312FF8A699C298D007D000D0D09C
:03078A00D0E0328A
:10078D007580FFE5A0541F4480F5A053A01FE4F52C
:0D079D0080E5A0541F44A0F5A053A01F222A
:1007D400EFF4F580E5A0541F4480F5A053A01F2238
:1007AA00538EBF53890F758B18758DFCC28FD28EED
:0507BA00D2ABD2AF221A
:060500008B088A09890A3C
:10050600E4F50FF50EE50EC394084003020611ABA1
:1005160008AA09A90A850F8275830012039B120493
:10052600B805DE2005D92D057030057531057A32FE
:10053600057F33058434058935058E3605933705E1
:100546009838059D3905A24105A74205AC4305B17A
:100556004405B64505BB4605C04805C54C05CA4E0B
:1005660005CF5005D455000005DE7510C0806C75AA
:1005760010F980677510A480627510B0805D7510E3
:100586009980587510928053751082804E7510F8B8
:1005960080497510808044751090803F7510888062
:1005A6003A75108380357510C680307510A1802B82
:1005B600751086802675108E8021751089801C75B1
:1005C60010C780177510C8801275108C800D7510B5
:1005D600C180087510BF80037510FF850F82758373
:1005E60000A3AB08AA09A90A12039BB42E0553104F
:1005F6007F050FAB0BAA0CA90D850E82758300E54E
:0B060600101203C8050E050F02050BC3
:0106110022C6
:1006A6007580FFE5A0541F44E0F5A053A01F740118
:1006B600A805088002C333D8FCF580E5A0541F4482
:1006C600C0F5A053A01FAF058F8275830012039B50
:0E06D600F580E5A0541F44E0F5A053A01F22BC
:1007BF00759850438E01438E0475D78F75D6FD43C0
:0507CF008E10D2AC22E7
:100003001203826010F5993099FDC299740129F9A0
:06001300E43AFA80EB2242
:030000000207E410
:0C07E400787FE4F6D8FD75813F0206E442
:10038200BB010689828A83E0225002E722BBFE0279
:09039200E32289828A83E49322AC
:10039B00BB010CE58229F582E5833AF583E0225017
:1003AB0006E92582F8E622BBFE06E92582F8E22261
:0D03BB00E58229F582E5833AF583E493227B
:1003C800F8BB010DE58229F582E5833AF583E8F06B
:1003D800225006E92582C8F622BBFE05E92582C817
:0203E800F222FF
:1003EA0075F008758200EF2FFFEE33FECD33CDCCCA
:1003FA0033CCC58233C5829BED9AEC99E58298404D
:10040A000CF582EE9BFEED9AFDEC99FC0FD5F0D629
:10041A00E4CEFBE4CDFAE4CCF9A88222B800C1B953
:10042A000059BA002DEC8BF084CFCECDFCE5F0CB91
:10043A00F97818EF2FFFEE33FEED33FDEC33FCEBCA
:10044A0033FB10D703994004EB99FB0FD8E5E4F985
:10045A00FA227818EF2FFFEE33FEED33FDEC33FC72
:10046A00C933C910D7059BE99A4007EC9BFCE99A66
:10047A00F90FD8E0E4C9FAE4CCFB2275F010EF2FAB
:10048A00FFEE33FEED33FDCC33CCC833C810D707AB
:10049A009BEC9AE899400AED9BFDEC9AFCE899F8E6
:0E04AA000FD5F0DAE4CDFBE4CCFAE4C8F92279
:1004B800D083D082F8E4937012740193700DA3A3D3
:1004C80093F8740193F5828883E4737402936860E7
:0604D800EFA3A3A380DFE7
:10002600E517240BF8E60517227808300702780B47
:10003600E475F0011204F00203822000EB7F2ED259
:10004600008018EF540F2490D43440D4FF30040BB2
:10005600EF24BFB41A0050032461FFE518600215AF
:1000660018051BE51B7002051A30070D7808E475A4
:10007600F0011204F0EF0204DE0207437403D20714
:100086008003E4C207F5178B088A09890AE4F51884
:10009600F51AF51BE51860077F2012006180F575DB
:1000A60019FFC201C200C202C203C205C206C208CB
:1000B60012002FFF700D3007057F00120072AF1B74
:1000C600AE1A22B4255FC2D5C20412002FFF24D077
:1000D600B40A00501A75F00A781830D50508B6FF2C
:1000E6000106C6A426F620D5047002D20380D924C0
:1000F600CFB41A00EF5004C2E5D204020272D20154
:1001060080C6D20080C0D20280BCD2D580BAD205C9
:1001160080B47F201200612002077401B5180040E8
:10012600F1120026FF12006102009AD208D2068060
:1001360095120026FB120026FA120026F94A4B7089
:100146000679437A037BFF20022EE518602A7E009B
:100156008E8275830012039B60060EEE651970F0A1
:10016600C2D5EBC0E0EAC0E0E9C0E0EE1202B9D0C9
:10017600E0F9D0E0FAD0E0FB120382FF60AAEBC000
:10018600E0EAC0E0E9C0E0120061D0E02401F9D065
:10019600E03400FAD0E0FBE5190460DCD519D9801B
:1001A600877BFF7A0279B5D202809C79108002792A
:1001B60008C206C2088008D2D5790A8004790AC224
:1001C600D5E519047002F519E4FAFDFEFF120026C2
:1001D600FC7B08200113120026FD7B1030000A125A
:1001E6000026FE120026FF7B20EC3382D592D550E6
:1001F60013C3E43000069FFFE49EFEE42001039D46
:10020600FDE49CFCE4CBF8C201EC700CCFCECDCC67
:10021600E824F8F870F38017C3EF33FFEE33FEEDF2
:1002260033FDEC33FCEB33FB994002FB0FD8E9EBD3
:10023600300105F8D0E0C448B201C0E00AEC4D4EEA
:100246004F78207B0070C2EAB5190040BCC0E012AE
:1002560002BBD0F0D0E0200104C4C0E0C4B201C0AB
:10026600F012004AD0F0D5F0EB02009A1204B80161
:10027600375301B15801084C01044201B54F01BD85
:0F0286004401BD49011D4301C35501A74601A70E
:100295004501A747036350010C2D01102E01332B97
:1002A500011423013120034C2A00CC480000012B06
:1002B5003F3F3F00790AA2D5200314300509B91044
:1002C500020404B9080104A2D52006025001042045
:1002D50002689202B518005034C0E07F203003193F
:1002E5007F30A20272067205500F120312C202C2BB
:1002F50006C205C2087F30800F300503E9C0E01251
:100305000061300503D0E0F9D0E0B518CC30051711
:100315007F30B9100C1200617F583004077F788058
:1003250003B908031200613002057F2D0200617FC9
:10033500202008F87F2B2006F322920280CF286E1A
:10034500756C6C2900D2011200263001F8C20178C3
:100355001830D50108F60200CC2D5043495812003B
:10036500262403B405004001E490035E9312005275
:0D037500743A120052D2037518040201B14F
:1004DE00BB010689828A83F0225002F722BBFE01FD
:0204EE00F322F7
:1004F000FAE6FB0808E6F925F0F618E6CA3AF6220D
:10074300EFB40A07740D12074E740A309811A89972
:10075300B8130CC2983098FDA899C298B811F63016
:0707630099FDC299F59922EE
:00000001FF
