:1012EB00433A252E31660D0A00443A252E3266709C
:0D12FB00706D0D0A004F766572210D0A001E
:100FBB0008810A0A0A0A0A0A0A0A087900000000CC
:0E0FCB00000000000889000000000000000087
:10100400E543703C754301120E7A8F44E542654412
:10101400FF5544F541E544F45FF546854442E54116
:10102400B40405A209B39209A209E4FC33FDAF415B
:101034007E001205F6EF64054E7005A20BB3920B09
:011044002289
:100B3D00E540853FF01206A10B5100C80B810190D5
:100B4D0000000B940540E5407002053F7F431212F3
:100B5D0017AC07E412024FE4FBFA794C784212010C
:100B6D002FE4FBFAF978401200268F258E248D2371
:100B7D008C2280130540E5407002053F1211308F25
:100B8D003D8E3C8D3B8C3A7881760BA20BE4330481
:100B9D0008F6200B4C7885760AAF3DAE3CAD3BACEC
:100BAD003A120283EF75F00A8475F00A847886A6EE
:100BBD00F0EF75F00A8408A6F0E4FFFE7D207C417D
:100BCD00AB3DAA3CA93BA83A1200261202837C0039
:100BDD007D0A1206087888A605787F7601E418F656
:100BED0022AF25AE24AD23AC22120283A907E975ED
:100BFD00F00A8475F00A84E5F060047F0180027FBD
:100C0D000A7885A607E975F00A8408A6F0E4FFFEC8
:100C1D007DC87C42AB25AA24A923A8221200261246
:100C2D000283AB07AA067C007D0A1206087C007DB4
:100C3D000A1206087887A6057C007D0AAF03AE026E
:0F0C4D001206087888A605E4787FF6187601224B
:100EF600A209E4337889F6200B047F0180027F0083
:100F0600788AA607A20BE43308F6E4FFFE7DD07CC0
:100F160041AB3DAA3CA93BA83A1201CC6002501451
:100F2600E4FFFE7DA07C41AB3DAA3CA93BA83A125A
:100F360001CC50047F0180027F00788CA607A20AAC
:100F4600E4337890F6E4FFFE7D407C40AB25AA248E
:100F5600A923A8221201CC50047F0180027F00A29F
:080F660009E4335FFF0212AA47
:100D5700E53E6003020DED753E01E549D394005071
:100D670003020DED30097CE54964067028E532641D
:100D77004F7070E5336470706AE53464657064E5DC
:100D870035646E705EE536640D7058E537640A7039
:100D970052D20A804EE54964017048E532B43117F2
:100DA7007550FF7551127552EB853D56853C55853B
:100DB7003B54853A53801AE532B4321E7550FF759D
:100DC70051127552F485255685245585235485225D
:100DD700537B007A00792612072A7B007A0079264E
:070DE700121262E4F549223B
:10000E00538E7F5389F0758A18758CFCC28DD28CF5
:05001E00D2A9D2AF22BF
:03000B00020C5C88
:100C5C00C0E0C0F0C083C082C0D075D000C000C05E
:100C6C0001C002C003C004C005C006C0070543E5AF
:100C7C0043B40A037543000540E5407002053FFF8D
:100C8C00AE3FBE0109BFF406753F00754000053E3E
:100C9C00E53EB4C803753E000545E545B40803754B
:100CAC00450074812545F8E6FD7C00A209E4FE337D
:100CBC00FF1205F6AA06AB072009047F0180027F0C
:100CCC00007E007C007D0A1205F6EB2FF582EA3ED1
:100CDC00F58374792545F8E6FF7E00A209E433FD1F
:100CEC001205F6AA06AB07AD82AC83AF451210BD58
:100CFC0074892545F8E6FF7E00A209E4FC33FD1259
:100D0C0005F6AC06AD07AF45121082300A22054835
:100D1C00E54870020547FFAE47BE0B14BFB811750E
:100D2C004700754800C20A7BFF7A137900121262E1
:100D3C00D007D006D005D004D003D002D001D0000B
:0B0D4C00D0D0D082D083D0F0D0E032B5
:0300230002123D89
:10123D00C0E0C0D075D000C000309812E549C3940D
:10124D0009500B74322549F8A6990549C298D0006A
:05125D00D0D0D0E0320A
:10119800121308121130E4FBFA79AA78421201CC32
:1011A80060F11211308F3D8E3C8D3B8C3A12000E4F
:1011B800121377121004120B3D120EF6120D5780FF
:0111C800F234
:100FD900016900016AFF016B00016CFF016D0001ED
:020FE9006EFF99
:10108200ED4C600F7401A807088002C333D8FC42FC
:1010920069800E7401A807088002C333D8FCF45299
:1010A20069E569656A6013E569F4F580E5A0541F96
:0A10B2004480F5A053A01F85696A71
:0110BC002211
:10128700EF6005436B408003536BBFE56B656C6094
:1012970011856B80E5A0541F44A0F5A053A01F85BE
:0212A7006B6C6E
:0112A9002222
:1012AA00EF6005436D108003536DEFE56D656E6069
:1012BA0011856D80E5A0541F44A0F5A053A01F8599
:0212CA006D6E47
:0112CC0022FF
:100FEB000C08C0F9A4B0999282F88090FFC1081444
:080FFB000102040810204080EF
:1010BD007580FFE5A0541F44E0F5A053A01F7414E4
:1010CD002FF8E6F580E5A0541F44C0F5A053A01FEE
:1010DD0074082DF8E6F580EB4A600353807FE5A098
:0A10ED00541F44E0F5A053A01F2299
:100E7A00E4FF538EEFC2C4D2C2D2B5D2B420B302B9
:100E8A007F0420B2027F0520B1027F0620B0027FD4
:100E9A0007D2C4C2C2D2B5D2B420B3027F0820B2EC
:100EAA00027F0920B1027F0A20B0027F0BD2C4D28E
:100EBA00C2C2B5D2B420B3027F0C20B2027F0D2089
:100ECA00B1027F0E20B0027F0FD2C4D2C2D2B5C205
:100EDA00B420B3027F1020B2027F1120B1027F1228
:0B0EEA0020B0027F1375B0FF438E1094
:010EF50022DA
:101308007580FFE5A0541F4480F5A053A01FE4F5A5
:0D13180080E5A0541F44A0F5A053A01F22A3
:10137700759850438E01438E0475D7C775D6FE43C3
:071387008E10D2ACD2AF22A0
:080003008F993099FDC299228A
:101262008B4D8A4E894FAB4DAA4EA94F12059E60F7
:1012720013054FE54F7002054E14F912059EFF1239
:05128200000380E222E0
:0413A5007F057E0042
:1013A9007C007D0C1205F6EF1FAC0670011E4C7017
:0213B900F6221A
:0212CD00AB076D
:1012CF00E4FAC294EB1392941213A5D294EBC313C6
:0C12DF00FB0ABA08ED7F057E000213A98F
:10135D00E4FAC294EBC313FBD2943094034303809D
:09136D001213A50ABA08EBAF0344
:011376002254
:1011C900C200D2947F0C7E001213A9C2947F507E74
:1011D900001213A9D2947F0A7E001213A9A2949235
:0611E900001213A5A20094
:0111EF0022DD
:101130001211C97FCC1212CD7F441212CD1211C9E7
:101140007FCC1212CD7FBE1212CD12135DA90712F1
:10115000135DEFAD01FCE412024AE4FBFA798078FA
:041160004112012F08
:011164002268
:0614090000007F21DFFE60
:01140F0022BA
:1013D100E4FED290121409C2901214090EBE08F252
:0113E10022E9
:1010F70053890FE4F58BF58D1213D1D28E309103FE
:10110700308FFAC28E208F1CAF8DEFFEAD8BEDFFB7
:10111700AC06E412024A7B967A43798B783C12003C
:0811270026020283C28F7F0043
:01112F00229D
:0413F100D2A07F0502
:0813F50000AE071FEE70F922A3
:0F13E200D2A11213F1C2A17F051213F5C2A022EE
:0C13FD00C2A11213F1D2A17F050213F56A
:10138E00C2A0A20092A17F051213F51213F1C2A002
:07139E00D2A17F050213F547
:0A134200AB071213E27F9012116C4A
:10134C001213F1A2A19200C2A07F051213F5A20004
:01135C00226E
:07116500AB051213E27FA0AD
:02116C00AD07CD
:10116E00E4FCC2A07F051213F5ED30E704D2A18096
:10117E0002C2A17F051213F5D2A0ED25E0FD7F0579
:09118E001213F50CBC08DBC2A031
:011197002235
:10132500E4FC1213F1ED25E0FD30A103430501C2F4
:0C133500A07F051213F50CBC08E8AF0502
:011341002289
:10121700121342AF0312116C12134C1213E27F9197
:1012270012116C12134C121325AD07D20012138E34
:051237001213FDAF05DC
:01123C00228F
:1013BB001213427F4112116C12134CAF0312116CBA
:0613CB0012134C0213FD99
:101045008B6F8A70897112116512134CAF031211DF
:101055006C12134CAF731573EF601FAB6F0571E521
:1010650071AA707002057014F912059EFF12116CB9
:0D10750012134C7FC81213F580DA0213FD30
:100F6E008B748A75897612116512134CAF031211A8
:100F7E006C12134C1213E27FA112116C12134CAFB0
:100F8E00781578EF6024121325AB740576E576AAF2
:100F9E00757002057514F9EF1205E4E5786004C268
:0D0FAE00008002D20012138E80D50213FDC8
:10002600EC4D6011E8497017ED33EC3304600DE4D4
:10003600FCFFFEFD22E933E8330470F80202EF12FA
:1000460002BA58046009E4CC2481500628500902FB
:1000560002F92840030202F6C0E0EB4A7044B98078
:1000660006D0E0FB0202E5EF4E701CBD8008EBFFF8
:10007600EAFEE9FD80EBE98DF0A4FEE5F002010F52
:10008600E9CDF9EAFEEBFFEF89F0A4FCE5F0CE89B5
:10009600F0A42EFFE435F0CD89F0A42DFEE435F072
:1000A6008067EF4E7005BD80D780C3EF8BF0A4ACA0
:1000B600F0EE8BF0A42CFCE435F0F8EF8AF0A42CDB
:1000C600E5F038FCE433CB8DF0A42CFCE5F03BF8EE
:1000D600EE8AF0A42CFCE5F038F8E433CF89F0A4DE
:1000E6002CFCE5F038CF3400CE89F0A42FFFE5F0E4
:1000F6003EFEE433C98DF0A42EFEE5F039CD8AF03C
:10010600A42FFFE5F03EFEE43DFD33D0E0FB5007B3
:100116000BBB000F0202F9EC2CFCEF33FFEE33FEB3
:06012600ED33FD0202D1E1
:10012C000202F9EC5D046005E8590470030202EF69
:10013C001202BA580460F6EC4860F2EC7004FDFE52
:10014C00FF22C860DB2481C85009C39860025006A6
:10015C000202F69850CAF582E9294B4A7005AB8227
:10016C000202E575F0007C1A7880C3EF9BEE9AEDE5
:10017C0099400DC3EF9BFFEE9AFEED99FDE842F01E
:10018C00DC23ACF0D0E0FFD0E0FED0E0FDAB822071
:10019C00E7101BEB60BAEC2CFCEF33FFEE33FEEDFB
:1001AC0033FD0202D1E803F830E705C0F075F0002A
:1001BC00EF2FFFEE33FEED33FD40B830E7C280AADF
:1001CC0074F8CC6480CCC86480C8F58204604FC3DA
:1001DC00EB9FF5F0EA9E42F0E99D42F0E89C45F079
:1001EC00603C501DE5825FFFE582D313CB5BCBF403
:1001FC002B5582FB50280ABA002409B9002008802C
:10020C001DE5825BFBE582D313CF5FCFF4C3132FC5
:10021C005582FF50090EBE00050DBD00010CC3EB4D
:10022C009FF5F0EA9E42F0E99D42F0E89C45F060B3
:09023C0007CC4820E701B3EC22D5
:1002450075F020800E75F010800575F0087D007E34
:10025500007F003392D530D50312065DEC33401094
:10026500EF33FFEE33FEED33FDEC33FCD5F0ED223D
:0E027500E5F0247EA2D513CC92E7CDCEFF2279
:10028300EDD2E7CD33EC3392D524814006E4FFFE73
:10029300FDFC22FCE4CFCECDCC24E0501174FF80D2
:1002A300EDC3CC13CCCD13CDCE13CECF13CF04706F
:0702B300F030D5DE02065D0C
:1006CE00E5642450F8E6056422784D300702785030
:1006DE00E475F00112066B02059E2000EB7F2ED210
:1006EE00008018EF540F2490D43440D4FF30040B04
:1006FE00EF24BFB41A0050032461FFE565600215B4
:10070E00650568E5687002056730070D784DE4757C
:10071E00F00112066BEF0205E40211F07403D2072A
:10072E008003E4C207F5648B4D8A4E894FE4F5656C
:10073E00F567F568E56560077F2012070980F57596
:10074E0066FFC201C200C202C203C205C206C208CF
:10075E001206D7FF700D3007057F0012071AAF681B
:10076E00AE6722B4255FC2D5C2041206D7FF24D0CD
:10077E00B40A00501A75F00A786530D50508B6FF30
:10078E000106C6A426F620D5047002D20380D92411
:10079E00CFB41A00EF5004C2E5D204020A07D20108
:1007AE0080C6D20080C0D20280BCD2D580BAD2051B
:1007BE0080B47F201207092002077401B56500403E
:1007CE00F11206CEFF120709020742D208D20680A6
:1007DE00951206CEFB1206CEFA1206CEF94A4B70D1
:1007EE000679FE7A0A7BFF20022EE565602A7E00DE
:1007FE008E827583001205B760060EEE656670F088
:10080E00C2D5EBC0E0EAC0E0E9C0E0EE120A67D064
:10081E00E0F9D0E0FAD0E0FB12059EFF60AAEBC033
:10082E00E0EAC0E0E9C0E0120709D0E02401F9D007
:10083E00E03400FAD0E0FBE5660460DCD566D980D2
:10084E0087D20280A2120A4A60F7E566700104128E
:10085E000304A966600DE566600914F566120AF1D7
:10086E00EF60F3EA30E702F404C3995077EAF42517
:10087E00660430E701E404F566800D120A4A60C191
:10088E00EA05662566120304EA7863F630E701E4AA
:10089E00256604D5660420050114120A67E4C0E03B
:1008AE00120AF17863E6601320E70714F61206F1D8
:1008BE00802204F6D0E014C0E07F001206F1E56657
:1008CE0060071206E81566800B3005031206E8D0A5
:1008DE00E0020742D0E00480C5120A4A60A0E56635
:1008EE00041203047863EAF6E5662005026001044B
:0508FE002404120A674A
:1009030074FF04C0E0120AF11206F1E56620050245
:1009130060031206E8D0E0B566E87F451206FB786F
:1009230063E67F2B30E7047F2DF404C0E012070950
:10093300D0E075F00A84C0F01206F2D0E01206F29D
:10094300020742791080027908C206C2088008D2E1
:10095300D5790A8004790AC2D5E566047002F56682
:10096300E4FAFDFEFF1206CEFC7B082001131206FB
:10097300CEFD7B1030000A1206CEFE1206CEFF7BA0
:1009830020EC3382D592D55013C3E43000069FFF89
:10099300E49EFEE42001039DFDE49CFCE4CBF8C24D
:1009A30001EC700CCFCECDCCE824F8F870F38017AF
:1009B300C3EF33FFEE33FEED33FDEC33FCEB33FBE0
:1009C300994002FB0FD8E9EB300105F8D0E0C448A9
:1009D300B201C0E00AEC4D4E4F78207B0070C2EAB2
:1009E300B5660040BCC0E0120A69D0F0D0E0200137
:1009F30004C4C0E0C4B201C0F01206F2D0F0D5F0D6
:100A0300EB02074212067B07DF5309465807B04C37
:100A130007AC42094A4F09524409524907C54309E1
:100A2300585508894608E7450853470B1E5007B435
:100A33002D07B82E07DB2B07BC2307D9200B072A6A
:100A4300077448000007D3E566B4FF037566061212
:100A530006CEFC1206CEFD1206CEFE1206CEFF789F
:100A63005C020333790AA2D5200314300509B910B7
:100A7300020404B9080104A2D5200602500104208F
:100A830002689202B565005034C0E07F203003193C
:100A93007F30A20272067205500F120AC0C202C250
:100AA30006C205C2087F30800F300503E9C0E0129B
:100AB3000709300503D0E0F9D0E0B565CC30051760
:100AC3007F30B9100C1207097F583004077F7880F4
:100AD30003B908031207093002057F2D0207097FB6
:100AE300202008F87F2B2006F322920280CF7F007C
:100AF300B407005005245CF8E6FF22286E756C6C81
:100B03002900D2011206CE3001F8C201786530D532
:100B13000108F60207742D504349581206CE2403E8
:100B2300B405004001E4900B19931206FA743A12CB
:0A0B330006FAD203756504020946B4
:1002BA00E9D2E7C933E833F892D5EDD2E7CD33EC8A
:0702CA0033FC5002B2D52203
:1002D100EC30E7100FBF000C0EBE00080DBD00048E
:1002E1000BEB6014A2D5EB13FCED92E7FD2274FF3A
:1002F100FCFDFEFF22E480F8A2D574FF13FC7D8093
:03030100E480EFA6
:10030400F920E72824F950037907E4F42402FB18C0
:10031400DBFDE624FB5014E9600DE4F618E604F670
:0F032400B40A08E4F6D9F57401F60A22C2D5220C
:10033300ED33EC3392D5FA602AB4FF33EDC2E77B99
:10034300FF60067A037958E4227A03796120D504A1
:100353007A03795C224E614E002B494E46002D49AB
:100363004E4600E47A08F608DAFC7B00740722E8BC
:10037300C0E0ECC0E0EDC0E0EEC0E0EFC0E0EA7545
:10038300F010A4CAABF075F04DA42BFBE435F0FCE0
:10039300EA2410FAEB34C5FBEC34D9FCEDC2E7FFD9
:1003A30075F056A4F42411C5F0F434C58FF0A42AD3
:1003B300E5F03BE43CF620E71412055ED0E0FFD005
:1003C300E0FED0E0FDD0E0FC12012F8014F4041213
:1003D300055ED0E0FFD0E0FED0E0FDD0E0FC1200EF
:1003E30026D0E0F8E6FAEDD2E7CD33EC332482FBF6
:1003F300E4C3CF33CFCE33CECD33CD33DBF37B0763
:1004030075F00A846004F6081B0AE5F0F6088FF01D
:10041300740AA4FFACF08EF0740AA42CFEACF05066
:10042300010C8DF0740AA42CFDE435F0F608DBDE34
:0304330074072229
:100436000202EFE86480F8E933E83360110460F003
:10044600ED33EC337009E8FCE9FDEAFEEBFF22042C
:1004560060DED3EB9FEA9EE99DE8C2E78CF0C2F727
:1004660095F0400CE8CCF8E9CDF9EACEFAEBCFFBF3
:100476001202BA85D0F05804700320D5B3E8047090
:10048600075002B2D50202F992D5EC0460F7E4CC2B
:10049600C0E0C398F8603B94186008400DD0E0FBBC
:1004A6000202D1E4FBFAC9FC8028E830E406E4C97C
:1004B600FBE4CAFCE830E305E4C9CACBFCE8540710
:1004C6006010F8C3E913F9EA13FAEB13FBEC13FC1B
:1004D600D8F130F52FC3E49CFCEF9BFFEE9AFEEDBE
:1004E60099FDD0E0FBEF4E4D4C701222DB03020269
:1004F600F6EC2CFCEF33FFEE33FEED33FDED30E78B
:10050600EB0202D1EF2BFFEE3AFEED39FDD0E0FB18
:1005160050130BBB00030202F9ED13FDEE13FEEFC1
:0805260013FFEC13FC0202D1EB
:10052E003F8000004120000042C80000447A0000D5
:10053E00461C400047C35000497424004B18968057
:10054E004CBEBC205A0E1BCA6753C21C749DC5AE4E
:10055E00FB60065407601C232312058CEB54386095
:10056E0009120578120587120026ECF8EDF9EEFA5D
:10057E00EFCB22EB12058780F1543803241C900533
:10058E002EFE93FC0EEE93FD0EEE930ECE93FF22F7
:03000000020DEE00
:0C0DEE00787FE4F6D8FD758190020E3588
:10059E00BB010689828A83E0225002E722BBFE025B
:0905AE00E32289828A83E493228E
:1005B700BB010CE58229F582E5833AF583E02250F9
:1005C70006E92582F8E622BBFE06E92582F8E22243
:0D05D700E58229F582E5833AF583E493225D
:1005E400BB010689828A83F0225002F722BBFE01F6
:0205F400F322F0
:1005F600EF8DF0A4A8F0CF8CF0A428CE8DF0A42E19
:02060600FE22D2
:10060800BC000BBE0029EF8DF084FFADF022E4CCD6
:10061800F875F008EF2FFFEE33FEEC33FCEE9DEC9F
:10062800984005FCEE9DFE0FD5F0E9E4CEFD22EDE5
:10063800F8F5F0EE8420D21CFEADF075F008EF2F2F
:10064800FFED33FD4007985006D5F0F222C398FD20
:050658000FD5F0EA22BD
:0E065D00C3E49FFFE49EFEE49DFDE49CFC22AE
:10066B00FAE6FB0808E6F925F0F618E6CA3AF62290
:10067B00D083D082F8E4937012740193700DA3A30E
:10068B0093F8740193F5828883E473740293686022
:06069B00EFA3A3A380DF22
:1006A100D083D082F8E4937012740193700DA3A3E8
:1006B10093F8740193F5828883E473740293B5F01F
:0D06C100067403936860E9A3A3A3A380D887
:1011F000EFB40A07740D1211FB740A309811A89904
:10120000B8130CC2983098FDA899C298B811F6305E
:0712100099FDC299F5992236
:100DFA00021198E493A3F8E493A34003F68001F266
:100E0A0008DFF48029E493A3F85407240CC8C333F9
:100E1A00C4540F4420C8834004F456800146F6DFC8
:100E2A00E4800B0102040810204080900FBBE47E8E
:100E3A00019360BCA3FF543F30E509541FFEE493BD
:100E4A00A360010ECF54C025E060A840B8E493A384
:100E5A00FAE493A3F8E493A3C8C582C8CAC583CAAF
:100E6A00F0A3C8C582C8CAC583CADFE9DEE780BE67
:0110030000EC
:00000001FF
