:1001EA00083A0000000000000000082E050A0A0A6A
:0E01FA000A0A0A0A08260000000000000000A1
:10045500E537701A7537011201148F21E5246521DE
:0E046500FF5521F522E521F45FF523852124C2
:010473002266
:10018E00E53670577536017F411203A38F387F43D2
:10019E001203A38F42E53875F0648475F00A8485E6
:1001AE00F02EE53875F00A8475F00A8485F02FE597
:1001BE003875F00A8485F030E54275F0648475F088
:1001CE000A8485F033E54275F00A8475F00A848559
:0C01DE00F034E54275F00A8485F035220B
:05000300AF420204D829
:1004C300538E7F5389F0758A18758CFCC28DD28C3C
:0504D300D2A9D2AF2206
:03000B0002009A56
:10009A00C0E0C0F0C083C082C0D075D000C000C02C
:1000AA0001C002C003C004C005C006C0070537E589
:1000BA0037640A7002F5370536AF367E00BE010690
:1000CA00BFF4037536000539E53964087002F5395D
:1000DA00742E2539F8E6FD74262539F8E6FBAF3982
:1000EA001202B5743A2539F8E6FDAF3912027BD00F
:1000FA0007D006D005D004D003D002D001D000D05A
:0A010A00D0D082D083D0F0D0E032D4
:1004ED001204741204C312045512018E12000380FB
:0104FD00F509
:100208000144000145FF0146000147FF0148000184
:0802180049FF014A00014BFF00
:10027B00ED600FA8077401088002C333D8FC424419
:10028B00800EA8077401088002C333D8FCF45244D3
:10029B00E54465456013E544F4F580E5A0541F443F
:0902AB0080F5A053A01F85444515
:0102B4002227
:1003EC0030000543464080035346BFE546654760F1
:1003FC0011854680E5A0541F44A0F5A053A01F858D
:02040C00464761
:01040E0022CB
:10040F0030010543481080035348EFE548654960C4
:10041F0011854880E5A0541F44A0F5A053A01F8567
:02042F0048493A
:0104310022A8
:10043200300205434A208003534ADFE54A654B6098
:1004420011854A80E5A0541F44A0F5A053A01F8542
:020452004A4B13
:010454002285
:100220000C08C0F9A4B0999282F88090FF88081455
:080230000102040810204080C7
:1002B5007580FFE5A0541F44E0F5A074142FF8E6FF
:1002C500F580E5A0541F44C0F5A053A01F74082D68
:1002D500F8E6F580EB600353807FE5A0541F44E00A
:0602E500F5A053A01F224A
:10011400E4FFC2A9C2C4D2C2D2B5D2B420B3027F12
:100124000420B2027F0520B1027F0620B0027F07BF
:10013400D2C4C2C2D2B5D2B420B3027F0820B20264
:100144007F0920B1027F0A20B0027F0BD2C4D2C241
:10015400C2B5D2B420B3027F0C20B2027F0D20B10D
:10016400027F0E20B0027F0FD2C4D2C2D2B5C2B475
:1001740020B3027F1020B2027F1120B1027F12202F
:09018400B0027F13D2A975B0FF8F
:01018D00224F
:100474007580FFE5A0541F4480F5A053A01FE4F548
:0D04840080E5A0541F44A0F5A053A01F2246
:04049100D2A07F0571
:10049500000000000000000000000000000000AEA9
:0604A500071FEE70EB22C0
:0F04FE00D2A1120491C2A17F05120495C2A022BF
:0C050D00C2A1120491D2A17F0502049546
:0202EB00AD075D
:1002ED00E4FCECC39408748094805024C2A07F0574
:1002FD00120495ED30E704D2A18002C2A17F051250
:10030D000495D2A0ED25E0FD7F051204950C80D259
:02031D00C2A07C
:01031F0022BB
:10037D00E4FCECC39408748094805017120491ED42
:10038D0025E0FD30A103430501C2A07F05120495B0
:05039D000C80DFAF053C
:0103A2002238
:1003C800AB051204FE7FA01202EB1203DAAF031290
:0203D80002EB36
:1003DA00120491A2A1E433FDC2A07F05120495AFD5
:0103EA00050D
:0103EB0022EF
:1004AB00C2A0EF24FF92A17F05120495120491C202
:0804BB00A0D2A17F0502049507
:0203A300AB07A6
:1003A5001204FE7F901203CF1204FE7F911202EB1E
:1003B5001203DA12037DAD077F011204AB12050D9E
:0203C500AF0582
:0103C7002213
:1004D800AB071204FE7F901202EB1203DA7F41127F
:0504E80003CF02050D29
:100320008B4C8A4D894E1203C8AF501550EF601F99
:10033000AB4C054EE54EAA4D7002054D14F9120363
:1003400052FF1202EB1203DA7FC812049580DA0220
:02035000050D99
:100239008B518A5289531203C81204FE7FA11202FC
:10024900EB1203DAAF551555EF602412037DAB515C
:100259000553E553AA527002055214F9EF12036BC4
:10026900E5556004E4FF80027F011204AB80D502EA
:02027900050D71
:0300000002000EED
:0C000E00787FE4F6D8FD7581550200559E
:10035200BB010689828A83E0225002E722BBFE02A9
:09036200E32289828A83E49322DC
:10036B00BB010689828A83F0225002F722BBFE0171
:02037B00F3226B
:10001A000204EDE493A3F8E493A34003F68001F20B
:10002A0008DFF48029E493A3F85407240CC8C333E7
:10003A00C4540F4420C8834004F456800146F6DFB6
:10004A00E4800B01020408102040809001EAE47E5B
:10005A00019360BCA3FF543F30E509541FFEE493AB
:10006A00A360010ECF54C025E060A840B8E493A372
:10007A00FAE493A3F8E493A3C8C582C8CAC583CA9D
:10008A00F0A3C8C582C8CAC583CADFE9DEE780BE55
:0102380000C5
:00000001FF
