:03000000020A12DF
:0C0A1200787FE4F6D8FD758120020A59B7
:100FAF000102040810204080C0F9A4B0999282F881
:050FBF008090BFFFC699
:100F6E00010F00010C00010E00010A000113170110
:050F7E00143B011232DA
:040EB2007F147E002B
:100EB600D3EF9400EE940040147D6E7C00ED1D701F
:0D0EC600011CED4C70F7EF1F70E61E80E37D
:010ED30022FC
:100F550075A0A0E4F58075A0807580FF75A0C075AB
:090F650080FF75A0E07580FF22F9
:1008000020B01E120EB220B01830B0FD851309853D
:10081000140B8512080510E510C394044003E4F599
:100820001020B126120EB220B12030B1FDE510C368
:10083000940440020510E510C3940450037510049D
:10084000E510C394074003E4F51020B27A120EB20B
:1008500020B27430B2FDE51024FE602114602F1424
:10086000603D1460481460532405705B0509E50978
:10087000C394184003E4F509850913804A050BE584
:100880000BC3943C4003E4F50B850B148039050839
:10089000E508C3943C4003E4F50885081280280568
:1008A0000CE50CC39418401FE4F50C801A050EE506
:1008B0000EC3943C4011E4F50E800C050AE50AC312
:1008C000943C4003E4F50A30B303020954120EB21B
:1008D00030B303020954E510700375100730B3FDFF
:1008E000E510B40703E4F510E51024FE6020146061
:1008F0002D14603A14604414604E24057056150996
:10090000E509D39400500375091785091322150BC7
:10091000E50BD394005003750B3B850B142215088F
:10092000E508D39400500375083B85081222150C86
:10093000E50CD39400501D750C1722150EE50ED34F
:1009400094005010750E3B22150AE50AD39400500E
:0509500003750A3B22C3
:100D5C00E520B408005050900D6AF8282873020D55
:100D6C0082020D86020D8A020D8C020D90020D8AF4
:100D7C00020D9A020DA5E5138016E513801D80085F
:100D8C00E514800CE5148013900FC1E48016E51275
:100D9C0075F00A84900FB7800BE51275F00A84E5A4
:100DAC00F0900FB793F5800520E520C3940840031D
:030DBC00E4F5203B
:010DBF002211
:100A9E00E520B408005062900AACF8282873020AC8
:100AAE00C4020ACC020ADE020AE0020AE4020ADEEC
:100ABE00020AEE020AF9E50975F00A848008E509D2
:100ACE0075F00A84E5F0900FB793450DF5808029F7
:100ADE008008E514800CE5148013900FC1E4801695
:100AEE00E51275F00A84900FB7800BE51275F00AC7
:100AFE0084E5F0900FB793F5800520E520C39408A8
:050B0E004003E4F520A6
:010B130022BF
:100B1400E520B408005062900B22F8282873020BD9
:100B24003A020B3E020B42020B44020B4C020B42F4
:100B3400020B64020B6FE5138028E513802F801AE3
:100B4400E50B75F00A848008E50B75F00A84E5F07E
:100B5400900FB793450DF580801F900FC1E4801668
:100B6400E51275F00A84900FB7800BE51275F00A50
:100B740084E5F0900FB793F5800520E520C3940831
:050B84004003E4F52030
:010B89002249
:100C7600E520B40800505F900C84F8282873020C15
:100C86009C020CA0020CA4020CA6020CAE020CA440
:100C9600020CC4020CCCE5138008E513800C801509
:100CA600E51475F00A848008E51475F00A84E5F009
:100CB600900FB78004900FC1E493F5808018E50883
:100CC60075F00A848008E50875F00A84E5F0900F4F
:100CD600B793450DF5800520E520C394084003E44D
:020CE600F520F7
:010CE80022E9
:100B8A00E520B408005062900B98F8282873020BED
:100B9A00B0020BB8020BCA020BCC020BD0020BCA72
:100BAA00020BDA020BE5E50C75F00A848008E50C05
:100BBA0075F00A84E5F0900FB793450DF58080290A
:100BCA008008E50E800CE50E8013900FC1E48016B4
:100BDA00E50A75F00A84900FB7800BE50A75F00AEA
:100BEA0084E5F0900FB793F5800520E520C39408BB
:050BFA004003E4F520BA
:010BFF0022D3
:100C0000E520B408005062900C0EF8282873020CFE
:100C100026020C2A020C2E020C30020C38020C2E7A
:100C2000020C50020C5BE50C8028E50C802F801A2A
:100C3000E50E75F00A848008E50E75F00A84E5F08B
:100C4000900FB793450DF580801F900FC1E480167B
:100C5000E50A75F00A84900FB7800BE50A75F00A73
:100C600084E5F0900FB793F5800520E520C3940844
:050C70004003E4F52043
:010C7500225C
:100CE900E520B40800505F900CF7F8282873020D2E
:100CF9000F020D13020D17020D19020D21020D1716
:100D0900020D37020D3FE50C8008E50C800C8015BB
:100D1900E50E75F00A848008E50E75F00A84E5F0A1
:100D2900900FB78004900FC1E493F5808018E50A0D
:100D390075F00A848008E50A75F00A84E5F0900FD9
:100D4900B793450DF5800520E520C394084003E4D9
:020D5900F52083
:010D5B002275
:100DC000E520B408005042900DCEF8282873020D9B
:100DD000E8020DE8020DE8020DE8020DE8020DED53
:100DE000020DF5020E028000900FC28018E5117509
:100DF000F00A848008E51175F00A84E5F0900FB7D9
:100E00008004900FC3E493F5800520E520C3940887
:050E10004003E4F520A1
:010E150022BA
:100E1600E510B408005037900E24F8282873020E07
:100E26003C020E3F020E42020E45020E48020E4BD7
:100E3600020E4E020E51020D5C020A9E020B1402B5
:0F0E46000C76020B8A020C00020CE9120DC0227E
:100E8E0075A0C0E51C900FAF93F580E4F5A075A09A
:100E9E00E0120E16E4F5A0051CE51CC394084003F1
:040EAE00E4F51C2229
:100F9A00438E805389F0758A9A758CA9C28DD28C3A
:050FAA00D2AFD2A92224
:0C0FC40053A01F75A0808F8053A01F2237
:100ED400120F55120F9A120E558F11120800E513B6
:100EE400B50CF3E514B50EEEE512B50AE975190172
:020EF40080E498
:03000B0002095592
:10095500C0E0C0F0C083C082C0D075D000C000C068
:1009650007120E8E0516E51670020515E519B40178
:1009750020C3E5169464E5159400401BE50F700748
:10098500750F017FFF8005750F007FFE120FC48074
:100995000675A0807580FFC3E51694F4E5159401EE
:1009A500405C7515007516000518E51870020517E9
:1009B5009402E51794004046E519B40108051BE5C6
:1009C5001B7002051AD3E51B9405E51A940040092E
:1009D500751A00751B007519000512630DFFE512E8
:1009E500C3943C40197512000514E514943C400E5F
:1009F5007514000513E51394184003751300D0070B
:0D0A0500D000D0D0D082D083D0F0D0E0322D
:100F8400EF1FAA0670011E4A600BE4FDEDC394082E
:050F940050EE0D80F796
:010F99002235
:020EF600A9074A
:100EF800E4FBC294E91392947F057E00120F84D21A
:100F080094E9C313F90BBB08E97F057E00020F843F
:100F3700E4FBC294ECC313FCD294309403430480C3
:0D0F47007F057E00120F840BBB08E7AF048E
:010F5400227A
:100F18007CFFD294C2947F507E00120F84D294300A
:0F0F28009406AF041CEF70F77F147E00020F8455
:100E5500E4F51DFFF51E120F187FCC120EF67F4428
:100E6500120EF6120F187FCC120EF67FBE120EF67A
:100E7500120F37A907120F37E9540FF51FE9C454AC
:080E85000FF9EFC454F049FF1E
:010E8D002242
:100A1E00020ED4E493A3F8E493A34003F68001F20C
:100A2E0008DFF48029E493A3F85407240CC8C333D9
:100A3E00C4540F4420C8834004F456800146F6DFA8
:100A4E00E4800B0102040810204080900F6EE47EBB
:100A5E00019360BCA3FF543F30E509541FFEE4939D
:100A6E00A360010ECF54C025E060A840B8E493A364
:100A7E00FAE493A3F8E493A3C8C582C8CAC583CA8F
:100A8E00F0A3C8C582C8CAC583CADFE9DEE780BE47
:010F8300006D
:00000001FF
