:020000040800F2
:10000000D00C0020C5020008373800081F36000851
:1000100033380008C5170008353E0008000000000E
:100020000000000000000000000000003B38000855
:10003000C917000800000000393800083D380008E2
:10004000EB020008EB020008EB020008EB020008DC
:10005000EB020008EB020008EB020008EB020008CC
:10006000EB020008EB020008EB020008EB020008BC
:10007000EB020008EB020008EB020008EB020008AC
:10008000EB020008EB020008EB020008EB0200089C
:10009000EB020008EB020008EB020008EB0200088C
:1000A000EB020008EB020008EB020008EB0200087C
:1000B000EB020008EB02000859380008EB020008C8
:1000C000EB020008EB020008EB020008EB0200085C
:1000D000EB020008E53D0008EB020008EB02000817
:1000E000EB020008EB020008EB020008EB0200083C
:1000F000EB020008EB020008EB020008EB0200082C
:10010000EB020008EB020008EB020008EB0200081B
:10011000EB020008EB020008EB020008EB0200080B
:10012000EB020008EB020008EB020008EB020008FB
:10013000EB020008EB020008EB020008EB020008EB
:10014000EB020008EB020008EB020008EB020008DB
:10015000EB020008EB020008EB020008EB020008CB
:10016000EB020008EB020008EB020008EB020008BB
:10017000EB020008EB020008EB02000800000000A0
:10018000EB020008EB020008EB020008EB0200089B
:10019000EB020008EB020008EB020008EB0200088B
:1001A000EB020008EB020008EB02000800F002F886
:1001B00000F078F80AA090E8000C82448344AAF189
:1001C0000107DA4501D100F06DF8AFF2090EBAE887
:1001D0000F0013F0010F18BFFB1A43F0010318477B
:1001E00088D00000A8D000000A444FF0000C10F89E
:1001F000013B13F0070408BF10F8014B1D1108BFA5
:1002000010F8015B641E05D010F8016B641E01F844
:10021000016BF9D113F0080F1EBF10F8014BAD1C94
:100220000C1B09D16D1E58BF01F801CBFAD505E0B2
:1002300014F8016B01F8016B6D1EF9D59142D6D30C
:10024000704700000023002400250026103A28BF34
:1002500078C1FBD8520728BF30C148BF0B60704738
:10026000662909F04587642900F03A81752900F074
:100270003781782900F07081632900F04A8573295D
:1002800000F04F85002070471FB509F02CFF00F0EB
:100290005FFD04000020002109F060FDE0601FBD4B
:1002A00010B510BD00F058FE1146FFF7EDFF07F046
:1002B000D5FA00F076FE03B4FFF7F2FF03BC03F0BB
:1002C000F6FD0000DFF83000016841F470010160C4
:1002D0000A4880470A480047FEE7FEE7FEE7FEE7D8
:1002E000FEE7FEE7FEE7FEE7FEE7FEE70548064914
:1002F000044A064B7047000088ED00E045380008CE
:10030000AD010008D0040020D00C0020D004002053
:10031000704753EA020C00F069802DE9F04B4FF072
:100320000006002B1FBFB3FA83F503FA05F424FA85
:1003300005F65E4012BF1643B2FA82F502FA05F4E2
:10034000C5F120051EBF22FA05FC44EA0C04203545
:1003500056EA044C4FEA144418BF641C4FF00008DE
:100360004FF00009904271EB030C39D3002919BFFB
:10037000B1FA81F701FA07F6B0FA80F700FA07F64A
:10038000C7F120071EBF20FA07FC46EA0C062037FB
:10039000B6FBF4FCA7EB0507103F07F01F0BCBF1F2
:1003A00020060CFA0BFB2CFA06F644BFB3460026D7
:1003B000202FA4BF5E464FF0000B5BEA060C08BF7F
:1003C0004FF0010B19EB0B09ABFB027C48EB060865
:1003D000C01B06FB02CC0BFB03CC71EB0C01C1E78D
:1003E0000B46024641464846BDE8F08B13B54FF038
:1003F00000004FF00001AFF30080BDE81C407047E3
:100400000FB4044910B503AA029800F08FFC10BC89
:100410005DF814FB040000200FB41CB5074B06AABE
:100420007B4469460090059800F051FC0020694625
:1004300000F060FC1CBC5DF814FB0000D10800005B
:1004400070B5044685690068C10601D5302600E014
:100450002026C00707D070BDD4E90121304690475F
:10046000206A401C20626D1EF6D570BD70B5044632
:1004700085690078C00707D170BDD4E9012120202B
:100480009047206A401C20626D1EF6D570BD70B585
:100490000C460546012A05D02878800600D5EA6971
:1004A000002302E0012305E05B1C934202D2E05CE2
:1004B0000028F9D1A869E618C01AA861286A18446A
:1004C00028622846FFF7BCFF04E0D5E9012114F8B3
:1004D000010B9047B442F8D32846FFF7C7FF70BD21
:1004E0002DE9F0410646002410687529314616A50D
:1004F00010D0AFF30080002802DA404213A507E0D5
:1005000031688A0701D512A502E0490704D511A573
:10051000012401E0AFF3008000210A2206F1240744
:1005200009E0B0FBF2FCB0FBF2F302FB1C00303040
:1005300078541846491C0028F3D123462A463046F1
:10054000BDE8F04100F055B9000000002D000000AA
:100550002B0000002000000070B504460D46214627
:100560001068AFF300802188090502D50F4A7A444C
:1005700002E00E4A7A440E32002104F1240305E021
:1005800000F00F060009965D5E54491C0028F7D163
:1005900020780023000704D5702D02D009B1022372
:1005A00011322046BDE8704000F023B91ACB00009C
:1005B0002DE9F05F894604464FF0000ADFF874B178
:1005C000FB44C0F820A02046E1688847002874D08A
:1005D000252806D0D4E901219047206A401C2062DA
:1005E000F1E700265F462046E16888472028054657
:1005F00007DB312D05D2781910F8200C08B106431D
:10060000F1E7B00701D526F00406C4F81CA00027C6
:10061000C4F818A02A2D09D0284603F041FC38B3AD
:1006200004EB8708303DC8F8185019E059F8041B4E
:10063000204604EB87029161E1688847012F054657
:1006400018D1E069002820DA26F020061DE0D8F84D
:10065000180000EB800005EB40003038C8F81800A7
:100660002046E1688847054603F01AFC0028EED1D1
:10067000012F0AD02E2D08D12046E16888477F1C23
:100680000546022F46F02006C4DBA069002803DAE5
:10069000404246F00106A061F00701D026F01006A6
:1006A0006C2D0BD0682D09D04C2D39D06A2D35D04A
:1006B000742D35D07A2D33D016E038E0E1682F461E
:1006C00020468847B842054609D16C2F26D04FF402
:1006D0008060E168064320468847054604E06C2FA9
:1006E0001AD04FF4807006430DB3A5F141001928CC
:1006F00002D8203546F400664A4629462046266040
:100700004E46FFF7ADFD80B101280BD0F61D26F057
:10071000070000F1080956E74020E4E78020D8E709
:100720000020D6E706F104094DE7284652E7206A83
:10073000BDE8F09FF0CA000010B5203AC0F00B8071
:10074000B1E81850203AA0E81850B1E81850A0E8D5
:100750001850BFF4F5AF5FEA027C24BFB1E818502F
:10076000A0E8185044BF18C918C0BDE810405FEA9F
:10077000827C24BF51F8043B40F8043B08BF70471B
:10078000D20728BF31F8023B48BF11F8012B28BF20
:1007900020F8023B48BF00F8012B70474FF00002E1
:1007A00000B5134694469646203922BFA0E80C5067
:1007B000A0E80C50B1F12001BFF4F7AF090728BF42
:1007C000A0E80C5048BF0CC05DF804EB890028BFBE
:1007D00040F8042B08BF704748BF20F8022B11F0E7
:1007E000804F18BF00F8012B704770477047704763
:1007F00070472DE9F0470D4699469246044600F1B0
:1008000024080168880604D5E06921F01001216000
:1008100000E00120A84201DD471B00E00027A1699C
:100820007A1902EB0900081AA0612078C00602D4E8
:100830002046FFF705FE002608E0D4E901211AF85A
:1008400006009047206A401C761C20624E45F4DB6F
:100850002078C0060AD52046FFF7F2FD06E0D4E96D
:10086000012130209047206A401C2062381EA7F1E9
:100870000107F4DC07E0D4E9012118F805009047EE
:10088000206A401C2062281EA5F10105F3DC2046E9
:10089000FFF7ECFD2078000602D50220BDE8F087C6
:1008A0000120FBE770472DE9FF4F0C461E464FF035
:1008B000FF378BB0D2E90001DDF860800A908A46EC
:1008C000C1F30A5505B93D46002108464FF0000026
:1008D000BAF1000F00F4400005DA00EB80004FF49D
:1008E000400101EA50004FEA9059B9F1010F00DDD3
:1008F000B9460A9850EA4A000ED044F61050A5F2C4
:10090000FF3545432F14B8F1000F1ED07542291E44
:100910001EDDC9F100021CE0B8F1010F4FF000002C
:1009200001D0302103E0F24305E02154401CB042E5
:10093000FBDB30460022002121540B99C1F80880CE
:10094000C1E900200FB0BDE8F08FBD1B6D1CDEE7D4
:100950004A4600DA694206A800F084FA06AB93E83A
:10096000070003AB83E8070050460A9900F062FBDA
:100970008DE80700A0F500501F3800900398002D67
:100980000ADD42F21F014A460844002303A90390EE
:10099000684600F0CBFD09E0A0F500504A461F383C
:1009A000002303A90390684600F0D5FD8DE80700F9
:1009B0000004000C03D04FF0FF30410800E0104667
:1009C000B8F1000F03D00022009215461EE0751EFC
:1009D00005D400F0C1F9303262556D1EF9D5B34629
:1009E0000122084302D000227F1C04E02078302836
:1009F00001D100227F1E002A099784D01DE0112D0D
:100A000007DA00F0A9F9303262556D1C50EA010294
:100A1000F5D1084302D00098C8B10EE00021681E4D
:100A200005E0235C625C63542254401E491C8142F1
:100A3000F7DBAB46A81B401E0990002004F80B0012
:100A40000B98099AC0F80880C0E9002B7AE71126B4
:100A50004FF0000857E72DE9F04F88460446D21DB5
:100A600022F0070191B0D1E90001CDE90A0103F0BC
:100A7000E3F902460B98C00F01D02D2007E0206853
:100A8000810701D52B2002E0202101EAC000032AC2
:100A9000099001D0072A05DB03464146204600F0B5
:100AA000A1F90BE12078800601D5E06900E006207D
:100AB000B8F1650F814606D0B8F1660F18D0B8F1CD
:100AC000670F70D131E00020B9F1110F009001DB08
:100AD000112301E009F101030AAA01A90CA8FFF7FB
:100AE000E2FEDDE90C70002609F10105834647E0CE
:100AF00001204B4600904FF000470AAA01A90CA81C
:100B0000FFF7D1FEDDE90DB00C995D46002610B966
:100B100009F101000D18B9EB050003D4C0F1FF364F
:100B200009F10105A5EB09002BE0B9F1010F01DA8C
:100B30004FF001090020B9F1110F0090484601DD86
:100B4000112300E003460AAA01A90CA8FFF7ABFE97
:100B5000DDE90C704D4600268346207800070AD454
:100B6000AB4500DA5D4601A8012D04DD411911F8FD
:100B7000011C302907D04F4502DA17F1040F04DABF
:100B8000012082460FE06D1EEEE7002F02DCED1B18
:100B90003E4403E0781CA84200DD7D1CB81B00F138
:100BA000010A4FF000472078000703D4AA4501DB73
:100BB0004FF0FF3A0021B7F1004F0DF143088DF8D7
:100BC000431024D002202B23002F01DA7F422D2353
:100BD0000A21021EA0F1010000DC5FB197FBF1FCCD
:100BE00097FBF1F201FB1C7C17460CF1300C08F866
:100BF00001CDEEE7A8F1010003702188090501D5B8
:100C0000452100E06521A0F1010800F8011C0998C8
:100C10000FA9A1EB0807FF1D00B10120411901EB4D
:100C2000EA70A1693844081A401EA0612078C00605
:100C300002D42046FFF704FC099828B1D4E9012129
:100C40009047206A401C20622078C00622D52046AA
:100C5000FFF7F6FB1EE0002E04DBB34502DD01A822
:100C6000805D00E03020D4E901219047206A401CDB
:100C70002062761CAAF101005FEA000A0AD100F0A6
:100C800067F8C0680168405CD4E901219047206A98
:100C9000401C2062281EA5F10105DCDC07E0D4E938
:100CA000012118F8010B9047206A401C2062381E71
:100CB000A7F10107F3DC2046FFF7D8FB032011B0B2
:100CC00041E6000001694A1C02610878704700B5DE
:100CD0008FB0CDE901310021059105497944CDE975
:100CE000031011466846FFF763FC0FB000BD00001B
:100CF000E5FFFFFF0A6802F8010B0A60704710B5B4
:100D0000436913B1AFF3008001E0FFF7C0FB01209E
:100D100010BD127800F124010A7000224A700122ED
:100D2000EDE711684FF0FF32E9E70000074B70B5BF
:100D30000D467B44FFF7CBFF0446284600F004F93C
:100D400010B14FF0FF3070BD204670BDE73100009C
:100D5000004870479004002030B5B0F10A024FEA15
:100D6000900E71F100034EEA817EB0EB0E0061EB54
:100D700091014FEA101E4EEA017E10EB0E0041EB8E
:100D800011114FEA102E4EEA016E10EB0E0041EBEE
:100D900011214FEA104E4EEA014E10EB0E0041EBCE
:100DA0001141401841F100014FEAD00040EA417082
:100DB0004FEAD10110EB80054FEA810444EA9074B8
:100DC00044EB01046D1944EB0404521BA3414FF0A2
:100DD000000348BF0A3200D530BD401C41F100017C
:100DE00030BD00002DE9F0411F460446032601688E
:100DF000072A01F4006004DB08B116A505E016A57A
:100E000003E008B115A500E015A521F01000206051
:100E1000A069C01EA0610FB1401EA0612046FFF76F
:100E20000FFB4FB1D4E9012138469047206A401C9E
:100E30002062C01C206206E0206AFAE7D4E90121A2
:100E400015F8010B9047761EF8D22046FFF70EFBEF
:100E5000BDE8F0814E414E006E616E00494E460085
:100E6000696E66002DE9F047814616468AB035481E
:100E700078440DC88DE80D0032487844801C03ACDE
:100E80000DC884E80D0041F69B300844372190FBE3
:100E9000F1F290FBF1F5A5F1800501FB12041B3C7A
:100EA00002D56442012000E00020DFF898A08046CF
:100EB0000027FA44AAF1BE0A0EE0E0070AD0324643
:100EC000684607EB470101230AEB810100F043FB71
:100ED0008DE8070064107F1C002CEED1194F7F4471
:100EE000AE3F19E0E80715D007EB04100DF1180A22
:100EF00090E80E008AE80E00C068F04201D198190F
:100F000008903246012306A903A800F024FB03AB96
:100F100083E807006D10641C002DE3D14FF001033E
:100F200032466946B8F1000F03A802D000F0FEFA7D
:100F300001E000F010FBC9E90001C9F808200AB07F
:100F4000BDE8F087D0C20000007B00F08000704751
:100F500000487047700400207546FFF7F9FFAE4661
:100F600005006946534620F00700854618B020B5B5
:100F7000FFF7BCF9BDE820404FF000064FF0000736
:100F80004FF000084FF0000B21F00701AC46ACE831
:100F9000C009ACE8C009ACE8C009ACE8C0098D469E
:100FA000704710B50446AFF300802046BDE81040FE
:100FB000FFF781B94FF0013C50F8042B51F8043B86
:100FC0009A4221D1A2EB0C03934313EACC1317D11D
:100FD00050F8042B51F8043B9A4215D1A2EB0C03B4
:100FE000934313EACC130BD150F8042B51F8043B74
:100FF0009A4209D1A2EB0C03934313EACC13DBD042
:101000004FF00000704700BFD01A01BAB1FA81F169
:1010100001F0180122FA01F0CB40C1F12001DBB24E
:10102000C0B2C01A2CFA01F3D11A914311EAC311CC
:10103000E6D170475FEA400C08BF91F0000F4FEA1D
:101040008C234FEAC12243EA51514FEA1C5018BF8A
:1010500000F5F0404FEA300018BF41F000415FEA70
:101060006C5C00F02980BCF1FF3F08BF40F080407D
:101070007047130C06BF12044FF0100C4FF0000C19
:10108000130E04BF12020CF1080C130F04BF12015F
:101090000CF1040C930F04BF92000CF1020CD30F5F
:1010A00004BF52000CF1010C11464FF00002A0F1F8
:1010B0001F00A0EB0C00704711F0004F08BF7047F5
:1010C00031F000413FF4D5AF0B0C06BF09044FF0DF
:1010D000100C4FF0000C0B0E04BF09020CF1080CB1
:1010E0000B0F04BF09010CF1040C8B0F04BF890026
:1010F0000CF1020CCB0F04BF49000CF1010CCCF138
:101100002003A0EB0C0022FA03F302FA0CF241EAEE
:10111000030100F10100704720F07F4C80EA0300DA
:1011200023F07F47ACEB070303F57C5300F000404E
:1011300003F1FF032DE980494FEA154B09B44FEA4B
:10114000144325EA0B4E24EA03480FF2042606EB6B
:10115000132749083E785FEA320203FB0667C7F5AA
:10116000000707FB06F64FEA54374FEAD64606F16A
:10117000020607FB066CCCF1005C4FEA1C472CEA28
:10118000074C07FB06F40CFB06F504EB15464FEA8B
:10119000961634BF00204FF000404FEAD13706FBCF
:1011A00007FC4FEA1C4C0CFB0BF7D21B03FB0CF7A4
:1011B00061EB07010CFB0EF7B0EB074072EB174237
:1011C0000CFB08F734BFA2EB0742B2EB074261EB1E
:1011D00017414FEA0C444FEA910706FB07FC4FEA20
:1011E0001C4C0CFB0BF7B0EBC74072EB573203FB08
:1011F0000CF734BFA2EBC742B2EBC74261EB5731E9
:101200000CFB0EF7B0EBC70072EB57720CFB08F744
:1012100034BFA2EBC702B2EBC70261EB5771039F69
:101220004FEA816141EA921104EBCC044FEAD137D5
:101230004FEA826206FB07FC42EA90124FEA8060A6
:101240004FEA1C4C0CFB0BF7D21B03FB0CF761EBBA
:1012500007010CFB0EF7B0EB074072EB17420CFBDB
:1012600008F734BFA2EB0742B2EB074261EB17412C
:101270004FEA8C554FEA910704EB9C2406FB07FCD0
:101280004FEA1C4C0CFB0BF7B0EBC74072EB57322C
:1012900003FB0CF734BFA2EBC742B2EBC74261EBD2
:1012A00057310CFB0EF7B0EBC70072EB57720CFB1B
:1012B00008F734BFA2EBC702B2EBC70261EB57716C
:1012C00015EB4C254FEA816141EA92114FEA8262A7
:1012D0004FEAD13742EA901206FB07FC44F10004C2
:1012E0004FEA80604FEA1C4C0CFB0BF7D21B03FB50
:1012F0000CF761EB07010CFB0EF7B0EB074072EB4C
:1013000017420CFB08F734BFA2EB0742B2EB0742CF
:1013100061EB174115EB1C154FEA813141EA92410F
:101320004FEA823242EA90424FEA80304FEA0C762E
:1013300044F1000448EA03434EEA0B484FF0000E24
:10134000B2EB080C71EB030724BF624639464EEB43
:101350000E0E4FF0000B0018524149414BEB0B0BA6
:10136000B2EB080C71EB03077BF1000B24BF624664
:1013700039464EEB0E0E4FF0000B0018524149411A
:101380004BEB0B0BB2EB080C71EB03077BF1000B83
:1013900024BF624639464EEB0E0E51EA020718BFD3
:1013A00046F0010616EB0E7655F1000254F10001ED
:1013B00003D5BDE88901BDE80088BDE88901BDE825
:1013C0000048B619524141EB0101A3F101037047F6
:1013D00080807F7E7D7C7B7A797877767675747372
:1013E000727171706F6E6E6D6C6C6B6A6A69686831
:1013F000676666656464636362616160605F5F5EC7
:101400005E5D5D5C5C5B5B5A5A595958585757563C
:1014100056555555545453535252525151505050A1
:101420004F4F4F4E4E4D4D4D4C4C4C4B4B4B4A4AF3
:101430004A49494948484847474747464646454537
:101440004544444444434343434242424241414170
:10145000002B9C4630D477002BD01CB54FEA3707C1
:1014600003B44FF010004FF01001BAF1000F06D096
:10147000BCF1000FDCBF40F0080040F008014FF065
:1014800000000FBCBDE810400BF1010BBBF1010FD8
:1014900008BF5FEA170722BF12F1010211F1010133
:1014A0004FF0004143F1000300F0004043EA000028
:1014B0007047F9D35708D0E746EA064613F1400FC4
:1014C0004FEA16461FDD13F1200FDFBF16430A4611
:1014D000002120335B42BED0C3F1200746EA064616
:1014E00002FA07F74FEA164646EA0706C3F1200755
:1014F00022FA03F201FA07F721FA03F14FF0000391
:1015000042EA0702A7E746EA020646EA06464FEA2B
:10151000164646EA0106BCBF46EA0646360C4FF0C0
:1015200000034FF000024FF0000194E72DE9804CDA
:101530009A46934670B491E8380007C831EA400CE7
:1015400048BF34EA430C03D5FFF7E6FDFFF780FF01
:10155000F0BCBDE8008C2DE9804C9A46934670B4EF
:1015600091E8380007C810F0804F08BF13F0804F93
:1015700003D100F005F8FFF76BFFF0BCBDE8008C6D
:1015800020F07F4780EA030023F07F4C07EB0C0339
:10159000A3F57C5300F00040A3F1FE0392F0000F8E
:1015A00000F0B38095F0000F00F077802DE901493D
:1015B0004FEA11404FEA144621EA004800FB06FCBE
:1015C00024EA064708FB06F607FB08F800FB07F7C6
:1015D00018EB06484CEB164C4FEA124B18EB074839
:1015E0004FEA15464CEB174022EA0B4E0BFB06FC6C
:1015F00025EA06470EFB06F607FB0EFE0BFB07F778
:101600001EEB064E4CEB164C4FF000061EEB074E41
:101610004CEB174B18EB0B0840F1000018EB0E0BCE
:1016200058EB000840F100008F1A4FF000013CBF5A
:10163000C943661B14BFB5EB040C00213CBFC94372
:10164000F61B4FEA17444EEA8E0E27EA04454FEA8E
:101650001C4704FB07622CEA074C05FB07F70CFB51
:1016600005F604FB0CFC16EB074642EB174216EBA3
:101670000C4642EB1C421BEB060658EB02024141B2
:1016800046EA9E0601D5BDE80189B619524141EBF3
:101690000101A3F10103BDE801894FEA14454FEAB6
:1016A000114724EA054621EA074C05FB07F406FB2F
:1016B00007F70CFB06F105FB0CFC11EB074144EBB3
:1016C00017444FEA124711EB0C4144EB1C4422EA49
:1016D000074C05FB07F206FB07F70CFB06F605FBBC
:1016E0000CFC16EB074642EB174216EB0C4642EB9E
:1016F0001C456A1854F1000148BF7047B6195241A1
:1017000041EB0101A3F10103704795F0000F37D0C1
:101710004FEA11424FEA144721EA024624EA074CF5
:1017200002FB07F106FB07F70CFB06F402FB0CFCBF
:1017300014EB074441EB17414FEA154714EB0C44F7
:1017400041EB1C4125EA074C02FB07F506FB07F7B6
:101750000CFB06F602FB0CFC16EB074645EB1745A7
:1017600016EB0C4645EB1C42121951F1000148BF23
:101770007047B619524141EB0101A3F101037047D3
:101780004FEA14454FEA114724EA054621EA074C7F
:1017900005FB07F106FB07F70CFB06F24FF000060E
:1017A00005FB0CFC12EB074241EB174112EB0C421C
:1017B00051EB1C4148BF7047921841EB0101A3F166
:1017C0000103704700BFFEE77047000070B5044694
:1017D000B3F5804F13D1D1E9000540EA05108D68BB
:1017E00040EA05208D6928438D8940EA054054F878
:1017F0002250064E3540284344F8220003E06FF0A3
:10180000704044F82200002070BD00000000F0CFBE
:1018100070B50246086852F8200020F001000E68FA
:1018200042F826008868082801D1402500E00025FC
:10183000486828438E683043CE6830430E69304391
:101840004E693043CE6930430E6A30434E6A3043AE
:101850008E6A3043CE6A30430E6B40EA06038869D5
:101860000343486B0343C86B03430E4C44F480644A
:1018700044F4801444F4E024086852F82000A043A3
:1018800018430E6842F82600486BB0F5801F07D158
:10189000086828B1106820F480104E6B3043106047
:1018A000002070BD7FFB080030B50346D1E900057C
:1018B00040EA05108D6840EA05208D8940EA05451B
:1018C000088A401E45EA0055087D801E45EA0060F2
:1018D0008D692843551C53F8255005F04045284391
:1018E000551C43F82500186800F48010B0F5801FDF
:1018F0000BD1586820F47004088A401E44EA005452
:10190000586820F4700020435860002030BD024623
:101910000868B0B9D1E901031843CB6818430B69D3
:1019200018434B6918438B691843CB6918430B6AFA
:1019300018434B6A184313686FF30E031843106083
:1019400019E0D1E9070318434B6A1843136823F4DD
:10195000F84318431060D1E901031843CB681843DA
:101960000B6918434B6918438B69184353686FF32D
:101970000E0318435060002070470246506943F63A
:10198000FE73984340EA41005061002070472DE902
:10199000F04105460C4616460027D4E900010843ED
:1019A000A168491E40EA4110E16840EA41202969E6
:1019B0006FF315010843286100F0E8F907460AE0D3
:1019C000701C40B126B100F0E1F9C01BB04202D951
:1019D0000320BDE8F081A86900F020002028EFD0A6
:1019E0000020F6E730B50346FAB90868401E4C6897
:1019F000641E40EA04148868401E44EA0024C86853
:101A0000401E44EA0034088A401E44EA0044888AA2
:101A1000401E44EA0054087E401E44EA00609C6870
:101A200004F070442043986022E0C868401E04031C
:101A3000888A401E44EA00509C680E4D2C4020438A
:101A400098600868401E4C68641E40EA0414886868
:101A5000401E44EA0024088A401E44EA0044087EEE
:101A6000401E44EA0060DC6804F070442043D86003
:101A7000002030BDFF0F0FFF70B50446A56D00F0CC
:101A800085F9064694F83500022808D08020606564
:101A900000BF002084F8340000BF012070BD206822
:101AA000006820F01600216808602068406920F076
:101AB000800021684861206C08B9A06C28B12068BA
:101AC000006820F00800216808602068006820F0A5
:101AD00001002168086010E000F058F9801B05281B
:101AE0000BD920206065032084F8350000BF00205A
:101AF00084F8340000BF0320D0E72068006800F0BD
:101B000001000028E8D194F85C103F208840A860CC
:101B1000012084F8350000BF002084F8340000BFA5
:101B200000BFBBE7014691F83500022803D08020B2
:101B3000486501207047052081F835000868006875
:101B400020F001000A6810600020F3E7F8B50246B3
:101B50000B460025002400200021E0E0012606FAC3
:101B600001F51E6806EA0504AC4274D11E7906F040
:101B70000306012E04D01E7906F00306022E13D1AF
:101B800090684F000326BE40B0434F00DE68BE4061
:101B900030439060506801268E40B0431E79C6F3F2
:101BA00000168E40304350601E7906F00306032E67
:101BB00009D0D0684F000326BE40B0434F009E6856
:101BC000BE403043D0601E7906F00306022E13D1CA
:101BD000CF0802F1200656F827004E07F70E0F2611
:101BE000BE40B0434F07FF0E1E69BE403043CF08D2
:101BF00002F1200646F8270010684F000326BE4079
:101C0000B0431E7906F003064F00BE40304310601B
:101C10005E6806F44036002E1DD000BF00260096F8
:101C2000414E366846F480463F4F3E603E46366839
:101C300006F48046009600BF00BF3C4E8F0856F861
:101C400027008E07370F0F26BE40B043384EB242F2
:101C500002D100262EE061E0364EB24201D10126CB
:101C600028E0354EB24201D1022623E0334EB24283
:101C700001D103261EE0324EB24201D1042619E002
:101C8000304EB24201D1052614E02F4EB24201D1AE
:101C900006260FE02D4EB24201D107260AE02C4E57
:101CA000B24201D1082605E02A4EB24201D10926EE
:101CB00000E00A268F073F0FBE4030431B4E8F08BF
:101CC00046F82700244E3068A0435E6806F480166C
:101CD00006B12043204E3060361D3068A0435E6858
:101CE00006F4001606B120431B4E361D30601A4E16
:101CF000361F3068A0435E6806F4003606B1204304
:101D0000154E361F3060361F3068A0435E6806F4FB
:101D1000803606B12043104E083E3060491C102921
:101D2000FFF41CAFF8BD0000443802400838014001
:101D3000000002400004024000080240000C024083
:101D4000001002400014024000180240001C024033
:101D50000020024000240240083C01400246136972
:101D60000B400BB1012000E00020704710B5426924
:101D700021EA020302EA010443EA0443836110BD3D
:101D80000AB1816101E00B0483617047014800687A
:101D900070470000100000200348006803490978DC
:101DA0000844014908607047100000201800002016
:101DB00010B50D48006840F400700B4908600846F3
:101DC000006840F4806008600846006840F4807055
:101DD0000860032000F016FA0F2000F007F800F06A
:101DE000C1F9002010BD0000003C024070B504465F
:101DF0000E4800784FF47A71B1FBF0F00C49096895
:101E0000B1FBF0F5284601F0E5F808B1012070BDFE
:101E1000102C07D200222146501E00F0B4F90548CC
:101E2000046001E00120F2E70020F0E71800002044
:101E3000000000201400002070B504460E46154630
:101E400000BF94F8A000012801D1022070BD01203C
:101E500084F8A00000BF022084F8A10005EB8501F2
:101E600001EBC50204F1380101EB82003422314656
:101E7000FEF762FC2A463146204601F0D2FB0120E3
:101E80002168486284F8A10000BF002084F8A00007
:101E900000BF00BFDAE7000070B504460CB90120AE
:101EA00070BD94F8A10028B9002084F8A000204655
:101EB00000F07EF8022084F8A1002068806920F0FC
:101EC000704021688861D4E901010843E168084352
:101ED000216908432168896908432168886120686D
:101EE00080683249084021688860A08A050420681B
:101EF0008068A16929430843216888602068C06818
:101F00002A4908402168C860A08B05042068C06881
:101F1000216A294308432168C86020680069234971
:101F2000084021680861A08C050420680069A16A46
:101F30002943084321680861206840691B4908401B
:101F400021684861A08D050420684069216B294300
:101F500008432168486194F83500050294F836007A
:101F600006042068C06A00F07F402168C86246EA23
:101F7000050094F8341008432168C96A08432168B1
:101F8000C8622068406B40F0060021684863206802
:101F9000806940F00100216888610020C4F8A40035
:101FA000012084F8A10000207AE7000000F800F08A
:101FB00010B586B0044600BF00200090634800685A
:101FC00040F08060614908600846006800F0806069
:101FD000009000BF00BF00BF002000905B48143895
:101FE000006840F400005949143908600846006848
:101FF00000F40000009000BF00BF00BF00BF002041
:1020000000900846006840F002000860084600683A
:1020100000F00200009000BF00BF00BF00BF00BF83
:10202000002000900846006840F020000860084644
:10203000006800F02000009000BF00BF00BF00BF9C
:1020400000BF002000900846006840F480700860DF
:102050000846006800F48070009000BF00BF00BF19
:1020600000BF00BF002000900846006840F4807068
:1020700008600846006800F48070009000BF00BF50
:1020800000BF00BF00BF002000900846006840F07D
:10209000400008600846006800F04000009000BF63
:1020A00000BF00BF00BF002000900846006840F05D
:1020B000800008600846006800F08000009000BFC3
:1020C00000BF202001900120029003900320049083
:1020D00001A91F48FFF73AFD4FF4806001900220EC
:1020E00002900E20059001A91A48FFF72FFD4FF42A
:1020F00000700190022002900E20059001A9164860
:10210000FFF724FD4FF48060019001A91248FFF70A
:102110001DFD8020019001A91048FFF717FD4FF425
:102120000460019001A90D48FFF710FD4FF47E40B7
:10213000019001A90A48FFF709FDF720019001A9C4
:102140000548FFF703FD06B010BD0000443802400B
:102150000004024000140240002002400018024027
:10216000001C0240704701460846002809DB00F0C9
:102170001F0301229A4043099B0003F1E023C3F8A7
:10218000002100BF70472DE9F05F80460D461646DE
:10219000002701F069FE074639462A46334601F01A
:1021A0000700C0F1070ABAF1040F02D94FF0040A80
:1021B00001E0C0F1070AD14600F1040ABAF1070FA5
:1021C00002D24FF0000A01E0A0F1030AD4464FF01A
:1021D000010A0AFA09FAAAF1010A0AEA020A0AFA43
:1021E0000CFA4FF0010B0BFA0CFBABF1010B0BEAF5
:1021F000030B4AEA0B042146404601F03DFEBDE8D0
:10220000F09F000000BF00F00702064B19684FF670
:10221000FF031940044B0B4343EA0221014B1960B1
:1022200000BF70470CED00E00000FA0538B500244F
:1022300000BF002000901D48006840F080501B49FE
:1022400008600846006800F08050009000BF00BFA2
:10225000012017490864FFF799FD044607E0FFF7DE
:1022600095FD001BB0F57A7F01D9032038BD1148D8
:10227000406800F48030B0F5803FF0D101200C4977
:102280004864FFF783FD044607E0FFF77FFD001B6E
:10229000B0F57A7F01D90320E8E70648406800F4EA
:1022A0000030B0F5003FF0D10020DFE740380240B9
:1022B00000000E4200700040F8B5044600250026DC
:1022C000207800F0010048B9207800F002000228D0
:1022D00004D0207800F04000402862D10020B149AD
:1022E0008866FFF753FD054606E0FFF74FFD401BEC
:1022F000022801D90320F8BDAB480068C0F3C060D4
:102300000028F2D1207800F0010038B16068810126
:10231000207A41EA0070A44984310860207800F0F6
:102320000200022819D1A04884300068C0F3027668
:1023300060688101207B41EA006040EA06709A49AA
:102340008431086098488C30006820F01F00E169F3
:10235000491E084394498C310860207800F0400001
:1023600040280AD160688101207B41EA0061207A1F
:1023700041EA00708C4984310860012089498866EF
:10238000FFF704FD054606E0FFF700FD401B0228AD
:1023900001D90320AFE784480068C0F3C06000287B
:1023A000F2D0207800F00400042804D0207800F057
:1023B0000800082863D100207A490867FFF7E6FC87
:1023C000054606E0FFF7E2FC401B022801D9032086
:1023D00091E775480068C0F340700028F2D120787A
:1023E00000F00400042819D16F4888300068C0F359
:1023F000027620698101207D41EA006040EA067092
:10240000694988310860081D006820F4F851206A85
:10241000401E41EA002064498C310860207800F0B9
:102420000800082817D1604888300068C0F30366A8
:102430002069800140EA0661207E41EA00705A4925
:1024400088310860081D006820F44030616A084344
:1024500055498C310860012052490867FFF796FC06
:10246000054606E0FFF792FC401B022801D9032035
:1024700041E74D480068C0F340700028F2D0207852
:1024800000F0200020287DD100BF002000904648A9
:102490004030006840F080504349403108600846B1
:1024A000006800F08050009000BF00BF3F48006807
:1024B00040F480703D490860FFF768FC054606E07F
:1024C000FFF764FC401B022801D9032013E73748BB
:1024D000006800F480700028F2D033487030006843
:1024E00000F440764EB3208D00F44070B04224D00A
:1024F0002D487030006820F4407601202C49086097
:1025000000200860284870300660006800F0010074
:1025100098B1FFF73BFC054608E0FFF737FC401B8E
:1025200041F28831884201D90320E4E61E48703028
:102530000068C0F340000028EFD000BF208D00F4F9
:102540004070B0F5407F0CD117480830006820F487
:10255000F810184AA16A114008431349083108606D
:1025600007E011480830006820F4F8100E490831DF
:1025700008600D4870300068218DC1F30B010843DD
:10258000094900E002E07031086000BF207800F0E7
:102590001000102803D194F82C000749086000208F
:1025A000A9E60000000047420038024000700040E9
:1025B000400E4742FFFCFF0FE011474270B5044652
:1025C0000D460CB9012070BD5848006800F00F009E
:1025D000A84209D255490D700846006800F00F0066
:1025E000A84201D00120EEE7207800F00200022886
:1025F0001DD1207800F00400042805D14C48006863
:1026000040F4E0504A490860207800F008000828AB
:1026100005D14748006840F4604045490860444897
:10262000006820F0F000A168084341490860207864
:1026300000F00100A8B36068012807D13C480838C1
:102640000068C0F34040B8B90120BCE760680228C8
:1026500002D06068032807D1354808380068C0F305
:10266000406048B90120AEE7314808380068C0F33F
:10267000400008B90120A6E72D48006820F00300BB
:10268000616808432A490860FFF780FB064609E0B5
:10269000FFF77CFB801B41F28831884202D903207E
:1026A00091E707E02248006800F00C006168B0EB99
:1026B000810FEDD11D48006800F00F00A84209D934
:1026C0001A490D700846006800F00F00A84201D0BA
:1026D000012078E7207800F00400042807D114488E
:1026E000006820F4E050E168084311490860207850
:1026F00000F00800082808D10D48006820F4604068
:10270000216940EAC1000A49086000F03FF8084921
:102710000968C1F30311074A515CC84006490860C3
:1027200006480068FFF762FB00204CE7003C0240CF
:1027300008380240F4A00008000000201400002027
:1027400001480068704700000000002000B5FFF756
:10275000F7FF04490968C1F38221034A515CC8406C
:1027600000BD00000838024004A1000800B5FFF7D2
:10277000E7FF04490968C1F34231034A515CC8408C
:1027800000BD00000838024004A100082DE9F04710
:10279000002400250026A1462548006800F00C0012
:1027A00020B1042805D008283AD105E0DFF884904C
:1027B00039E0DFF8849036E01D48001F006800F023
:1027C0003F041B48001F006800F4800078B11A48DD
:1027D0001749091F0968C1F38811A0FB0170014660
:1027E000224600233846FDF794FD05460EE01148C9
:1027F0000F49091F0968C1F38811A0FB0170014648
:10280000224600233846FDF784FD05460848001F90
:102810000068C0F30140401C4600B5FBF6F902E039
:10282000DFF8109000BF00BF4846BDE8F087000009
:10283000083802400024F40040787D01F8B50446D1
:102840000CB90120F8BD207800F00100002874D0F8
:10285000F948006800F00C0004280DD0F648006824
:1028600000F00C00082813D1F348001F006800F4A2
:102870008000B0F5800F0BD1EF4808380068C0F336
:102880004040002859D06068002856D10120D9E77F
:1028900000BF6068B0F5803F08D1E748083800689D
:1028A00040F48030E449083908601EE06068B0F503
:1028B000A02F0DD1E0480838006840F48020DE49A0
:1028C000083908600846006840F4803008600CE071
:1028D000D9480838006820F48030D74908390860A2
:1028E0000846006820F48020086000BF606890B14E
:1028F000FFF74CFA054606E0FFF748FA401B64284C
:1029000001D903209EE7CC4808380068C0F3404056
:102910000028F1D011E0FFF739FA054606E0FFF78D
:1029200035FA401B642801D903208BE7C2480838D8
:102930000068C0F340400028F1D1207800F0020088
:1029400002285FD1BC48006800F00C0058B1BA48BA
:10295000006800F00C0008281CD1B748001F006870
:1029600000F48000B0B9B44808380068C0F34000F3
:1029700020B1E068012801D0012063E7AE480838A3
:10298000006820F0F800216940EAC100AA4908392E
:10299000086037E0E06800B30120A8490860FFF74D
:1029A000F5F9054606E0FFF7F1F9401B022801D9C9
:1029B000032047E7A04808380068C0F3400000281B
:1029C000F1D09D480838006820F0F800216940EAFD
:1029D000C10099490839086014E00020974908604F
:1029E000FFF7D4F9054606E0FFF7D0F9401B0228AF
:1029F00001D9032026E7904808380068C0F340005A
:102A00000028F1D1207800F0080008282CD1606956
:102A1000A8B101208A490860FFF7B8F9054606E029
:102A2000FFF7B4F9401B022801D903200AE78248C6
:102A30006C300068C0F340000028F1D014E00020A2
:102A40007F490860FFF7A2F9054606E0FFF79EF907
:102A5000401B022801D90320F4E677486C30006857
:102A6000C0F340000028F1D1207800F004000428D1
:102A700070D1002770483830006800F0805090B95D
:102A800000BF002000906C483830006840F0805053
:102A90006949383108600846006800F080500090AD
:102AA00000BF00BF01276748006800F48070B0B91C
:102AB0006448006840F4807062490860FFF766F976
:102AC000054606E0FFF762F9401B022801D9032002
:102AD000B8E65C48006800F480700028F2D000BFBF
:102AE000A068012808D154486830006840F001000F
:102AF0005149683108601DE0A06805280DD14E4895
:102B00006830006840F004004B49683108600846AE
:102B1000006840F0010008600CE047486830006839
:102B200020F001004449683108600846006820F040
:102B30000400086000BFA068A8B1FFF727F90546A8
:102B400009E0FFF723F9401B41F28831884202D99E
:102B5000032077E626E0384868300068C0F340007C
:102B60000028EED013E0FFF711F9054608E0FFF763
:102B70000DF9401B41F28831884201D9032061E6FA
:102B80002D4868300068C0F340000028EFD1012FC5
:102B900007D129483830006820F080502649383164
:102BA000086000BFA069002845D02348006800F0F5
:102BB0000C0008285DD0A069022845D100201F49DB
:102BC0000866FFF7E3F8054606E0FFF7DFF8401B6D
:102BD000022801D9032035E6174808380068C0F3F9
:102BE00040600028F1D1D4E907010843616A40EA56
:102BF00081110122A06AC2EB500041EA00412C2061
:102C0000005D41EA00600C49091F086001200B4982
:102C10000866FFF7BBF8054606E0FFF7B7F8401B6C
:102C2000022801D903200DE6034808380068C0F3E4
:102C300040600028F1D049E00838024000004742D7
:102C4000800E474200700040002021490866FFF7CF
:102C50009DF8054606E0FFF799F8401B022801D9C8
:102C60000320EFE51B480068C0F340600028F2D164
:102C70002CE0A069012800D1E4E51648001D066893
:102C8000A069012820D006F48001E06981421BD1AF
:102C900006F03F01206A814216D147F6C0703040ED
:102CA000616AB0EB811F0FD106F440310122A06AA6
:102CB000C2EB5000B1EB004F06D106F070612C2042
:102CC000005DB1EB006F01D00120BBE50020B9E54C
:102CD000000047420038024070B504460D460CB96A
:102CE000012070BD94F82C0028B9002084F82D0034
:102CF000204600F011F8022084F82C00211D2068E5
:102D0000FEF705FE2946D4E90002FEF76BFE01201E
:102D100084F82C000020E4E710B586B0044600BF1C
:102D2000002000904348006840F0010041490860DD
:102D30000846006800F00100009000BF00BF00BF1F
:102D4000002000903B480838006840F004003949F2
:102D5000083908600846006800F00400009000BFD1
:102D600000BF00BF002000900846006840F0080047
:102D700008600846006800F00800009000BF00BF2F
:102D800000BF002000900846006840F01000086076
:102D90000846006800F01000009000BF00BF00BFB0
:102DA000002000900846006840F0200008600846B7
:102DB000006800F02000009000BF00BF00BF0020AE
:102DC00000900846006840F040000860084600682F
:102DD00000F04000009000BF00BF0D2001900220D5
:102DE000029001200390032004900C20059001A97B
:102DF0001148FEF7ABFE4CF20370019001A90F4899
:102E0000FEF7A4FE4FF68370019001A90C48FEF76F
:102E10009DFE4FF63F00019001A90A48FEF796FE7D
:102E200048F23710019001A90748FEF78FFE06B05F
:102E300010BD00003838024000080240000C02407B
:102E400000100240001402400018024070B5044611
:102E50000D4694F82C00022800D170BD94F82C0087
:102E600001280AD1022084F82C0029462068FEF7A8
:102E700084FD012084F82C0001E00120EDE7002012
:102E8000EBE72DE9F04104460E46174694F82C5026
:102E9000022D02D10220BDE8F081012D01D0052DC7
:102EA00012D1022084F82C003A4631462068FEF701
:102EB0006EFD3068022803D1052084F82C0005E05F
:102EC000012084F82C0001E00120E4E70020E2E783
:102ED00070B504460E4615460CB9012070BD94F835
:102EE000490028B9002084F84800204600F020F866
:102EF00004F108012068FEF78BFC3146A2682068C7
:102F0000FEF7D2FC2946236BD4E90102FEF75EFCF2
:102F1000A168206850F8210040F00100A2682168F3
:102F200041F82200012084F849000020D6E7000083
:102F300010B586B0044600BF00200090224800680B
:102F400040F00100204908600846006800F00100D8
:102F5000009000BF00BF00BF002000901A48083852
:102F6000006840F008001849083908600846006801
:102F700000F00800009000BF00BF00BF00200090DC
:102F80000846006840F0100008600846006800F03D
:102F90001000009000BF00BF4EF2B37001900220FD
:102FA000029001200390022004900C20059001A9BA
:102FB0000648FEF7CBFD4FF68070019001A904484A
:102FC000FEF7C4FD06B010BD38380240000C0240C8
:102FD0000010024070B504462546681EB0F1807F9F
:102FE00001D301200FE0681E4FF0E02148610F215E
:102FF0004FF0FF3000F040FF00204FF0E0218861EB
:1030000007200861002070BD10B504460CB90120EE
:1030100010BD94F83D0028B9002084F83C002046FB
:1030200000F025F8022084F83D00211D206800F002
:1030300035FC012084F8460000BF84F83E000121E1
:103040003F200155402001554120015500BF00BFE0
:10305000012084F8420043200155442001554520B9
:10306000015500BF012084F83D000020D0E77047E3
:10307000014691F83D00012801D00120704702204F
:1030800081F83D000868C06840F001000B68D86016
:103090001A4B086898421BD00868B0F1804F17D0CF
:1030A000174B0868984213D0164B086898420FD007
:1030B000154B086898420BD0144B0868984207D00B
:1030C000134B0868984203D0124B086898420CD101
:1030D0000868806800F00702062A0CD008680068BB
:1030E00040F001000B68186005E00868006840F0D7
:1030F00001000B6818600020C0E7000000000140DC
:103100000004004000080040000C004000040140A2
:1031100000400140001800407047704701460022FF
:10312000002391F83D2091F83E3042EA03007047B9
:103130002DE9F84F0446206805682068C6682068B5
:1031400047694FF00009CA4605F00F09B9F1000FB1
:103150000AD105F0200038B106F0200020B1204649
:1031600000F058FCBDE8F88FB9F1000F7CD007F0F3
:10317000010018B906F49070002875D005F0010020
:1031800030B106F4807018B1206C40F0010020646A
:1031900005F0040030B107F0010018B1206C40F0D8
:1031A0000200206405F0020030B107F0010018B100
:1031B000206C40F00400206405F0080048B106F0DF
:1031C000200010B907F0010018B1206C40F0080091
:1031D0002064206C002846D005F0200028B106F0BD
:1031E000200010B1204600F015FC20684069C0F3B3
:1031F000801A206C00F0080010B9BAF1000F2DD031
:10320000204600F0C1FB2068406900F040004028E3
:1032100020D100BF00BF2168143151E8001F21F008
:1032200040002168143141E80002002AF3D100BFB8
:10323000A06B50B17548A16B0865A06BFEF772FCDE
:1032400088B1A06B016D88470DE02046FFF765FF50
:1032500009E009E02046FFF760FF04E02046FFF7A1
:103260005CFF002020647DE7206B012876D105F00B
:103270001000002872D006F010000028FAD000BF1D
:10328000002000902068006800902068406800904E
:1032900000BF00BF2068406900F0400040285ED1B8
:1032A000A06B006840681FFA80F8B8F1000F54D096
:1032B000A08D404551DDA4F82E80A06BC069B0F50B
:1032C000807F43D000BF00BF21680C3151E8001F50
:1032D00021F4807021680C3141E80002002AF3D10A
:1032E00000BF00BF00BF2168143151E8001F21F06A
:1032F00001002168143141E80002002AF3D100BF27
:1033000000BF00BF2168143151E8001F21F04000C8
:103310002168143141E80002002AF3D100BF2020C7
:1033200084F83E000020206300BF00BF21680C31FC
:1033300051E8001F21F0100021680C3141E8000223
:10334000002AF3D100BFA06BFEF796FBA08DE28DA3
:10335000801A81B22046FFF7DFFE03E740E0A08D30
:10336000E18D401A1FFA80F8E08DC0B3B8F1000F6C
:1033700035D000BF00BF21680C3151E8001F21F497
:10338000907021680C3141E80002002AF3D100BF9F
:1033900000BF00BF2168143151E8001F21F0010077
:1033A0002168143141E80002002AF3D100BF202037
:1033B00084F83E000020206300BF00BF21680C316C
:1033C00051E8001F21F0100021680C3141E8000293
:1033D000002AF3D100BF41462046FFF79DFEC1E61B
:1033E00005F0800030B106F0800018B1204600F0F2
:1033F000C8FCB7E605F0400030B106F0400018B157
:10340000204600F0F7FAADE600BFABE675390008DC
:1034100010B504460CB9012010BDA06900B100E050
:1034200000BF94F83D0028B9002084F83C002046F5
:1034300000F028F8242084F83D002068C06820F4BB
:1034400000502168C860204600F060FB20680069D9
:1034500020F49040216808612068406920F02A002B
:10346000216848612068C06840F400502168C86045
:1034700000202064202084F83D0084F83E000020D5
:10348000CAE7000010B586B004462E49206888427D
:1034900055D100BF00BF002000902B48006840F0CD
:1034A0001000294908600846006800F010000090EC
:1034B00000BF00BF00BF00BF00BF00200090224837
:1034C0001438006840F001001F49143908600846AC
:1034D000006800F00100009000BF00BF00BF00BF07
:1034E00000BF002000900846006840F0010008601E
:1034F0000846006800F00100009000BF00BF00BF58
:1035000048150190022002900120039002200490AF
:103510000720059001A90D48FEF718FB4FF48060C5
:1035200001900720059001A90848FEF70FFB252010
:10353000FEF719FE032211462520FEF724FE06B0F1
:1035400010BD00000010014044380240000002405D
:1035500070B504460D46164694F83E00202816D154
:1035600005B10EB9012070BD00BF94F83C000128E0
:1035700001D10220F7E7012084F83C0000BF0020C1
:10358000206332462946204600F0D6FBEBE70220B6
:10359000E9E700001D4A0168914236D11C490988BB
:1035A00001F4004189BB1A49098801F4804171B1D5
:1035B000184909780A2903D00021154A118024E00E
:1035C0001349098841F40041114A11801DE0114955
:1035D00009780D2906D10E49098841F480410C4A29
:1035E000118012E00B490978094A1288C2F30D02D2
:1035F000094B995406490988491C054A118011460E
:103600000988C72901DD00211180704700100140A1
:10361000080000200A00002070010020704700BF51
:10362000FEE7F0B58E880768FF68C7F30B473E4496
:10363000330406688436802707FB0266766806F442
:103640007047066884364FF0800C0CFB026677608A
:103650000E680768FF68C7F30B473E44761C1E439D
:10366000076884370CFB02777E608E890768FF68E5
:10367000C7F30A073E44330406688436802707FBF5
:103680000266B66806F47047066884360CFB02666C
:10369000B7608E680768FF68C7F30A073E44761C68
:1036A00046EA0307066884360CFB0266B7600668C4
:1036B0008436802707FB0266366926F0070706680E
:1036C00084360CFB026637610F69066884360CFB92
:1036D000026637613126765C33023226765C34042A
:1036E0000E7E350606688436802707FB0266B669BB
:1036F0000027066884360CFB0266B76191F83060DB
:103700001E43264346EA0507066884360CFB02661C
:10371000B76106688436802707FB0266766926F063
:10372000FF07066884360CFB026677614F690668FE
:1037300084360CFB0266776106688436802707FBB7
:103740000266F66940F20777BE43076884370CFBD0
:103750000277FE61D1E907763743066884360CFBB1
:103760000266F76106688436802707FB0266B66A40
:103770000027066884360CFB0266B7624F6A06684B
:1037800084360CFB0266B7620E690EB9042313E09F
:103790000E69012E01D103230EE00E69042E08D01C
:1037A0000E69022E05D00E69032E02D00E69072E77
:1037B00001D1022300E0012306688436802707FB3D
:1037C0000266F66A06F0E027066884364FF0800C41
:1037D0000CFB0266F762D1E90076F61B5E43F61C2D
:1037E0000F8D5F4346EA0747066884360CFB026686
:1037F000F76206688436802707FB0266366BF70A95
:10380000FF02066884360CFB02663763CF6A0668DF
:1038100084360CFB0266376306688436D701F65996
:1038200046F00107066884364FEAC21C46F80C7061
:10383000F0BD00BFFEE770477047704710B5FEF758
:10384000ABFA10BD0348006840F4700001490860FD
:103850007047000088ED00E010B50E480068C068B1
:1038600000F0010078B10C4908698047002009493F
:103870000968486200BF642006490968C86264217B
:103880000448C16000BF6FF0010002490968086187
:1038900010BD0000280400207C00002010B5026844
:1038A000294B98420ED0B0F1804F0BD0274B984255
:1038B00008D0274B984205D0264B984202D0264B81
:1038C000984203D122F070024B681A431E4B984273
:1038D00020D0B0F1804F1DD01C4B98421AD01C4B09
:1038E000984217D01B4B984214D01B4B984211D0D2
:1038F0001A4B98420ED01A4B98420BD0194B984253
:1039000008D0194B984205D0184B984202D0184B5A
:10391000984203D122F44072CB681A4322F080030C
:103920004C6943EA040202608B68C3620B688362DD
:10393000054B984202D0084B984201D10B690363B2
:103940000123436110BD000000000140000400405D
:1039500000080040000C004000040140004001400D
:10396000004401400048014000180040001C004095
:103970000020004070B50546AC6B0020E085E08477
:103980002046FFF7CAFB70BD00BF00BF02680C32C3
:1039900052E8002F22F4907102680C3242E80013C2
:1039A000002BF3D100BF00BF00BF0268143252E801
:1039B000002F22F001010268143242E80013002BAC
:1039C000F3D100BF016B01290ED100BF00BF026817
:1039D0000C3252E8002F22F0100102680C3242E84B
:1039E0000013002BF3D100BF202180F83E100021EE
:1039F0000163704710B504462068C06820F040009D
:103A00002168C860202084F83D002046FFF706FEAC
:103A1000002010BDF8B5044694F83E00222873D16A
:103A2000A068B0F5805F0CD1206950B90025A66A66
:103A300020684068C0F308003080A06A801CA06243
:103A400015E0A56A0026A068B0F5805F03D0A068E5
:103A500028B9206918B920684068287004E02068F7
:103A6000406800F07F002870A06A401CA062E08DD2
:103A7000401E80B2E085002844D12068C06820F054
:103A800020002168C8602068C06820F48070216828
:103A9000C8602068406920F001002168486120204A
:103AA00084F83E00206B012826D10020206300BF4F
:103AB00000BF21680C3151E8001F21F0100021687F
:103AC0000C3141E80002002AF3D100BF20680068F1
:103AD00000F0100010280AD100BF002000902068DC
:103AE0000068009020684068009000BF00BFA18D72
:103AF0002046FFF711FB02E02046FFF74BFD0020B8
:103B0000F8BD01E00020FBE70220F9E72DE9F84FBE
:103B100004462068006920F44050E16808432168A9
:103B200008612169A068084361690843E1690843A5
:103B300000902068C06849F20C61884300990843EE
:103B40002168C8602068406920F44070A16908437A
:103B50002168486176492068884203D07549206809
:103B6000884203D1FEF702FE814602E0FEF7EEFD39
:103B70008146E069B0F5004F6CD102206168A0FB7E
:103B8000015003461920A9FB007001462A46384619
:103B9000FCF7BFFB6421B0FBF1F04FEA001A0220F2
:103BA0006168A0FB01510B461920A9FB00712A4650
:103BB0003846FCF7AEFB834602206168A0FB01504B
:103BC00003461920A9FB00712A463846FCF7A1FBE1
:103BD0006421B0FBF1F000EBC00101EB0010ABEB96
:103BE0008000322101EBC0006421B0FBF1F000F055
:103BF000F8000AEB400A02206168A0FB015003466E
:103C00001920A9FB007001462A463846FCF781FBC3
:103C1000834602206168A0FB015003461920A9FBDE
:103C200000712A463846FCF774FB6421B0FBF1F0C2
:103C300000EBC00101EB0010ABEB8000322101EB87
:103C4000C0006421B0FBF1F000F00700504421688F
:103C500088606AE004206168A0FB015003461920D7
:103C6000A9FB007001462A463846FCF752FB824603
:103C700004206168A0FB015003461920A9FB0070D5
:103C800001462A463846FCF744FB6421B0FBF1F0BC
:103C900000EBC00101EB0010AAEB8000322101EB28
:103CA00000106421B0FBF1F000F0F00A042061681C
:103CB000A0FB017003461920A9FB00513A46284693
:103CC000FCF727FB6421B0FBF1F00AEB001A04209B
:103CD0006168A0FB01510B461920A9FB00712A461F
:103CE0003846FCF716FB834604206168A0FB0150B0
:103CF00003461920A9FB007001462A463846FCF706
:103D000008FB6421B0FBF1F000EBC00101EB0010F7
:103D1000ABEB8000322101EB00106421B0FBF1F02D
:103D200000F00F00504421688860BDE8F88F000063
:103D3000001001400014014010B5034699629A85B5
:103D4000DA8500201864222083F83E0000BF00209E
:103D500083F83C0000BF186928B11868C06840F4B7
:103D600080701C68E0601868406940F001001C68C1
:103D700060611868C06840F020001C68E0600020A6
:103D800010BD014691F83D00212828D18868B0F582
:103D9000805F0BD1086948B90A6A1088C0F308002F
:103DA0000B685860086A801C086205E00B6A581CA2
:103DB000086218780B685860C88C401E80B2C884AE
:103DC00058B90868C06820F080000B68D86008689F
:103DD000C06840F040000B68D860002070470220A7
:103DE000FCE7000070B500240F4D1048FFF7A0F964
:103DF00000BF03E0641CAC4200D904E00B48FFF7AD
:103E00008DF92028F6D100BF002403E0641CAC42E9
:103E100000D906E0012206490448FFF799FB002873
:103E2000F4D100BF70BD0000FFFF01003802002088
:103E30000A00002000BFFEE703B40198410000988B
:103E400050EAC12018BF04204A0D18BF40F00100FD
:103E500040F2FF72B2EB515F08BF40F00200012850
:103E600008BF052002B0704702480068C0F3022076
:103E7000704700000CED00E010B5002804DB0A07D5
:103E8000130E054A135406E00A07140E034A00F005
:103E90000F031B1FD45410BD00E400E018ED00E038
:103EA00030380A2801D2012070470020704700BF37
:103EB0007047000001490860704700000C000020B6
:103EC00010B504464FF47A7104FB01F000F002F8DB
:103ED00010BD000070B5034600224FF0E026756962
:103EE0000D4E366803FB06F44FF0E026B16910E092
:103EF0004FF0E026B06988420BD0884202D20E1AF9
:103F0000324402E02E1A0E4432440146A24200D34B
:103F100000E0EDE700BF70BD0C00002000BF054AC7
:103F2000126802F04002002AF9D0C2B2014B5A6076
:103F3000704700000010014010B500BF0022202192
:103F40001048FDF71DFF00BF00F01EF800BF012262
:103F500010210C48FDF714FF00BF00F015F800BF5A
:103F6000002210210748FDF70BFF00BF00F00CF8FE
:103F700000BF012220210348FDF702FF00BF00F02F
:103F800003F810BD001C024010B50220FFF7A2FF8D
:103F900010BD000000B587B000BF00BF0020019039
:103FA0001A48006840F08000184908600846006818
:103FB00000F08000019000BF00BF00BF00BF00BF45
:103FC000002001900846006840F080000860084624
:103FD000006800F08000019000BF00BF00BF10200B
:103FE00002900120039004900320059002A9084844
:103FF000FDF7ACFD202002901120039002A9044897
:10400000FDF7A4FD00F0B0F807B000BD3038024065
:10401000001C024010B500BF012220210C48FDF712
:10402000AFFE00BFFFF7B0FF00BF0122102108481C
:10403000FDF7A6FE00BFFFF7A7FF00BF002210217B
:104040000348FDF79DFE00BFFFF79EFF10BD000077
:10405000001C024070B50546002400261CE06006E6
:10406000040E00BF012210211048FDF789FE00BF99
:10407000FFF78AFF20210D48FDF770FE08B1601C94
:10408000C4B200BF002210210848FDF779FE00BF2E
:10409000FFF77AFF701CC6B2082EE0DB15B9FFF7F8
:1040A000B9FF01E0FFF748FF204670BD001C024049
:1040B00070B50446002524E000BFE00928B10122C4
:1040C00020211548FDF75CFE04E000222021124863
:1040D000FDF756FE00BFFFF757FF00BF012210217A
:1040E0000D48FDF74DFE00BFFFF74EFF00BF002259
:1040F00010210948FDF744FE00BF6006040E681C4D
:10410000C5B2082DD8DB00BF012220210248FDF7EF
:1041100037FE00BF70BD0000001C024010B500BF9C
:10412000012220210F48FDF72BFE00BF00BF012216
:1041300010210C48FDF724FE00BFFFF725FF00BF4C
:10414000002220210748FDF71BFE00BFFFF71CFFE0
:1041500000BF002210210348FDF712FE00BFFFF749
:1041600013FF10BD001C024010B500BF002220212B
:104170000C48FDF705FE00BFFFF706FF00BF012258
:1041800010210848FDF7FCFD00BFFFF7FDFE00BF52
:10419000012220210348FDF7F3FD00BFFFF7F4FEE5
:1041A00010BD0000001C024070B50024002500BFB7
:1041B000012220211448FDF7E3FD00BFFFF7E4FED4
:1041C00000BF012210211048FDF7DAFD00BFFFF704
:1041D000DBFE07E0601CC4B2FA2C03DDFFF7C4FF6E
:1041E000012505E020210848FDF7B8FD0028F1D1A0
:1041F00000BF00BF002210210348FDF7C1FD00BF32
:10420000FFF7C2FE284670BD001C024070B5044690
:1042100000260D4805880D48006818B1204602F0B8
:10422000F3FF0FE00848408845430021084602F0AC
:10423000E1FD02F08DFF002602E005480480761CB7
:10424000AE42FAD370BD0000CC020020C4030020AF
:104250000000086010B5044650488471504800685A
:1042600050B1204602F0F6FF4D48C08A4B49088005
:104270004B48008B488010BD002C45D1F0204749A9
:1042800008804FF4A07048800846808845F210519D
:10429000884210D14FF43050404908814FF42850E3
:1042A00048814FF42C5088814FF4F07008804FF40F
:1042B000487048801AE03948808841F66311884286
:1042C0000DD12C20354908812B2048812A20888156
:1042D0004FF4F07008804FF44870488006E02C20BE
:1042E0002E4908812A2048812B2088812B488088EC
:1042F00045F2103188424CD14FF4A0702749088014
:104300004FF4F070488044E04FF4A07023490880D7
:10431000F02048800846808845F21051884210D12C
:104320004FF430501D4908814FF4285048814FF414
:104330002C5088814FF4487008804FF4F07048800A
:104340001AE01648808841F6631188420DD12C206E
:10435000124908812A2048812B2088814FF4487017
:1043600008804FF4F070488006E02C200B4908814B
:104370002A2048812B2088810848808845F2103106
:10438000884206D14FF4F070044908804FF4A070C1
:104390004880002002F016FC00BF6CE7CC02002031
:1043A000C403002070B505460E4614460848006850
:1043B00028B122463146284602F062FF07E0314626
:1043C000284602F017FD02F0C3FE02490C8070BDC2
:1043D000C40300200000086010B5CF2002F0ACFE3E
:1043E000002002F09DFEC12002F09AFE302002F073
:1043F00097FEED2002F0A0FE642002F091FE032063
:1044000002F08EFE122002F08BFE812002F088FE68
:10441000E82002F091FE852002F082FE102002F0DA
:104420007FFE7A2002F07CFECB2002F085FE392050
:1044300002F076FE2C2002F073FE002002F070FEE7
:10444000342002F06DFE022002F06AFEF72002F036
:1044500073FE202002F064FEEA2002F06DFE0020D0
:1044600002F05EFE002002F05BFEC02002F064FE5F
:104470001B2002F055FEC12002F05EFE012002F07A
:104480004FFEC52002F058FE302002F049FE3020D9
:1044900002F046FEC72002F04FFEB72002F040FEB9
:1044A000362002F049FE482002F03AFE3A2002F09F
:1044B00043FE552002F034FEB12002F03DFE002004
:1044C00002F02EFE1A2002F02BFEB62002F034FE7F
:1044D0000A2002F025FEA22002F022FEF22002F0C5
:1044E0002BFE002002F01CFE262002F025FE0120FB
:1044F00002F016FEE02002F01FFE0F2002F010FE78
:104500002A2002F00DFE282002F00AFE082002F008
:1045100007FE0E2002F004FE082002F001FE5420E7
:1045200002F0FEFDA92002F0FBFD432002F0F8FDA1
:104530000A2002F0F5FD0F2002F0F2FD002002F04B
:10454000EFFD002002F0ECFD002002F0E9FD00206C
:1045500002F0E6FDE12002F0EFFD002002F0E0FDB8
:10456000152002F0DDFD172002F0DAFD072002F031
:10457000D7FD112002F0D4FD062002F0D1FD2B2042
:1045800002F0CEFD562002F0CBFD3C2002F0C8FD2B
:10459000052002F0C5FD102002F0C2FD0F2002F040
:1045A000BFFD3F2002F0BCFD3F2002F0B9FD0F200F
:1045B00002F0B6FD2B2002F0BFFD002002F0B0FD9E
:1045C000002002F0ADFD012002F0AAFD3F2002F024
:1045D000A7FD2A2002F0B0FD002002F0A1FD00207E
:1045E00002F09EFD002002F09BFDEF2002F098FDFE
:1045F000112002F0A1FD7820FFF762FC292002F0D3
:104600009BFD10BD10B5ED2002F096FD012002F0DB
:1046100087FDFE2002F084FDEE2002F08DFDDE20FD
:1046200002F07EFD212002F07BFDF12002F084FDEE
:10463000012002F075FDDF2002F07EFD102002F067
:104640006FFDC42002F078FD8F2002F069FDC620C6
:1046500002F072FD002002F063FDE22002F060FD36
:10466000E22002F05DFDE22002F05AFDBF2002F0E0
:1046700063FDAA2002F054FDB02002F05DFD0D2084
:1046800002F04EFD002002F04BFD0D2002F048FD2F
:10469000002002F045FD112002F042FD002002F052
:1046A0003FFD192002F03CFD002002F039FD2120E1
:1046B00002F036FD002002F033FD2D2002F030FD27
:1046C000002002F02DFD3D2002F02AFD002002F026
:1046D00027FD5D2002F024FD002002F021FD5D2079
:1046E00002F01EFD002002F01BFDB12002F024FDAF
:1046F000802002F015FD002002F012FD8B2002F058
:104700000FFD002002F00CFD962002F009FD0020B4
:1047100002F006FDB22002F00FFD002002F000FDC5
:10472000002002F0FDFC022002F0FAFC002002F062
:10473000F7FC032002F0F4FC002002F0F1FCB320AF
:1047400002F0FAFC002002F0EBFC002002F0E8FC92
:10475000002002F0E5FC002002F0E2FC002002F064
:10476000DFFC002002F0DCFC002002F0D9FC00207D
:1047700002F0D6FC002002F0D3FC002002F0D0FCB6
:10478000002002F0CDFC002002F0CAFC002002F064
:10479000C7FC002002F0C4FC002002F0C1FC002095
:1047A00002F0BEFC002002F0BBFC002002F0B8FCCE
:1047B000002002F0B5FC002002F0B2FC002002F064
:1047C000AFFC002002F0ACFC002002F0A9FC0020AD
:1047D00002F0A6FCB42002F0AFFC8B2002F0A0FC9B
:1047E000002002F09DFC962002F09AFC002002F0CE
:1047F00097FCA12002F094FC002002F091FCB5206F
:1048000002F09AFC022002F08BFC002002F088FCEF
:10481000032002F085FC002002F082FC042002F05C
:104820007FFC002002F07CFCB62002F085FC00201A
:1048300002F076FC002002F073FCB72002F07CFC52
:10484000002002F06DFC002002F06AFC3F2002F024
:1048500067FC002002F064FC5E2002F061FC002096
:1048600002F05EFC642002F05BFC002002F058FCC9
:104870008C2002F055FC002002F052FCAC2002F02B
:104880004FFC002002F04CFCDC2002F049FC002030
:1048900002F046FC702002F043FC002002F040FCD5
:1048A000902002F03DFC002002F03AFCEB2002F0E8
:1048B00037FC002002F034FCDC2002F031FC002048
:1048C00002F02EFCB82002F037FC002002F028FC99
:1048D000002002F025FC002002F022FC002002F063
:1048E0001FFC002002F01CFC002002F019FC00203C
:1048F00002F016FC002002F013FCBA2002F01CFCAF
:10490000242002F00DFC002002F00AFC002002F03E
:1049100007FC002002F004FCC12002F00DFC202066
:1049200002F0FEFB002002F0FBFB542002F0F8FB3B
:10493000002002F0F5FBFF2002F0F2FB002002F065
:10494000EFFBC22002F0F8FB0A2002F0E9FB002096
:1049500002F0E6FB042002F0E3FB002002F0E0FBA3
:10496000C32002F0E9FB3C2002F0DAFB002002F059
:10497000D7FB3A2002F0D4FB002002F0D1FB392013
:1049800002F0CEFB002002F0CBFB372002F0C8FB88
:10499000002002F0C5FB3C2002F0C2FB002002F028
:1049A000BFFB362002F0BCFB002002F0B9FB322036
:1049B00002F0B6FB002002F0B3FB2F2002F0B0FBA8
:1049C000002002F0ADFB2C2002F0AAFB002002F038
:1049D000A7FB292002F0A4FB002002F0A1FB262067
:1049E00002F09EFB002002F09BFB242002F098FBCB
:1049F000002002F095FB242002F092FB002002F040
:104A00008FFB232002F08CFB002002F089FB3C206E
:104A100002F086FB002002F083FB362002F080FBD0
:104A2000002002F07DFB322002F07AFB002002F031
:104A300077FB2F2002F074FB002002F071FB2C208A
:104A400002F06EFB002002F06BFB292002F068FBF5
:104A5000002002F065FB262002F062FB002002F03D
:104A60005FFB242002F05CFB002002F059FB2420B5
:104A700002F056FB002002F053FB232002F050FB13
:104A8000002002F04DFBC42002F056FB622002F031
:104A900047FB002002F044FB052002F041FB002010
:104AA00002F03EFB842002F03BFB002002F038FBCA
:104AB000F02002F035FB002002F032FB182002F05B
:104AC0002FFB002002F02CFBA42002F029FB002089
:104AD00002F026FB182002F023FB002002F020FB4E
:104AE000502002F01DFB002002F01AFB0C2002F007
:104AF00017FB002002F014FB172002F011FB00202E
:104B000002F00EFB952002F00BFB002002F008FBE8
:104B1000F32002F005FB002002F002FBE62002F089
:104B2000FFFA002002F0FCFAC52002F005FB32205B
:104B300002F0F6FA002002F0F3FA442002F0F0FA54
:104B4000002002F0EDFA652002F0EAFA002002F0FF
:104B5000E7FA762002F0E4FA002002F0E1FA882079
:104B600002F0DEFA002002F0DBFAC62002F0E4FADE
:104B7000202002F0D5FA002002F0D2FA172002F02D
:104B8000CFFA002002F0CCFA012002F0C9FA00208E
:104B900002F0C6FAC72002F0CFFA002002F0C0FAF5
:104BA000002002F0BDFA002002F0BAFA002002F064
:104BB000B7FAC82002F0C0FA002002F0B1FA0020D3
:104BC00002F0AEFA002002F0ABFA002002F0A8FAE0
:104BD000C92002F0B1FA002002F0A2FA002002F08F
:104BE0009FFA002002F09CFA002002F099FA0020BF
:104BF00002F096FA002002F093FA002002F090FAF8
:104C0000002002F08DFA002002F08AFA002002F063
:104C100087FA002002F084FA002002F081FA0020D6
:104C200002F07EFA002002F07BFA002002F078FA0F
:104C3000002002F075FAE02002F07EFA162002F061
:104C40006FFA002002F06CFA1C2002F069FA0020D2
:104C500002F066FA212002F063FA002002F060FA06
:104C6000362002F05DFA002002F05AFA462002F0E7
:104C700057FA002002F054FA522002F051FA0020B4
:104C800002F04EFA642002F04BFA002002F048FADB
:104C90007A2002F045FA002002F042FA8B2002F05E
:104CA0003FFA002002F03CFA992002F039FA002085
:104CB00002F036FAA82002F033FA002002F030FAAF
:104CC000B92002F02DFA002002F02AFAC42002F0E6
:104CD00027FA002002F024FACA2002F021FA00206C
:104CE00002F01EFAD22002F01BFA002002F018FA9D
:104CF000D92002F015FA002002F012FAE02002F0AA
:104D00000FFA002002F00CFAF32002F009FA00205A
:104D100002F006FAE12002F00FFA162002F000FA83
:104D2000002002F0FDF91C2002F0FAF9002002F048
:104D3000F7F9222002F0F4F9002002F0F1F9362010
:104D400002F0EEF9002002F0EBF9452002F0E8F95C
:104D5000002002F0E5F9522002F0E2F9002002F012
:104D6000DFF9642002F0DCF9002002F0D9F97A20A2
:104D700002F0D6F9002002F0D3F98B2002F0D0F92E
:104D8000002002F0CDF9992002F0CAF9002002F0CB
:104D9000C7F9A82002F0C4F9002002F0C1F9B92037
:104DA00002F0BEF9002002F0BBF9C42002F0B8F90D
:104DB000002002F0B5F9CA2002F0B2F9002002F09A
:104DC000AFF9D22002F0ACF9002002F0A9F9D82006
:104DD00002F0A6F9002002F0A3F9E02002F0A0F909
:104DE000002002F09DF9F32002F09AF9002002F071
:104DF00097F9E22002F0A0F9052002F091F90020D5
:104E000002F08EF90B2002F08BF9002002F088F9F5
:104E10001B2002F085F9002002F082F9342002F014
:104E20007FF9002002F07CF9442002F079F900209B
:104E300002F076F94F2002F073F9002002F070F9C9
:104E4000612002F06DF9002002F06AF9792002F089
:104E500067F9002002F064F9882002F061F900206F
:104E600002F05EF9972002F05BF9002002F058F999
:104E7000A62002F055F9002002F052F9B72002F006
:104E80004FF9002002F04CF9C22002F049F900204D
:104E900002F046F9C72002F043F9002002F040F981
:104EA000D12002F03DF9002002F03AF9D62002F0BC
:104EB00037F9002002F034F9DD2002F031F900204A
:104EC00002F02EF9F32002F02BF9002002F028F96D
:104ED000E32002F031F9052002F022F9002002F06F
:104EE0001FF90A2002F01CF9002002F019F91C2019
:104EF00002F016F9002002F013F9332002F010F945
:104F0000002002F00DF9442002F00AF9002002F01E
:104F100007F9502002F004F9002002F001F96220A4
:104F200002F0FEF8002002F0FBF8782002F0F8F81A
:104F3000002002F0F5F8882002F0F2F8002002F0DC
:104F4000EFF8972002F0ECF8002002F0E9F8A62034
:104F500002F0E6F8002002F0E3F8B72002F0E0F8F3
:104F6000002002F0DDF8C22002F0DAF8002002F0A2
:104F7000D7F8C72002F0D4F8002002F0D1F8D120F1
:104F800002F0CEF8002002F0CBF8D52002F0C8F8ED
:104F9000002002F0C5F8DD2002F0C2F8002002F087
:104FA000BFF8F32002F0BCF8002002F0B9F8E420CA
:104FB00002F0C2F8012002F0B3F8002002F0B0F8CD
:104FC000012002F0ADF8002002F0AAF8022002F061
:104FD000A7F8002002F0A4F82A2002F0A1F800208F
:104FE00002F09EF83C2002F09BF8002002F098F8B6
:104FF0004B2002F095F8002002F092F85D2002F0BC
:105000008FF8002002F08CF8742002F089F800205C
:1050100002F086F8842002F083F8002002F080F885
:10502000932002F07DF8002002F07AF8A22002F02E
:1050300077F8002002F074F8B32002F071F8002035
:1050400002F06EF8BE2002F06BF8002002F068F863
:10505000C42002F065F8002002F062F8CD2002F0D2
:105060005FF8002002F05CF8D32002F059F800202D
:1050700002F056F8DD2002F053F8002002F050F85C
:10508000F32002F04DF8002002F04AF8E52002F08B
:1050900053F8002002F044F8002002F041F800200C
:1050A00002F03EF8002002F03BF8022002F038F84F
:1050B000002002F035F8292002F032F8002002F03A
:1050C0002FF83C2002F02CF8002002F029F84B20A9
:1050D00002F026F8002002F023F85D2002F020F80C
:1050E000002002F01DF8742002F01AF8002002F0EF
:1050F00017F8842002F014F8002002F011F8932031
:1051000002F00EF8002002F00BF8A22002F008F8DE
:10511000002002F005F8B32002F002F8002001F0B0
:10512000FFFFBE2001F0FCFF002001F0F9FFC420CA
:1051300001F0F6FF002001F0F3FFCD2001F0F0FFB9
:10514000002001F0EDFFD32001F0EAFF002001F084
:10515000E7FFDC2001F0E4FF002001F0E1FFF32095
:1051600001F0DEFF002001F0DBFFE62001F0E4FFAC
:10517000112001F0D5FF002001F0D2FF342001F012
:10518000CFFF002001F0CCFF562001F0C9FF002026
:1051900001F0C6FF762001F0C3FF002001F0C0FF40
:1051A000772001F0BDFF002001F0BAFF662001F07A
:1051B000B7FF002001F0B4FF882001F0B1FF00200C
:1051C00001F0AEFF992001F0ABFF002001F0A8FF35
:1051D000BB2001F0A5FF002001F0A2FF992001F003
:1051E0009FFF002001F09CFF662001F099FF002046
:1051F00001F096FF552001F093FF002001F090FF91
:10520000552001F08DFF002001F08AFF452001F0BC
:1052100087FF002001F084FF432001F081FF002080
:1052200001F07EFF442001F07BFF002001F078FFB9
:10523000E72001F081FF322001F072FF002001F031
:105240006FFF552001F06CFF002001F069FF762010
:1052500001F066FF002001F063FF662001F060FFAF
:10526000002001F05DFF672001F05AFF002001F0EF
:1052700057FF672001F054FF002001F051FF872005
:1052800001F04EFF002001F04BFF992001F048FF94
:10529000002001F045FFBB2001F042FF002001F09B
:1052A0003FFF992001F03CFF002001F039FF7720FB
:1052B00001F036FF002001F033FF442001F030FF01
:1052C000002001F02DFF562001F02AFF002001F000
:1052D00027FF232001F024FF002001F021FF3320CD
:1052E00001F01EFF002001F01BFF452001F018FF18
:1052F000002001F015FFE82001F01EFF002001F062
:105300000FFF002001F00CFF992001F009FF0020A1
:1053100001F006FF872001F003FF002001F000FFED
:10532000882001F0FDFE002001F0FAFE772001F058
:10533000F7FE002001F0F4FE662001F0F1FE0020EF
:1053400001F0EEFE882001F0EBFE002001F0E8FE07
:10535000AA2001F0E5FE002001F0E2FEBB2001F0F2
:10536000DFFE002001F0DCFE992001F0D9FE0020D4
:1053700001F0D6FE662001F0D3FE002001F0D0FE41
:10538000552001F0CDFE002001F0CAFE552001F0AD
:10539000C7FE002001F0C4FE442001F0C1FE002041
:1053A00001F0BEFE442001F0BBFE002001F0B8FE7B
:1053B000552001F0B5FE002001F0B2FEE92001F019
:1053C000BBFEAA2001F0ACFE002001F0A9FE0020E7
:1053D00001F0A6FE002001F0A3FE002001F0ACFECB
:1053E000AA2001F09DFECF2001F0A6FE002001F0D2
:1053F00097FE002001F094FE002001F091FE0020B5
:1054000001F08EFE002001F08BFE002001F088FEEE
:10541000002001F085FE002001F082FE002001F056
:105420007FFE002001F07CFE002001F079FE0020CC
:1054300001F076FE002001F073FE002001F070FE06
:10544000002001F06DFE002001F06AFE002001F056
:1054500067FEF02001F070FE002001F061FE502098
:1054600001F05EFE002001F05BFE002001F058FE1E
:10547000002001F055FEF32001F05EFE002001F057
:105480004FFEF92001F058FE062001F049FE1020E1
:1054900001F046FE292001F043FE002001F040FE0D
:1054A0003A2001F049FE552001F03AFE112001F0AA
:1054B00043FE6420FEF704FD292001F03DFE352067
:1054C00001F03AFE002001F02BFE512001F034FEE5
:1054D000FF2001F025FE532001F02EFE2C2001F0CC
:1054E0001FFE552001F028FE822001F019FE2C201D
:1054F00001F022FE10BD10B555214FF4704001F0AF
:1055000031FEAA214FF2010001F02CFE52214FF290
:10551000020001F027FE08214FF2030001F022FEF5
:1055200001214FF2040001F01DFE0D214FF4304027
:1055300001F018FE0D214BF2010001F013FE0D21C8
:105540004BF2020001F00EFE34214FF4364001F020
:1055500009FE34214BF2016001F004FE34214BF2CC
:10556000026001F0FFFD0D214FF4314001F0FAFD22
:105570000D214BF2011001F0F5FD0D214BF202104F
:1055800001F0F0FD34214FF4374001F0EBFD342100
:105590004BF2017001F0E6FD34214BF2027001F094
:1055A000E1FD00214FF4324001F0DCFD00214BF21F
:1055B000012001F0D7FD00214BF2022001F0D2FDC5
:1055C00024214FF4384001F0CDFD24214BF6010099
:1055D00001F0C8FD24214BF6020001F0C3FD0121BA
:1055E0004FF43F4001F0BEFD0F214FF4334001F076
:1055F000B9FD0F214BF2013001F0B4FD0F214BF248
:10560000023001F0AFFD34214FF4394001F0AAFD22
:1056100034214BF6011001F0A5FD34214BF60210A8
:1056200001F0A0FD08214FF4354001F09BFD082159
:105630004BF2015001F096FD08214BF2025001F0AF
:1056400091FD03214FF4424001F08CFD24214FF4E1
:105650003A4001F087FD24214BF6012001F082FD44
:1056600024214BF6022001F07DFD00214FF43C4047
:1056700001F078FD78214BF6014001F073FD002127
:105680004BF6024001F06EFD00214FF43D4001F069
:1056900069FD78214BF6015001F064FD00214BF6C5
:1056A000025001F05FFD00214FF43E4001F05AFD31
:1056B00064214BF6016001F055FD00214FF451408B
:1056C00001F050FD33214DF2011001F04BFD00219E
:1056D0004DF2021001F046FD34214DF2031001F0AD
:1056E00041FD00214DF2041001F03CFD3A214DF244
:1056F000051001F037FD00214DF2061001F032FDDA
:105700004A214DF2071001F02DFD00214DF2081045
:1057100001F028FD5C214DF2091001F023FD00216C
:105720004DF20A1001F01EFD81214DF20B1001F027
:1057300019FD00214DF20C1001F014FDA6214DF2CF
:105740000D1001F00FFD00214DF20E1001F00AFDC9
:10575000E5214DF20F1001F005FD01214DF2101071
:1057600001F000FD13214DF2111001F0FBFC0121AD
:105770004DF2121001F0F6FC54214DF2131001F01D
:10578000F1FC01214DF2141001F0ECFC82214DF2EC
:10579000151001F0E7FC01214DF2161001F0E2FCBA
:1057A000CA214DF2171001F0DDFC02214DF2181054
:1057B00001F0D8FC00214DF2191001F0D3FC0221B8
:1057C0004DF21A1001F0CEFC01214DF21B1001F038
:1057D000C9FC02214DF21C1001F0C4FC34214DF231
:1057E0001D1001F0BFFC02214DF21E1001F0BAFCA9
:1057F00067214DF21F1001F0B5FC02214DF220107F
:1058000001F0B0FC84214DF2211001F0ABFC02212B
:105810004DF2221001F0A6FCA4214DF2231001F05C
:10582000A1FC02214DF2241001F09CFCB7214DF2A5
:10583000251001F097FC02214DF2261001F092FC98
:10584000CF214DF2271001F08DFC02214DF22810DE
:1058500001F088FCDE214DF2291001F083FC0221C9
:105860004DF22A1001F07EFCF2214DF22B1001F0D6
:1058700079FC02214DF22C1001F074FCFE214DF256
:105880002D1001F06FFC03214DF22E1001F06AFC87
:1058900010214DF22F1001F065FC03214DF2301064
:1058A00001F060FC33214DF2311001F05BFC03216B
:1058B0004DF2321001F056FC6D214DF2331001F023
:1058C00051FC00214FF4524001F04CFC33214DF2C9
:1058D000012001F047FC00214DF2022001F042FCC2
:1058E00034214DF2032001F03DFC00214DF2042053
:1058F00001F038FC3A214DF2052001F033FC002183
:105900004DF2062001F02EFC4A214DF2072001F055
:1059100029FC00214DF2082001F024FC5C214DF20D
:10592000092001F01FFC00214DF20A2001F01AFCB1
:1059300081214DF20B2001F015FC00214DF20C20CD
:1059400001F010FCA6214DF20D2001F00BFC00210E
:105950004DF20E2001F006FCE5214DF20F2001F082
:1059600001FC01214DF2102001F0FCFB13214DF24E
:10597000112001F0F7FB01214DF2122001F0F2FBA2
:1059800054214DF2132001F0EDFB01214DF21420C2
:1059900001F0E8FB82214DF2152001F0E3FB01212B
:1059A0004DF2162001F0DEFBCA214DF2172001F066
:1059B000D9FB02214DF2182001F0D4FB00214DF259
:1059C000192001F0CFFB02214DF21A2001F0CAFB91
:1059D00001214DF21B2001F0C5FB02214DF21C20DC
:1059E00001F0C0FB34214DF21D2001F0BBFB022170
:1059F0004DF21E2001F0B6FB67214DF21F2001F091
:105A0000B1FB02214DF2202001F0ACFB84214DF2CC
:105A1000212001F0A7FB02214DF2222001F0A2FB80
:105A2000A4214DF2232001F09DFB02214DF2242000
:105A300001F098FBB7214DF2252001F093FB0221E4
:105A40004DF2262001F08EFBCF214DF2272001F0F0
:105A500089FB02214DF2282001F084FBDE214DF26A
:105A6000292001F07FFB02214DF22A2001F07AFB70
:105A7000F2214DF22B2001F075FB02214DF22C207A
:105A800001F070FBFE214DF22D2001F06BFB032194
:105A90004DF22E2001F066FB10214DF22F2001F077
:105AA00061FB03214DF2302001F05CFB33214DF20C
:105AB000312001F057FB03214DF2322001F052FB5F
:105AC0006D214DF2332001F04DFB00214FF4534086
:105AD00001F048FB33214DF2013001F043FB00217E
